{
  "contractName": "BAllowanceHarness",
  "abi": [
    {
      "inputs": [
        {
          "internalType": "string",
          "name": "_name",
          "type": "string"
        },
        {
          "internalType": "string",
          "name": "_symbol",
          "type": "string"
        }
      ],
      "payable": false,
      "stateMutability": "nonpayable",
      "type": "constructor"
    },
    {
      "anonymous": false,
      "inputs": [
        {
          "indexed": true,
          "internalType": "address",
          "name": "owner",
          "type": "address"
        },
        {
          "indexed": true,
          "internalType": "address",
          "name": "spender",
          "type": "address"
        },
        {
          "indexed": false,
          "internalType": "uint256",
          "name": "value",
          "type": "uint256"
        }
      ],
      "name": "Approval",
      "type": "event"
    },
    {
      "anonymous": false,
      "inputs": [
        {
          "indexed": true,
          "internalType": "address",
          "name": "owner",
          "type": "address"
        },
        {
          "indexed": true,
          "internalType": "address",
          "name": "spender",
          "type": "address"
        },
        {
          "indexed": false,
          "internalType": "uint256",
          "name": "value",
          "type": "uint256"
        }
      ],
      "name": "BorrowApproval",
      "type": "event"
    },
    {
      "anonymous": false,
      "inputs": [
        {
          "indexed": true,
          "internalType": "address",
          "name": "sender",
          "type": "address"
        },
        {
          "indexed": true,
          "internalType": "address",
          "name": "minter",
          "type": "address"
        },
        {
          "indexed": false,
          "internalType": "uint256",
          "name": "mintAmount",
          "type": "uint256"
        },
        {
          "indexed": false,
          "internalType": "uint256",
          "name": "mintTokens",
          "type": "uint256"
        }
      ],
      "name": "Mint",
      "type": "event"
    },
    {
      "anonymous": false,
      "inputs": [
        {
          "indexed": true,
          "internalType": "address",
          "name": "sender",
          "type": "address"
        },
        {
          "indexed": true,
          "internalType": "address",
          "name": "redeemer",
          "type": "address"
        },
        {
          "indexed": false,
          "internalType": "uint256",
          "name": "redeemAmount",
          "type": "uint256"
        },
        {
          "indexed": false,
          "internalType": "uint256",
          "name": "redeemTokens",
          "type": "uint256"
        }
      ],
      "name": "Redeem",
      "type": "event"
    },
    {
      "anonymous": false,
      "inputs": [
        {
          "indexed": false,
          "internalType": "uint256",
          "name": "totalBalance",
          "type": "uint256"
        }
      ],
      "name": "Sync",
      "type": "event"
    },
    {
      "anonymous": false,
      "inputs": [
        {
          "indexed": true,
          "internalType": "address",
          "name": "from",
          "type": "address"
        },
        {
          "indexed": true,
          "internalType": "address",
          "name": "to",
          "type": "address"
        },
        {
          "indexed": false,
          "internalType": "uint256",
          "name": "value",
          "type": "uint256"
        }
      ],
      "name": "Transfer",
      "type": "event"
    },
    {
      "constant": true,
      "inputs": [],
      "name": "BORROW_PERMIT_TYPEHASH",
      "outputs": [
        {
          "internalType": "bytes32",
          "name": "",
          "type": "bytes32"
        }
      ],
      "payable": false,
      "stateMutability": "view",
      "type": "function"
    },
    {
      "constant": true,
      "inputs": [],
      "name": "DOMAIN_SEPARATOR",
      "outputs": [
        {
          "internalType": "bytes32",
          "name": "",
          "type": "bytes32"
        }
      ],
      "payable": false,
      "stateMutability": "view",
      "type": "function"
    },
    {
      "constant": true,
      "inputs": [],
      "name": "MINIMUM_LIQUIDITY",
      "outputs": [
        {
          "internalType": "uint256",
          "name": "",
          "type": "uint256"
        }
      ],
      "payable": false,
      "stateMutability": "view",
      "type": "function"
    },
    {
      "constant": true,
      "inputs": [],
      "name": "PERMIT_TYPEHASH",
      "outputs": [
        {
          "internalType": "bytes32",
          "name": "",
          "type": "bytes32"
        }
      ],
      "payable": false,
      "stateMutability": "view",
      "type": "function"
    },
    {
      "constant": false,
      "inputs": [],
      "name": "_setFactory",
      "outputs": [],
      "payable": false,
      "stateMutability": "nonpayable",
      "type": "function"
    },
    {
      "constant": true,
      "inputs": [],
      "name": "accrualTimestamp",
      "outputs": [
        {
          "internalType": "uint32",
          "name": "",
          "type": "uint32"
        }
      ],
      "payable": false,
      "stateMutability": "view",
      "type": "function"
    },
    {
      "constant": true,
      "inputs": [],
      "name": "adjustSpeed",
      "outputs": [
        {
          "internalType": "uint256",
          "name": "",
          "type": "uint256"
        }
      ],
      "payable": false,
      "stateMutability": "view",
      "type": "function"
    },
    {
      "constant": true,
      "inputs": [
        {
          "internalType": "address",
          "name": "",
          "type": "address"
        },
        {
          "internalType": "address",
          "name": "",
          "type": "address"
        }
      ],
      "name": "allowance",
      "outputs": [
        {
          "internalType": "uint256",
          "name": "",
          "type": "uint256"
        }
      ],
      "payable": false,
      "stateMutability": "view",
      "type": "function"
    },
    {
      "constant": false,
      "inputs": [
        {
          "internalType": "address",
          "name": "spender",
          "type": "address"
        },
        {
          "internalType": "uint256",
          "name": "value",
          "type": "uint256"
        }
      ],
      "name": "approve",
      "outputs": [
        {
          "internalType": "bool",
          "name": "",
          "type": "bool"
        }
      ],
      "payable": false,
      "stateMutability": "nonpayable",
      "type": "function"
    },
    {
      "constant": true,
      "inputs": [
        {
          "internalType": "address",
          "name": "",
          "type": "address"
        }
      ],
      "name": "balanceOf",
      "outputs": [
        {
          "internalType": "uint256",
          "name": "",
          "type": "uint256"
        }
      ],
      "payable": false,
      "stateMutability": "view",
      "type": "function"
    },
    {
      "constant": true,
      "inputs": [
        {
          "internalType": "address",
          "name": "",
          "type": "address"
        },
        {
          "internalType": "address",
          "name": "",
          "type": "address"
        }
      ],
      "name": "borrowAllowance",
      "outputs": [
        {
          "internalType": "uint256",
          "name": "",
          "type": "uint256"
        }
      ],
      "payable": false,
      "stateMutability": "view",
      "type": "function"
    },
    {
      "constant": false,
      "inputs": [
        {
          "internalType": "address",
          "name": "spender",
          "type": "address"
        },
        {
          "internalType": "uint256",
          "name": "value",
          "type": "uint256"
        }
      ],
      "name": "borrowApprove",
      "outputs": [
        {
          "internalType": "bool",
          "name": "",
          "type": "bool"
        }
      ],
      "payable": false,
      "stateMutability": "nonpayable",
      "type": "function"
    },
    {
      "constant": true,
      "inputs": [],
      "name": "borrowIndex",
      "outputs": [
        {
          "internalType": "uint112",
          "name": "",
          "type": "uint112"
        }
      ],
      "payable": false,
      "stateMutability": "view",
      "type": "function"
    },
    {
      "constant": false,
      "inputs": [
        {
          "internalType": "address",
          "name": "owner",
          "type": "address"
        },
        {
          "internalType": "address",
          "name": "spender",
          "type": "address"
        },
        {
          "internalType": "uint256",
          "name": "value",
          "type": "uint256"
        },
        {
          "internalType": "uint256",
          "name": "deadline",
          "type": "uint256"
        },
        {
          "internalType": "uint8",
          "name": "v",
          "type": "uint8"
        },
        {
          "internalType": "bytes32",
          "name": "r",
          "type": "bytes32"
        },
        {
          "internalType": "bytes32",
          "name": "s",
          "type": "bytes32"
        }
      ],
      "name": "borrowPermit",
      "outputs": [],
      "payable": false,
      "stateMutability": "nonpayable",
      "type": "function"
    },
    {
      "constant": true,
      "inputs": [],
      "name": "borrowRate",
      "outputs": [
        {
          "internalType": "uint48",
          "name": "",
          "type": "uint48"
        }
      ],
      "payable": false,
      "stateMutability": "view",
      "type": "function"
    },
    {
      "constant": true,
      "inputs": [],
      "name": "borrowTracker",
      "outputs": [
        {
          "internalType": "address",
          "name": "",
          "type": "address"
        }
      ],
      "payable": false,
      "stateMutability": "view",
      "type": "function"
    },
    {
      "constant": true,
      "inputs": [],
      "name": "collateral",
      "outputs": [
        {
          "internalType": "address",
          "name": "",
          "type": "address"
        }
      ],
      "payable": false,
      "stateMutability": "view",
      "type": "function"
    },
    {
      "constant": true,
      "inputs": [],
      "name": "decimals",
      "outputs": [
        {
          "internalType": "uint8",
          "name": "",
          "type": "uint8"
        }
      ],
      "payable": false,
      "stateMutability": "view",
      "type": "function"
    },
    {
      "constant": false,
      "inputs": [],
      "name": "exchangeRate",
      "outputs": [
        {
          "internalType": "uint256",
          "name": "",
          "type": "uint256"
        }
      ],
      "payable": false,
      "stateMutability": "nonpayable",
      "type": "function"
    },
    {
      "constant": true,
      "inputs": [],
      "name": "exchangeRateLast",
      "outputs": [
        {
          "internalType": "uint256",
          "name": "",
          "type": "uint256"
        }
      ],
      "payable": false,
      "stateMutability": "view",
      "type": "function"
    },
    {
      "constant": true,
      "inputs": [],
      "name": "factory",
      "outputs": [
        {
          "internalType": "address",
          "name": "",
          "type": "address"
        }
      ],
      "payable": false,
      "stateMutability": "view",
      "type": "function"
    },
    {
      "constant": true,
      "inputs": [],
      "name": "kinkBorrowRate",
      "outputs": [
        {
          "internalType": "uint48",
          "name": "",
          "type": "uint48"
        }
      ],
      "payable": false,
      "stateMutability": "view",
      "type": "function"
    },
    {
      "constant": true,
      "inputs": [],
      "name": "kinkUtilizationRate",
      "outputs": [
        {
          "internalType": "uint256",
          "name": "",
          "type": "uint256"
        }
      ],
      "payable": false,
      "stateMutability": "view",
      "type": "function"
    },
    {
      "constant": false,
      "inputs": [
        {
          "internalType": "address",
          "name": "minter",
          "type": "address"
        }
      ],
      "name": "mint",
      "outputs": [
        {
          "internalType": "uint256",
          "name": "mintTokens",
          "type": "uint256"
        }
      ],
      "payable": false,
      "stateMutability": "nonpayable",
      "type": "function"
    },
    {
      "constant": true,
      "inputs": [],
      "name": "name",
      "outputs": [
        {
          "internalType": "string",
          "name": "",
          "type": "string"
        }
      ],
      "payable": false,
      "stateMutability": "view",
      "type": "function"
    },
    {
      "constant": true,
      "inputs": [
        {
          "internalType": "address",
          "name": "",
          "type": "address"
        }
      ],
      "name": "nonces",
      "outputs": [
        {
          "internalType": "uint256",
          "name": "",
          "type": "uint256"
        }
      ],
      "payable": false,
      "stateMutability": "view",
      "type": "function"
    },
    {
      "constant": false,
      "inputs": [
        {
          "internalType": "address",
          "name": "owner",
          "type": "address"
        },
        {
          "internalType": "address",
          "name": "spender",
          "type": "address"
        },
        {
          "internalType": "uint256",
          "name": "value",
          "type": "uint256"
        },
        {
          "internalType": "uint256",
          "name": "deadline",
          "type": "uint256"
        },
        {
          "internalType": "uint8",
          "name": "v",
          "type": "uint8"
        },
        {
          "internalType": "bytes32",
          "name": "r",
          "type": "bytes32"
        },
        {
          "internalType": "bytes32",
          "name": "s",
          "type": "bytes32"
        }
      ],
      "name": "permit",
      "outputs": [],
      "payable": false,
      "stateMutability": "nonpayable",
      "type": "function"
    },
    {
      "constant": true,
      "inputs": [],
      "name": "rateUpdateTimestamp",
      "outputs": [
        {
          "internalType": "uint32",
          "name": "",
          "type": "uint32"
        }
      ],
      "payable": false,
      "stateMutability": "view",
      "type": "function"
    },
    {
      "constant": false,
      "inputs": [
        {
          "internalType": "address",
          "name": "redeemer",
          "type": "address"
        }
      ],
      "name": "redeem",
      "outputs": [
        {
          "internalType": "uint256",
          "name": "redeemAmount",
          "type": "uint256"
        }
      ],
      "payable": false,
      "stateMutability": "nonpayable",
      "type": "function"
    },
    {
      "constant": true,
      "inputs": [],
      "name": "reserveFactor",
      "outputs": [
        {
          "internalType": "uint256",
          "name": "",
          "type": "uint256"
        }
      ],
      "payable": false,
      "stateMutability": "view",
      "type": "function"
    },
    {
      "constant": false,
      "inputs": [
        {
          "internalType": "address",
          "name": "to",
          "type": "address"
        }
      ],
      "name": "skim",
      "outputs": [],
      "payable": false,
      "stateMutability": "nonpayable",
      "type": "function"
    },
    {
      "constant": true,
      "inputs": [],
      "name": "symbol",
      "outputs": [
        {
          "internalType": "string",
          "name": "",
          "type": "string"
        }
      ],
      "payable": false,
      "stateMutability": "view",
      "type": "function"
    },
    {
      "constant": false,
      "inputs": [],
      "name": "sync",
      "outputs": [],
      "payable": false,
      "stateMutability": "nonpayable",
      "type": "function"
    },
    {
      "constant": true,
      "inputs": [],
      "name": "totalBalance",
      "outputs": [
        {
          "internalType": "uint256",
          "name": "",
          "type": "uint256"
        }
      ],
      "payable": false,
      "stateMutability": "view",
      "type": "function"
    },
    {
      "constant": true,
      "inputs": [],
      "name": "totalBorrows",
      "outputs": [
        {
          "internalType": "uint112",
          "name": "",
          "type": "uint112"
        }
      ],
      "payable": false,
      "stateMutability": "view",
      "type": "function"
    },
    {
      "constant": true,
      "inputs": [],
      "name": "totalSupply",
      "outputs": [
        {
          "internalType": "uint256",
          "name": "",
          "type": "uint256"
        }
      ],
      "payable": false,
      "stateMutability": "view",
      "type": "function"
    },
    {
      "constant": false,
      "inputs": [
        {
          "internalType": "address",
          "name": "to",
          "type": "address"
        },
        {
          "internalType": "uint256",
          "name": "value",
          "type": "uint256"
        }
      ],
      "name": "transfer",
      "outputs": [
        {
          "internalType": "bool",
          "name": "",
          "type": "bool"
        }
      ],
      "payable": false,
      "stateMutability": "nonpayable",
      "type": "function"
    },
    {
      "constant": false,
      "inputs": [
        {
          "internalType": "address",
          "name": "from",
          "type": "address"
        },
        {
          "internalType": "address",
          "name": "to",
          "type": "address"
        },
        {
          "internalType": "uint256",
          "name": "value",
          "type": "uint256"
        }
      ],
      "name": "transferFrom",
      "outputs": [
        {
          "internalType": "bool",
          "name": "",
          "type": "bool"
        }
      ],
      "payable": false,
      "stateMutability": "nonpayable",
      "type": "function"
    },
    {
      "constant": true,
      "inputs": [],
      "name": "underlying",
      "outputs": [
        {
          "internalType": "address",
          "name": "",
          "type": "address"
        }
      ],
      "payable": false,
      "stateMutability": "view",
      "type": "function"
    },
    {
      "constant": false,
      "inputs": [
        {
          "internalType": "address",
          "name": "owner",
          "type": "address"
        },
        {
          "internalType": "address",
          "name": "spender",
          "type": "address"
        },
        {
          "internalType": "uint256",
          "name": "amount",
          "type": "uint256"
        }
      ],
      "name": "checkBorrowAllowance",
      "outputs": [],
      "payable": false,
      "stateMutability": "nonpayable",
      "type": "function"
    }
  ],
  "bytecode": "0x60806040526012600260006101000a81548160ff021916908360ff1602179055506001600b60006101000a81548160ff021916908315150217905550670de0b6b3a7640000600e60006101000a8154816dffffffffffffffffffffffffffff02191690836dffffffffffffffffffffffffffff16021790555064010000000042816200008757fe5b06600e601c6101000a81548163ffffffff021916908363ffffffff160217905550635e80a6c0601060066101000a81548165ffffffffffff021916908365ffffffffffff1602179055506401000000004281620000e057fe5b066010600c6101000a81548163ffffffff021916908363ffffffff16021790555067016345785d8a00006011556709b6e64a8ec600006012556486bd6db0206013553480156200012f57600080fd5b506040516200340138038062003401833981810160405260408110156200015557600080fd5b81019080805160405193929190846401000000008211156200017657600080fd5b838201915060208201858111156200018d57600080fd5b8251866001820283011164010000000082111715620001ab57600080fd5b8083526020830192505050908051906020019080838360005b83811015620001e1578082015181840152602081019050620001c4565b50505050905090810190601f1680156200020f5780820380516001836020036101000a031916815260200191505b50604052602001805160405193929190846401000000008211156200023357600080fd5b838201915060208201858111156200024a57600080fd5b82518660018202830111640100000000821117156200026857600080fd5b8083526020830192505050908051906020019080838360005b838110156200029e57808201518184015260208101905062000281565b50505050905090810190601f168015620002cc5780820380516001836020036101000a031916815260200191505b50604052505050620002e58282620002ed60201b60201c565b5050620004ad565b816000908051906020019062000305929190620003fe565b5080600190805190602001906200031e929190620003fe565b5060004690506040518080620033af605291396052019050604051809103902083805190602001206040518060400160405280600181526020017f3100000000000000000000000000000000000000000000000000000000000000815250805190602001208330604051602001808681526020018581526020018481526020018381526020018273ffffffffffffffffffffffffffffffffffffffff1673ffffffffffffffffffffffffffffffffffffffff1681526020019550505050505060405160208183030381529060405280519060200120600681905550505050565b828054600181600116156101000203166002900490600052602060002090601f016020900481019282601f106200044157805160ff191683800117855562000472565b8280016001018555821562000472579182015b828111156200047157825182559160200191906001019062000454565b5b50905062000481919062000485565b5090565b620004aa91905b80821115620004a65760008160009055506001016200048c565b5090565b90565b612ef280620004bd6000396000f3fe608060405234801561001057600080fd5b50600436106102485760003560e01c80637ecebe001161013b578063ba9a7a56116100b8578063d505accf1161007c578063d505accf14610b86578063d8dfeb4514610c1f578063dd62ed3e14610c69578063e12b630614610ce1578063fff6cae914610d0b57610248565b8063ba9a7a5614610a8e578063bc25cf7714610aac578063be340e3214610af0578063c45a015514610b0e578063c914b43714610b5857610248565b80639e79b55c116100ff5780639e79b55c14610909578063a9059cbb146109a2578063aa5af0fd14610a08578063ad7a672f14610a46578063b95b92a314610a6457610248565b80637ecebe001461074257806391b427451461079a578063926d845b146107c857806395a2251f1461082e57806395d89b411461088657610248565b806338216ecb116101c9578063559572201161018d57806355957220146105865780636a627842146105d05780636bd76d24146106285780636f307dc3146106a057806370a08231146106ea57610248565b806338216ecb146104945780633ba0b9a9146105025780634322b7141461052057806347bd37181461053e5780634a5d316c1461057c57610248565b806323b872dd1161021057806323b872dd146103905780632d5231d31461041657806330adf81f14610434578063313ce567146104525780633644e5151461047657610248565b806301f8c1c81461024d57806306fdde031461026b578063095ea7b3146102ee57806318160ddd146103545780631aebf12f14610372575b600080fd5b610255610d15565b6040518082815260200191505060405180910390f35b610273610d3c565b6040518080602001828103825283818151815260200191508051906020019080838360005b838110156102b3578082015181840152602081019050610298565b50505050905090810190601f1680156102e05780820380516001836020036101000a031916815260200191505b509250505060405180910390f35b61033a6004803603604081101561030457600080fd5b81019080803573ffffffffffffffffffffffffffffffffffffffff16906020019092919080359060200190929190505050610dda565b604051808215151515815260200191505060405180910390f35b61035c610df1565b6040518082815260200191505060405180910390f35b61037a610df7565b6040518082815260200191505060405180910390f35b6103fc600480360360608110156103a657600080fd5b81019080803573ffffffffffffffffffffffffffffffffffffffff169060200190929190803573ffffffffffffffffffffffffffffffffffffffff16906020019092919080359060200190929190505050610dfd565b604051808215151515815260200191505060405180910390f35b61041e610fff565b6040518082815260200191505060405180910390f35b61043c611005565b6040518082815260200191505060405180910390f35b61045a61102c565b604051808260ff1660ff16815260200191505060405180910390f35b61047e61103f565b6040518082815260200191505060405180910390f35b610500600480360360608110156104aa57600080fd5b81019080803573ffffffffffffffffffffffffffffffffffffffff169060200190929190803573ffffffffffffffffffffffffffffffffffffffff16906020019092919080359060200190929190505050611045565b005b61050a611055565b6040518082815260200191505060405180910390f35b6105286110bf565b6040518082815260200191505060405180910390f35b6105466110c5565b60405180826dffffffffffffffffffffffffffff166dffffffffffffffffffffffffffff16815260200191505060405180910390f35b6105846110e4565b005b61058e6111eb565b604051808273ffffffffffffffffffffffffffffffffffffffff1673ffffffffffffffffffffffffffffffffffffffff16815260200191505060405180910390f35b610612600480360360208110156105e657600080fd5b81019080803573ffffffffffffffffffffffffffffffffffffffff169060200190929190505050611211565b6040518082815260200191505060405180910390f35b61068a6004803603604081101561063e57600080fd5b81019080803573ffffffffffffffffffffffffffffffffffffffff169060200190929190803573ffffffffffffffffffffffffffffffffffffffff169060200190929190505050611524565b6040518082815260200191505060405180910390f35b6106a8611549565b604051808273ffffffffffffffffffffffffffffffffffffffff1673ffffffffffffffffffffffffffffffffffffffff16815260200191505060405180910390f35b61072c6004803603602081101561070057600080fd5b81019080803573ffffffffffffffffffffffffffffffffffffffff16906020019092919050505061156f565b6040518082815260200191505060405180910390f35b6107846004803603602081101561075857600080fd5b81019080803573ffffffffffffffffffffffffffffffffffffffff169060200190929190505050611587565b6040518082815260200191505060405180910390f35b6107a261159f565b604051808265ffffffffffff1665ffffffffffff16815260200191505060405180910390f35b610814600480360360408110156107de57600080fd5b81019080803573ffffffffffffffffffffffffffffffffffffffff169060200190929190803590602001909291905050506115b7565b604051808215151515815260200191505060405180910390f35b6108706004803603602081101561084457600080fd5b81019080803573ffffffffffffffffffffffffffffffffffffffff1690602001909291905050506115ce565b6040518082815260200191505060405180910390f35b61088e61187f565b6040518080602001828103825283818151815260200191508051906020019080838360005b838110156108ce5780820151818401526020810190506108b3565b50505050905090810190601f1680156108fb5780820380516001836020036101000a031916815260200191505b509250505060405180910390f35b6109a0600480360360e081101561091f57600080fd5b81019080803573ffffffffffffffffffffffffffffffffffffffff169060200190929190803573ffffffffffffffffffffffffffffffffffffffff1690602001909291908035906020019092919080359060200190929190803560ff169060200190929190803590602001909291908035906020019092919050505061191d565b005b6109ee600480360360408110156109b857600080fd5b81019080803573ffffffffffffffffffffffffffffffffffffffff16906020019092919080359060200190929190505050611964565b604051808215151515815260200191505060405180910390f35b610a1061197b565b60405180826dffffffffffffffffffffffffffff166dffffffffffffffffffffffffffff16815260200191505060405180910390f35b610a4e61199b565b6040518082815260200191505060405180910390f35b610a6c6119a1565b604051808263ffffffff1663ffffffff16815260200191505060405180910390f35b610a966119b7565b6040518082815260200191505060405180910390f35b610aee60048036036020811015610ac257600080fd5b81019080803573ffffffffffffffffffffffffffffffffffffffff1690602001909291905050506119bd565b005b610af8611b6f565b6040518082815260200191505060405180910390f35b610b16611b75565b604051808273ffffffffffffffffffffffffffffffffffffffff1673ffffffffffffffffffffffffffffffffffffffff16815260200191505060405180910390f35b610b60611b9b565b604051808265ffffffffffff1665ffffffffffff16815260200191505060405180910390f35b610c1d600480360360e0811015610b9c57600080fd5b81019080803573ffffffffffffffffffffffffffffffffffffffff169060200190929190803573ffffffffffffffffffffffffffffffffffffffff1690602001909291908035906020019092919080359060200190929190803560ff1690602001909291908035906020019092919080359060200190929190505050611bb3565b005b610c27611bfa565b604051808273ffffffffffffffffffffffffffffffffffffffff1673ffffffffffffffffffffffffffffffffffffffff16815260200191505060405180910390f35b610ccb60048036036040811015610c7f57600080fd5b81019080803573ffffffffffffffffffffffffffffffffffffffff169060200190929190803573ffffffffffffffffffffffffffffffffffffffff169060200190929190505050611c20565b6040518082815260200191505060405180910390f35b610ce9611c45565b604051808263ffffffff1663ffffffff16815260200191505060405180910390f35b610d13611c5b565b005b7ff6d86ed606f871fa1a557ac0ba607adce07767acf53f492fb215a1a4db4aea6f60001b81565b60008054600181600116156101000203166002900480601f016020809104026020016040519081016040528092919081815260200182805460018160011615610100020316600290048015610dd25780601f10610da757610100808354040283529160200191610dd2565b820191906000526020600020905b815481529060010190602001808311610db557829003601f168201915b505050505081565b6000610de7338484611d1d565b6001905092915050565b60035481565b60125481565b60007fffffffffffffffffffffffffffffffffffffffffffffffffffffffffffffffff600560008673ffffffffffffffffffffffffffffffffffffffff1673ffffffffffffffffffffffffffffffffffffffff16815260200190815260200160002060003373ffffffffffffffffffffffffffffffffffffffff1673ffffffffffffffffffffffffffffffffffffffff1681526020019081526020016000205414610fe957610f68826040518060400160405280601e81526020017f496d7065726d61783a205452414e534645525f4e4f545f414c4c4f5745440000815250600560008873ffffffffffffffffffffffffffffffffffffffff1673ffffffffffffffffffffffffffffffffffffffff16815260200190815260200160002060003373ffffffffffffffffffffffffffffffffffffffff1673ffffffffffffffffffffffffffffffffffffffff16815260200190815260200160002054611e089092919063ffffffff16565b600560008673ffffffffffffffffffffffffffffffffffffffff1673ffffffffffffffffffffffffffffffffffffffff16815260200190815260200160002060003373ffffffffffffffffffffffffffffffffffffffff1673ffffffffffffffffffffffffffffffffffffffff168152602001908152602001600020819055505b610ff4848484611ec8565b600190509392505050565b60135481565b7f6e71edae12b1b97f4d1f60370fef10105fa2faae0126114a169c64845d6126c960001b81565b600260009054906101000a900460ff1681565b60065481565b611050838383612093565b505050565b60008060035490506000600a54905060008214806110735750600081145b1561108a57670de0b6b3a7640000925050506110bc565b6110b7826110a9670de0b6b3a76400008461227590919063ffffffff16565b6122fb90919063ffffffff16565b925050505b90565b60115481565b600e809054906101000a90046dffffffffffffffffffffffffffff1681565b600073ffffffffffffffffffffffffffffffffffffffff16600960009054906101000a900473ffffffffffffffffffffffffffffffffffffffff1673ffffffffffffffffffffffffffffffffffffffff16146111a8576040517f08c379a000000000000000000000000000000000000000000000000000000000815260040180806020018281038252601d8152602001807f496d7065726d61783a20464143544f52595f414c52454144595f53455400000081525060200191505060405180910390fd5b33600960006101000a81548173ffffffffffffffffffffffffffffffffffffffff021916908373ffffffffffffffffffffffffffffffffffffffff160217905550565b601460009054906101000a900473ffffffffffffffffffffffffffffffffffffffff1681565b6000600b60009054906101000a900460ff16611295576040517f08c379a00000000000000000000000000000000000000000000000000000000081526004018080602001828103825260138152602001807f496d7065726d61783a205245454e54455245440000000000000000000000000081525060200191505060405180910390fd5b6000600b60006101000a81548160ff0219169083151502179055506000600860009054906101000a900473ffffffffffffffffffffffffffffffffffffffff1673ffffffffffffffffffffffffffffffffffffffff166370a08231306040518263ffffffff1660e01b8152600401808273ffffffffffffffffffffffffffffffffffffffff1673ffffffffffffffffffffffffffffffffffffffff16815260200191505060206040518083038186803b15801561135157600080fd5b505afa158015611365573d6000803e3d6000fd5b505050506040513d602081101561137b57600080fd5b8101908080519060200190929190505050905060006113a5600a548361234590919063ffffffff16565b90506113db6113b2611055565b6113cd670de0b6b3a76400008461227590919063ffffffff16565b6122fb90919063ffffffff16565b92506000600354141561140d576113fd6103e88461234590919063ffffffff16565b925061140c60006103e861238f565b5b60008311611483576040517f08c379a000000000000000000000000000000000000000000000000000000000815260040180806020018281038252601a8152602001807f496d7065726d61783a204d494e545f414d4f554e545f5a45524f00000000000081525060200191505060405180910390fd5b61148d848461238f565b8373ffffffffffffffffffffffffffffffffffffffff163373ffffffffffffffffffffffffffffffffffffffff167f2f00e3cdd69a77be7ed215ec7b2a36784dd158f921fca79ac29deffa353fe6ee8386604051808381526020018281526020019250505060405180910390a350506115046124a9565b6001600b60006101000a81548160ff021916908315150217905550919050565b600c602052816000526040600020602052806000526040600020600091509150505481565b600860009054906101000a900473ffffffffffffffffffffffffffffffffffffffff1681565b60046020528060005260406000206000915090505481565b60076020528060005260406000206000915090505481565b601060069054906101000a900465ffffffffffff1681565b60006115c43384846125c4565b6001905092915050565b6000600b60009054906101000a900460ff16611652576040517f08c379a00000000000000000000000000000000000000000000000000000000081526004018080602001828103825260138152602001807f496d7065726d61783a205245454e54455245440000000000000000000000000081525060200191505060405180910390fd5b6000600b60006101000a81548160ff0219169083151502179055506000600460003073ffffffffffffffffffffffffffffffffffffffff1673ffffffffffffffffffffffffffffffffffffffff1681526020019081526020016000205490506116e5670de0b6b3a76400006116d76116c8611055565b8461227590919063ffffffff16565b6122fb90919063ffffffff16565b91506000821161175d576040517f08c379a000000000000000000000000000000000000000000000000000000000815260040180806020018281038252601c8152602001807f496d7065726d61783a2052454445454d5f414d4f554e545f5a45524f0000000081525060200191505060405180910390fd5b600a548211156117d5576040517f08c379a000000000000000000000000000000000000000000000000000000000815260040180806020018281038252601b8152602001807f496d7065726d61783a20494e53554646494349454e545f43415348000000000081525060200191505060405180910390fd5b6117df83836126af565b6117e9308261291d565b8273ffffffffffffffffffffffffffffffffffffffff163373ffffffffffffffffffffffffffffffffffffffff167f3f693fff038bb8a046aa76d9516190ac7444f7d69cf952c4cbdc086fdef2d6fc8484604051808381526020018281526020019250505060405180910390a35061185f6124a9565b6001600b60006101000a81548160ff021916908315150217905550919050565b60018054600181600116156101000203166002900480601f0160208091040260200160405190810160405280929190818152602001828054600181600116156101000203166002900480156119155780601f106118ea57610100808354040283529160200191611915565b820191906000526020600020905b8154815290600101906020018083116118f857829003601f168201915b505050505081565b611950878787878787877ff6d86ed606f871fa1a557ac0ba607adce07767acf53f492fb215a1a4db4aea6f60001b612a37565b61195b8787876125c4565b50505050505050565b6000611971338484611ec8565b6001905092915050565b600e60009054906101000a90046dffffffffffffffffffffffffffff1681565b600a5481565b600e601c9054906101000a900463ffffffff1681565b6103e881565b600b60009054906101000a900460ff16611a3f576040517f08c379a00000000000000000000000000000000000000000000000000000000081526004018080602001828103825260138152602001807f496d7065726d61783a205245454e54455245440000000000000000000000000081525060200191505060405180910390fd5b6000600b60006101000a81548160ff021916908315150217905550611b5181611b4c600a54600860009054906101000a900473ffffffffffffffffffffffffffffffffffffffff1673ffffffffffffffffffffffffffffffffffffffff166370a08231306040518263ffffffff1660e01b8152600401808273ffffffffffffffffffffffffffffffffffffffff1673ffffffffffffffffffffffffffffffffffffffff16815260200191505060206040518083038186803b158015611b0357600080fd5b505afa158015611b17573d6000803e3d6000fd5b505050506040513d6020811015611b2d57600080fd5b810190808051906020019092919050505061234590919063ffffffff16565b6126af565b6001600b60006101000a81548160ff02191690831515021790555050565b600f5481565b600960009054906101000a900473ffffffffffffffffffffffffffffffffffffffff1681565b601060009054906101000a900465ffffffffffff1681565b611be6878787878787877f6e71edae12b1b97f4d1f60370fef10105fa2faae0126114a169c64845d6126c960001b612a37565b611bf1878787611d1d565b50505050505050565b600b60019054906101000a900473ffffffffffffffffffffffffffffffffffffffff1681565b6005602052816000526040600020602052806000526040600020600091509150505481565b6010600c9054906101000a900463ffffffff1681565b600b60009054906101000a900460ff16611cdd576040517f08c379a00000000000000000000000000000000000000000000000000000000081526004018080602001828103825260138152602001807f496d7065726d61783a205245454e54455245440000000000000000000000000081525060200191505060405180910390fd5b6000600b60006101000a81548160ff021916908315150217905550611d006124a9565b6001600b60006101000a81548160ff021916908315150217905550565b80600560008573ffffffffffffffffffffffffffffffffffffffff1673ffffffffffffffffffffffffffffffffffffffff16815260200190815260200160002060008473ffffffffffffffffffffffffffffffffffffffff1673ffffffffffffffffffffffffffffffffffffffff168152602001908152602001600020819055508173ffffffffffffffffffffffffffffffffffffffff168373ffffffffffffffffffffffffffffffffffffffff167f8c5be1e5ebec7d5bd14f71427d1e84f3dd0314c0f7b2291e5b200ac8c7c3b925836040518082815260200191505060405180910390a3505050565b6000838311158290611eb5576040517f08c379a00000000000000000000000000000000000000000000000000000000081526004018080602001828103825283818151815260200191508051906020019080838360005b83811015611e7a578082015181840152602081019050611e5f565b50505050905090810190601f168015611ea75780820380516001836020036101000a031916815260200191505b509250505060405180910390fd5b5060008385039050809150509392505050565b611f51816040518060400160405280601b81526020017f496d7065726d61783a205452414e534645525f544f4f5f484947480000000000815250600460008773ffffffffffffffffffffffffffffffffffffffff1673ffffffffffffffffffffffffffffffffffffffff16815260200190815260200160002054611e089092919063ffffffff16565b600460008573ffffffffffffffffffffffffffffffffffffffff1673ffffffffffffffffffffffffffffffffffffffff16815260200190815260200160002081905550611fe681600460008573ffffffffffffffffffffffffffffffffffffffff1673ffffffffffffffffffffffffffffffffffffffff16815260200190815260200160002054612d4e90919063ffffffff16565b600460008473ffffffffffffffffffffffffffffffffffffffff1673ffffffffffffffffffffffffffffffffffffffff168152602001908152602001600020819055508173ffffffffffffffffffffffffffffffffffffffff168373ffffffffffffffffffffffffffffffffffffffff167fddf252ad1be2c89b69c2b068fc378daa952ba7f163c4a11628f55a4df523b3ef836040518082815260200191505060405180910390a3505050565b6000600c60008573ffffffffffffffffffffffffffffffffffffffff1673ffffffffffffffffffffffffffffffffffffffff16815260200190815260200160002060008473ffffffffffffffffffffffffffffffffffffffff1673ffffffffffffffffffffffffffffffffffffffff1681526020019081526020016000205490508373ffffffffffffffffffffffffffffffffffffffff168373ffffffffffffffffffffffffffffffffffffffff161415801561217057507fffffffffffffffffffffffffffffffffffffffffffffffffffffffffffffffff8114155b1561226f57818110156121eb576040517f08c379a000000000000000000000000000000000000000000000000000000000815260040180806020018281038252601c8152602001807f496d7065726d61783a20424f52524f575f4e4f545f414c4c4f5745440000000081525060200191505060405180910390fd5b818103600c60008673ffffffffffffffffffffffffffffffffffffffff1673ffffffffffffffffffffffffffffffffffffffff16815260200190815260200160002060008573ffffffffffffffffffffffffffffffffffffffff1673ffffffffffffffffffffffffffffffffffffffff168152602001908152602001600020819055505b50505050565b60008083141561228857600090506122f5565b600082840290508284828161229957fe5b04146122f0576040517f08c379a0000000000000000000000000000000000000000000000000000000008152600401808060200182810382526021815260200180612e9d6021913960400191505060405180910390fd5b809150505b92915050565b600061233d83836040518060400160405280601a81526020017f536166654d6174683a206469766973696f6e206279207a65726f000000000000815250612dd6565b905092915050565b600061238783836040518060400160405280601f81526020017f536166654d6174683a207375627472616374696f6e20756e646572666c6f7700815250611e08565b905092915050565b6123a481600354612d4e90919063ffffffff16565b6003819055506123fc81600460008573ffffffffffffffffffffffffffffffffffffffff1673ffffffffffffffffffffffffffffffffffffffff16815260200190815260200160002054612d4e90919063ffffffff16565b600460008473ffffffffffffffffffffffffffffffffffffffff1673ffffffffffffffffffffffffffffffffffffffff168152602001908152602001600020819055508173ffffffffffffffffffffffffffffffffffffffff16600073ffffffffffffffffffffffffffffffffffffffff167fddf252ad1be2c89b69c2b068fc378daa952ba7f163c4a11628f55a4df523b3ef836040518082815260200191505060405180910390a35050565b600860009054906101000a900473ffffffffffffffffffffffffffffffffffffffff1673ffffffffffffffffffffffffffffffffffffffff166370a08231306040518263ffffffff1660e01b8152600401808273ffffffffffffffffffffffffffffffffffffffff1673ffffffffffffffffffffffffffffffffffffffff16815260200191505060206040518083038186803b15801561254857600080fd5b505afa15801561255c573d6000803e3d6000fd5b505050506040513d602081101561257257600080fd5b8101908080519060200190929190505050600a819055507f8a0df8ef054fae2c3d2d19a7b322e864870cc9fd3cb07fb9526309c596244bf4600a546040518082815260200191505060405180910390a1565b80600c60008573ffffffffffffffffffffffffffffffffffffffff1673ffffffffffffffffffffffffffffffffffffffff16815260200190815260200160002060008473ffffffffffffffffffffffffffffffffffffffff1673ffffffffffffffffffffffffffffffffffffffff168152602001908152602001600020819055508173ffffffffffffffffffffffffffffffffffffffff168373ffffffffffffffffffffffffffffffffffffffff167fc3c1215b41d54142382d54a05fb991007165ae91bcb1879bac8b290d9111aaf4836040518082815260200191505060405180910390a3505050565b60006060600860009054906101000a900473ffffffffffffffffffffffffffffffffffffffff1673ffffffffffffffffffffffffffffffffffffffff166040518060400160405280601981526020017f7472616e7366657228616464726573732c75696e743235362900000000000000815250805190602001208585604051602401808373ffffffffffffffffffffffffffffffffffffffff1673ffffffffffffffffffffffffffffffffffffffff16815260200182815260200192505050604051602081830303815290604052907bffffffffffffffffffffffffffffffffffffffffffffffffffffffff19166020820180517bffffffffffffffffffffffffffffffffffffffffffffffffffffffff83818316178352505050506040518082805190602001908083835b602083106127fe57805182526020820191506020810190506020830392506127db565b6001836020036101000a0380198251168184511680821785525050505050509050019150506000604051808303816000865af19150503d8060008114612860576040519150601f19603f3d011682016040523d82523d6000602084013e612865565b606091505b50915091508180156128a557506000815114806128a4575080806020019051602081101561289257600080fd5b81019080805190602001909291905050505b5b612917576040517f08c379a00000000000000000000000000000000000000000000000000000000081526004018080602001828103825260198152602001807f496d7065726d61783a205452414e534645525f4641494c45440000000000000081525060200191505060405180910390fd5b50505050565b61296f81600460008573ffffffffffffffffffffffffffffffffffffffff1673ffffffffffffffffffffffffffffffffffffffff1681526020019081526020016000205461234590919063ffffffff16565b600460008473ffffffffffffffffffffffffffffffffffffffff1673ffffffffffffffffffffffffffffffffffffffff168152602001908152602001600020819055506129c78160035461234590919063ffffffff16565b600381905550600073ffffffffffffffffffffffffffffffffffffffff168273ffffffffffffffffffffffffffffffffffffffff167fddf252ad1be2c89b69c2b068fc378daa952ba7f163c4a11628f55a4df523b3ef836040518082815260200191505060405180910390a35050565b42851015612aad576040517f08c379a00000000000000000000000000000000000000000000000000000000081526004018080602001828103825260118152602001807f496d7065726d61783a204558504952454400000000000000000000000000000081525060200191505060405180910390fd5b6000600654828a8a8a600760008f73ffffffffffffffffffffffffffffffffffffffff1673ffffffffffffffffffffffffffffffffffffffff1681526020019081526020016000206000815480929190600101919050558b604051602001808781526020018673ffffffffffffffffffffffffffffffffffffffff1673ffffffffffffffffffffffffffffffffffffffff1681526020018573ffffffffffffffffffffffffffffffffffffffff1673ffffffffffffffffffffffffffffffffffffffff16815260200184815260200183815260200182815260200196505050505050506040516020818303038152906040528051906020012060405160200180807f190100000000000000000000000000000000000000000000000000000000000081525060020183815260200182815260200192505050604051602081830303815290604052805190602001209050600060018287878760405160008152602001604052604051808581526020018460ff1660ff1681526020018381526020018281526020019450505050506020604051602081039080840390855afa158015612c5c573d6000803e3d6000fd5b505050602060405103519050600073ffffffffffffffffffffffffffffffffffffffff168173ffffffffffffffffffffffffffffffffffffffff1614158015612cd057508973ffffffffffffffffffffffffffffffffffffffff168173ffffffffffffffffffffffffffffffffffffffff16145b612d42576040517f08c379a000000000000000000000000000000000000000000000000000000000815260040180806020018281038252601b8152602001807f496d7065726d61783a20494e56414c49445f5349474e4154555245000000000081525060200191505060405180910390fd5b50505050505050505050565b600080828401905083811015612dcc576040517f08c379a000000000000000000000000000000000000000000000000000000000815260040180806020018281038252601b8152602001807f536166654d6174683a206164646974696f6e206f766572666c6f77000000000081525060200191505060405180910390fd5b8091505092915050565b60008083118290612e82576040517f08c379a00000000000000000000000000000000000000000000000000000000081526004018080602001828103825283818151815260200191508051906020019080838360005b83811015612e47578082015181840152602081019050612e2c565b50505050905090810190601f168015612e745780820380516001836020036101000a031916815260200191505b509250505060405180910390fd5b506000838581612e8e57fe5b04905080915050939250505056fe536166654d6174683a206d756c7469706c69636174696f6e206f766572666c6f77a265627a7a72315820a5ff11d9c7b950370007fcfa47a029ed78d126a1ea4eb6344a333ef0ff4e752e64736f6c63430005100032454950373132446f6d61696e28737472696e67206e616d652c737472696e672076657273696f6e2c75696e7432353620636861696e49642c6164647265737320766572696679696e67436f6e747261637429",
  "source": "pragma solidity =0.5.16;\r\n\r\nimport \"../../contracts/BAllowance.sol\";\r\n\r\ncontract BAllowanceHarness is BAllowance {\r\n\tconstructor(string memory _name, string memory _symbol) public ImpermaxERC20() {\r\n\t\t_setName(_name, _symbol);\r\n\t}\r\n\t\r\n\tfunction checkBorrowAllowance(address owner, address spender, uint amount) external {\r\n\t\tsuper._checkBorrowAllowance(owner, spender, amount);\r\n\t}\r\n}",
  "sourcePath": "C:/Users/simor/Desktop/impermax-x-uniswapv2-core/contracts/Contracts/BAllowanceHarness.sol",
  "compiler": {
    "name": "solc",
    "version": "0.5.16+commit.9c3226ce.Emscripten.clang"
  },
  "schemaVersion": "3.3.2",
  "updatedAt": "2021-01-07T14:19:53.135Z",
  "devdoc": {
    "methods": {}
  },
  "userdoc": {
    "methods": {
      "_setFactory()": {
        "notice": "* Initialize **"
      }
    }
  }
}