{
  "contractName": "BorrowableHarness",
  "abi": [
    {
      "anonymous": false,
      "inputs": [
        {
          "indexed": false,
          "internalType": "uint256",
          "name": "interestAccumulated",
          "type": "uint256"
        },
        {
          "indexed": false,
          "internalType": "uint256",
          "name": "borrowIndex",
          "type": "uint256"
        },
        {
          "indexed": false,
          "internalType": "uint256",
          "name": "totalBorrows",
          "type": "uint256"
        }
      ],
      "name": "AccrueInterest",
      "type": "event"
    },
    {
      "anonymous": false,
      "inputs": [
        {
          "indexed": true,
          "internalType": "address",
          "name": "owner",
          "type": "address"
        },
        {
          "indexed": true,
          "internalType": "address",
          "name": "spender",
          "type": "address"
        },
        {
          "indexed": false,
          "internalType": "uint256",
          "name": "value",
          "type": "uint256"
        }
      ],
      "name": "Approval",
      "type": "event"
    },
    {
      "anonymous": false,
      "inputs": [
        {
          "indexed": true,
          "internalType": "address",
          "name": "sender",
          "type": "address"
        },
        {
          "indexed": true,
          "internalType": "address",
          "name": "borrower",
          "type": "address"
        },
        {
          "indexed": true,
          "internalType": "address",
          "name": "receiver",
          "type": "address"
        },
        {
          "indexed": false,
          "internalType": "uint256",
          "name": "borrowAmount",
          "type": "uint256"
        },
        {
          "indexed": false,
          "internalType": "uint256",
          "name": "repayAmount",
          "type": "uint256"
        },
        {
          "indexed": false,
          "internalType": "uint256",
          "name": "accountBorrowsPrior",
          "type": "uint256"
        },
        {
          "indexed": false,
          "internalType": "uint256",
          "name": "accountBorrows",
          "type": "uint256"
        },
        {
          "indexed": false,
          "internalType": "uint256",
          "name": "totalBorrows",
          "type": "uint256"
        }
      ],
      "name": "Borrow",
      "type": "event"
    },
    {
      "anonymous": false,
      "inputs": [
        {
          "indexed": true,
          "internalType": "address",
          "name": "owner",
          "type": "address"
        },
        {
          "indexed": true,
          "internalType": "address",
          "name": "spender",
          "type": "address"
        },
        {
          "indexed": false,
          "internalType": "uint256",
          "name": "value",
          "type": "uint256"
        }
      ],
      "name": "BorrowApproval",
      "type": "event"
    },
    {
      "anonymous": false,
      "inputs": [
        {
          "indexed": false,
          "internalType": "uint256",
          "name": "borrowRate",
          "type": "uint256"
        }
      ],
      "name": "CalculateBorrowRate",
      "type": "event"
    },
    {
      "anonymous": false,
      "inputs": [
        {
          "indexed": false,
          "internalType": "uint256",
          "name": "kinkRate",
          "type": "uint256"
        }
      ],
      "name": "CalculateKink",
      "type": "event"
    },
    {
      "anonymous": false,
      "inputs": [
        {
          "indexed": false,
          "internalType": "uint256",
          "name": "kinkBorrowRate",
          "type": "uint256"
        }
      ],
      "name": "CalculateKinkBorrowRate",
      "type": "event"
    },
    {
      "anonymous": false,
      "inputs": [
        {
          "indexed": true,
          "internalType": "address",
          "name": "sender",
          "type": "address"
        },
        {
          "indexed": true,
          "internalType": "address",
          "name": "borrower",
          "type": "address"
        },
        {
          "indexed": true,
          "internalType": "address",
          "name": "liquidator",
          "type": "address"
        },
        {
          "indexed": false,
          "internalType": "uint256",
          "name": "seizeTokens",
          "type": "uint256"
        },
        {
          "indexed": false,
          "internalType": "uint256",
          "name": "repayAmount",
          "type": "uint256"
        },
        {
          "indexed": false,
          "internalType": "uint256",
          "name": "accountBorrowsPrior",
          "type": "uint256"
        },
        {
          "indexed": false,
          "internalType": "uint256",
          "name": "accountBorrows",
          "type": "uint256"
        },
        {
          "indexed": false,
          "internalType": "uint256",
          "name": "totalBorrows",
          "type": "uint256"
        }
      ],
      "name": "Liquidate",
      "type": "event"
    },
    {
      "anonymous": false,
      "inputs": [
        {
          "indexed": true,
          "internalType": "address",
          "name": "sender",
          "type": "address"
        },
        {
          "indexed": true,
          "internalType": "address",
          "name": "minter",
          "type": "address"
        },
        {
          "indexed": false,
          "internalType": "uint256",
          "name": "mintAmount",
          "type": "uint256"
        },
        {
          "indexed": false,
          "internalType": "uint256",
          "name": "mintTokens",
          "type": "uint256"
        }
      ],
      "name": "Mint",
      "type": "event"
    },
    {
      "anonymous": false,
      "inputs": [
        {
          "indexed": false,
          "internalType": "uint256",
          "name": "newAdjustSpeed",
          "type": "uint256"
        }
      ],
      "name": "NewAdjustSpeed",
      "type": "event"
    },
    {
      "anonymous": false,
      "inputs": [
        {
          "indexed": false,
          "internalType": "address",
          "name": "newBorrowTracker",
          "type": "address"
        }
      ],
      "name": "NewBorrowTracker",
      "type": "event"
    },
    {
      "anonymous": false,
      "inputs": [
        {
          "indexed": false,
          "internalType": "uint256",
          "name": "newKinkUtilizationRate",
          "type": "uint256"
        }
      ],
      "name": "NewKinkUtilizationRate",
      "type": "event"
    },
    {
      "anonymous": false,
      "inputs": [
        {
          "indexed": false,
          "internalType": "uint256",
          "name": "newReserveFactor",
          "type": "uint256"
        }
      ],
      "name": "NewReserveFactor",
      "type": "event"
    },
    {
      "anonymous": false,
      "inputs": [
        {
          "indexed": true,
          "internalType": "address",
          "name": "sender",
          "type": "address"
        },
        {
          "indexed": true,
          "internalType": "address",
          "name": "redeemer",
          "type": "address"
        },
        {
          "indexed": false,
          "internalType": "uint256",
          "name": "redeemAmount",
          "type": "uint256"
        },
        {
          "indexed": false,
          "internalType": "uint256",
          "name": "redeemTokens",
          "type": "uint256"
        }
      ],
      "name": "Redeem",
      "type": "event"
    },
    {
      "anonymous": false,
      "inputs": [
        {
          "indexed": false,
          "internalType": "uint256",
          "name": "totalBalance",
          "type": "uint256"
        }
      ],
      "name": "Sync",
      "type": "event"
    },
    {
      "anonymous": false,
      "inputs": [
        {
          "indexed": true,
          "internalType": "address",
          "name": "from",
          "type": "address"
        },
        {
          "indexed": true,
          "internalType": "address",
          "name": "to",
          "type": "address"
        },
        {
          "indexed": false,
          "internalType": "uint256",
          "name": "value",
          "type": "uint256"
        }
      ],
      "name": "Transfer",
      "type": "event"
    },
    {
      "constant": true,
      "inputs": [],
      "name": "ADJUST_SPEED_MAX",
      "outputs": [
        {
          "internalType": "uint256",
          "name": "",
          "type": "uint256"
        }
      ],
      "payable": false,
      "stateMutability": "view",
      "type": "function"
    },
    {
      "constant": true,
      "inputs": [],
      "name": "ADJUST_SPEED_MIN",
      "outputs": [
        {
          "internalType": "uint256",
          "name": "",
          "type": "uint256"
        }
      ],
      "payable": false,
      "stateMutability": "view",
      "type": "function"
    },
    {
      "constant": true,
      "inputs": [],
      "name": "BORROW_FEE",
      "outputs": [
        {
          "internalType": "uint256",
          "name": "",
          "type": "uint256"
        }
      ],
      "payable": false,
      "stateMutability": "view",
      "type": "function"
    },
    {
      "constant": true,
      "inputs": [],
      "name": "BORROW_PERMIT_TYPEHASH",
      "outputs": [
        {
          "internalType": "bytes32",
          "name": "",
          "type": "bytes32"
        }
      ],
      "payable": false,
      "stateMutability": "view",
      "type": "function"
    },
    {
      "constant": true,
      "inputs": [],
      "name": "DOMAIN_SEPARATOR",
      "outputs": [
        {
          "internalType": "bytes32",
          "name": "",
          "type": "bytes32"
        }
      ],
      "payable": false,
      "stateMutability": "view",
      "type": "function"
    },
    {
      "constant": true,
      "inputs": [],
      "name": "KINK_BORROW_RATE_MAX",
      "outputs": [
        {
          "internalType": "uint256",
          "name": "",
          "type": "uint256"
        }
      ],
      "payable": false,
      "stateMutability": "view",
      "type": "function"
    },
    {
      "constant": true,
      "inputs": [],
      "name": "KINK_BORROW_RATE_MIN",
      "outputs": [
        {
          "internalType": "uint256",
          "name": "",
          "type": "uint256"
        }
      ],
      "payable": false,
      "stateMutability": "view",
      "type": "function"
    },
    {
      "constant": true,
      "inputs": [],
      "name": "KINK_MULTIPLIER",
      "outputs": [
        {
          "internalType": "uint256",
          "name": "",
          "type": "uint256"
        }
      ],
      "payable": false,
      "stateMutability": "view",
      "type": "function"
    },
    {
      "constant": true,
      "inputs": [],
      "name": "KINK_UR_MAX",
      "outputs": [
        {
          "internalType": "uint256",
          "name": "",
          "type": "uint256"
        }
      ],
      "payable": false,
      "stateMutability": "view",
      "type": "function"
    },
    {
      "constant": true,
      "inputs": [],
      "name": "KINK_UR_MIN",
      "outputs": [
        {
          "internalType": "uint256",
          "name": "",
          "type": "uint256"
        }
      ],
      "payable": false,
      "stateMutability": "view",
      "type": "function"
    },
    {
      "constant": true,
      "inputs": [],
      "name": "MINIMUM_LIQUIDITY",
      "outputs": [
        {
          "internalType": "uint256",
          "name": "",
          "type": "uint256"
        }
      ],
      "payable": false,
      "stateMutability": "view",
      "type": "function"
    },
    {
      "constant": true,
      "inputs": [],
      "name": "PERMIT_TYPEHASH",
      "outputs": [
        {
          "internalType": "bytes32",
          "name": "",
          "type": "bytes32"
        }
      ],
      "payable": false,
      "stateMutability": "view",
      "type": "function"
    },
    {
      "constant": true,
      "inputs": [],
      "name": "RESERVE_FACTOR_MAX",
      "outputs": [
        {
          "internalType": "uint256",
          "name": "",
          "type": "uint256"
        }
      ],
      "payable": false,
      "stateMutability": "view",
      "type": "function"
    },
    {
      "constant": true,
      "inputs": [
        {
          "internalType": "address",
          "name": "",
          "type": "address"
        }
      ],
      "name": "_borrowBalance",
      "outputs": [
        {
          "internalType": "uint256",
          "name": "",
          "type": "uint256"
        }
      ],
      "payable": false,
      "stateMutability": "view",
      "type": "function"
    },
    {
      "constant": false,
      "inputs": [
        {
          "internalType": "string",
          "name": "_name",
          "type": "string"
        },
        {
          "internalType": "string",
          "name": "_symbol",
          "type": "string"
        },
        {
          "internalType": "address",
          "name": "_underlying",
          "type": "address"
        },
        {
          "internalType": "address",
          "name": "_collateral",
          "type": "address"
        }
      ],
      "name": "_initialize",
      "outputs": [],
      "payable": false,
      "stateMutability": "nonpayable",
      "type": "function"
    },
    {
      "constant": false,
      "inputs": [
        {
          "internalType": "uint256",
          "name": "newAdjustSpeed",
          "type": "uint256"
        }
      ],
      "name": "_setAdjustSpeed",
      "outputs": [],
      "payable": false,
      "stateMutability": "nonpayable",
      "type": "function"
    },
    {
      "constant": false,
      "inputs": [
        {
          "internalType": "address",
          "name": "newBorrowTracker",
          "type": "address"
        }
      ],
      "name": "_setBorrowTracker",
      "outputs": [],
      "payable": false,
      "stateMutability": "nonpayable",
      "type": "function"
    },
    {
      "constant": false,
      "inputs": [],
      "name": "_setFactory",
      "outputs": [],
      "payable": false,
      "stateMutability": "nonpayable",
      "type": "function"
    },
    {
      "constant": false,
      "inputs": [
        {
          "internalType": "uint256",
          "name": "newKinkUtilizationRate",
          "type": "uint256"
        }
      ],
      "name": "_setKinkUtilizationRate",
      "outputs": [],
      "payable": false,
      "stateMutability": "nonpayable",
      "type": "function"
    },
    {
      "constant": false,
      "inputs": [
        {
          "internalType": "uint256",
          "name": "newReserveFactor",
          "type": "uint256"
        }
      ],
      "name": "_setReserveFactor",
      "outputs": [],
      "payable": false,
      "stateMutability": "nonpayable",
      "type": "function"
    },
    {
      "constant": true,
      "inputs": [],
      "name": "accrualTimestamp",
      "outputs": [
        {
          "internalType": "uint32",
          "name": "",
          "type": "uint32"
        }
      ],
      "payable": false,
      "stateMutability": "view",
      "type": "function"
    },
    {
      "constant": false,
      "inputs": [],
      "name": "accrueInterest",
      "outputs": [],
      "payable": false,
      "stateMutability": "nonpayable",
      "type": "function"
    },
    {
      "constant": true,
      "inputs": [],
      "name": "adjustSpeed",
      "outputs": [
        {
          "internalType": "uint256",
          "name": "",
          "type": "uint256"
        }
      ],
      "payable": false,
      "stateMutability": "view",
      "type": "function"
    },
    {
      "constant": true,
      "inputs": [
        {
          "internalType": "address",
          "name": "",
          "type": "address"
        },
        {
          "internalType": "address",
          "name": "",
          "type": "address"
        }
      ],
      "name": "allowance",
      "outputs": [
        {
          "internalType": "uint256",
          "name": "",
          "type": "uint256"
        }
      ],
      "payable": false,
      "stateMutability": "view",
      "type": "function"
    },
    {
      "constant": false,
      "inputs": [
        {
          "internalType": "address",
          "name": "spender",
          "type": "address"
        },
        {
          "internalType": "uint256",
          "name": "value",
          "type": "uint256"
        }
      ],
      "name": "approve",
      "outputs": [
        {
          "internalType": "bool",
          "name": "",
          "type": "bool"
        }
      ],
      "payable": false,
      "stateMutability": "nonpayable",
      "type": "function"
    },
    {
      "constant": true,
      "inputs": [
        {
          "internalType": "address",
          "name": "",
          "type": "address"
        }
      ],
      "name": "balanceOf",
      "outputs": [
        {
          "internalType": "uint256",
          "name": "",
          "type": "uint256"
        }
      ],
      "payable": false,
      "stateMutability": "view",
      "type": "function"
    },
    {
      "constant": false,
      "inputs": [
        {
          "internalType": "address",
          "name": "borrower",
          "type": "address"
        },
        {
          "internalType": "address",
          "name": "receiver",
          "type": "address"
        },
        {
          "internalType": "uint256",
          "name": "borrowAmount",
          "type": "uint256"
        },
        {
          "internalType": "bytes",
          "name": "data",
          "type": "bytes"
        }
      ],
      "name": "borrow",
      "outputs": [],
      "payable": false,
      "stateMutability": "nonpayable",
      "type": "function"
    },
    {
      "constant": true,
      "inputs": [
        {
          "internalType": "address",
          "name": "",
          "type": "address"
        },
        {
          "internalType": "address",
          "name": "",
          "type": "address"
        }
      ],
      "name": "borrowAllowance",
      "outputs": [
        {
          "internalType": "uint256",
          "name": "",
          "type": "uint256"
        }
      ],
      "payable": false,
      "stateMutability": "view",
      "type": "function"
    },
    {
      "constant": false,
      "inputs": [
        {
          "internalType": "address",
          "name": "spender",
          "type": "address"
        },
        {
          "internalType": "uint256",
          "name": "value",
          "type": "uint256"
        }
      ],
      "name": "borrowApprove",
      "outputs": [
        {
          "internalType": "bool",
          "name": "",
          "type": "bool"
        }
      ],
      "payable": false,
      "stateMutability": "nonpayable",
      "type": "function"
    },
    {
      "constant": true,
      "inputs": [],
      "name": "borrowIndex",
      "outputs": [
        {
          "internalType": "uint112",
          "name": "",
          "type": "uint112"
        }
      ],
      "payable": false,
      "stateMutability": "view",
      "type": "function"
    },
    {
      "constant": false,
      "inputs": [
        {
          "internalType": "address",
          "name": "owner",
          "type": "address"
        },
        {
          "internalType": "address",
          "name": "spender",
          "type": "address"
        },
        {
          "internalType": "uint256",
          "name": "value",
          "type": "uint256"
        },
        {
          "internalType": "uint256",
          "name": "deadline",
          "type": "uint256"
        },
        {
          "internalType": "uint8",
          "name": "v",
          "type": "uint8"
        },
        {
          "internalType": "bytes32",
          "name": "r",
          "type": "bytes32"
        },
        {
          "internalType": "bytes32",
          "name": "s",
          "type": "bytes32"
        }
      ],
      "name": "borrowPermit",
      "outputs": [],
      "payable": false,
      "stateMutability": "nonpayable",
      "type": "function"
    },
    {
      "constant": true,
      "inputs": [],
      "name": "borrowRate",
      "outputs": [
        {
          "internalType": "uint48",
          "name": "",
          "type": "uint48"
        }
      ],
      "payable": false,
      "stateMutability": "view",
      "type": "function"
    },
    {
      "constant": true,
      "inputs": [],
      "name": "borrowTracker",
      "outputs": [
        {
          "internalType": "address",
          "name": "",
          "type": "address"
        }
      ],
      "payable": false,
      "stateMutability": "view",
      "type": "function"
    },
    {
      "constant": true,
      "inputs": [],
      "name": "collateral",
      "outputs": [
        {
          "internalType": "address",
          "name": "",
          "type": "address"
        }
      ],
      "payable": false,
      "stateMutability": "view",
      "type": "function"
    },
    {
      "constant": true,
      "inputs": [],
      "name": "decimals",
      "outputs": [
        {
          "internalType": "uint8",
          "name": "",
          "type": "uint8"
        }
      ],
      "payable": false,
      "stateMutability": "view",
      "type": "function"
    },
    {
      "constant": false,
      "inputs": [],
      "name": "exchangeRate",
      "outputs": [
        {
          "internalType": "uint256",
          "name": "",
          "type": "uint256"
        }
      ],
      "payable": false,
      "stateMutability": "nonpayable",
      "type": "function"
    },
    {
      "constant": true,
      "inputs": [],
      "name": "exchangeRateLast",
      "outputs": [
        {
          "internalType": "uint256",
          "name": "",
          "type": "uint256"
        }
      ],
      "payable": false,
      "stateMutability": "view",
      "type": "function"
    },
    {
      "constant": true,
      "inputs": [],
      "name": "factory",
      "outputs": [
        {
          "internalType": "address",
          "name": "",
          "type": "address"
        }
      ],
      "payable": false,
      "stateMutability": "view",
      "type": "function"
    },
    {
      "constant": true,
      "inputs": [],
      "name": "kinkBorrowRate",
      "outputs": [
        {
          "internalType": "uint48",
          "name": "",
          "type": "uint48"
        }
      ],
      "payable": false,
      "stateMutability": "view",
      "type": "function"
    },
    {
      "constant": true,
      "inputs": [],
      "name": "kinkUtilizationRate",
      "outputs": [
        {
          "internalType": "uint256",
          "name": "",
          "type": "uint256"
        }
      ],
      "payable": false,
      "stateMutability": "view",
      "type": "function"
    },
    {
      "constant": false,
      "inputs": [
        {
          "internalType": "address",
          "name": "borrower",
          "type": "address"
        },
        {
          "internalType": "address",
          "name": "liquidator",
          "type": "address"
        }
      ],
      "name": "liquidate",
      "outputs": [
        {
          "internalType": "uint256",
          "name": "seizeTokens",
          "type": "uint256"
        }
      ],
      "payable": false,
      "stateMutability": "nonpayable",
      "type": "function"
    },
    {
      "constant": false,
      "inputs": [
        {
          "internalType": "address",
          "name": "minter",
          "type": "address"
        }
      ],
      "name": "mint",
      "outputs": [
        {
          "internalType": "uint256",
          "name": "mintTokens",
          "type": "uint256"
        }
      ],
      "payable": false,
      "stateMutability": "nonpayable",
      "type": "function"
    },
    {
      "constant": true,
      "inputs": [],
      "name": "name",
      "outputs": [
        {
          "internalType": "string",
          "name": "",
          "type": "string"
        }
      ],
      "payable": false,
      "stateMutability": "view",
      "type": "function"
    },
    {
      "constant": true,
      "inputs": [
        {
          "internalType": "address",
          "name": "",
          "type": "address"
        }
      ],
      "name": "nonces",
      "outputs": [
        {
          "internalType": "uint256",
          "name": "",
          "type": "uint256"
        }
      ],
      "payable": false,
      "stateMutability": "view",
      "type": "function"
    },
    {
      "constant": false,
      "inputs": [
        {
          "internalType": "address",
          "name": "owner",
          "type": "address"
        },
        {
          "internalType": "address",
          "name": "spender",
          "type": "address"
        },
        {
          "internalType": "uint256",
          "name": "value",
          "type": "uint256"
        },
        {
          "internalType": "uint256",
          "name": "deadline",
          "type": "uint256"
        },
        {
          "internalType": "uint8",
          "name": "v",
          "type": "uint8"
        },
        {
          "internalType": "bytes32",
          "name": "r",
          "type": "bytes32"
        },
        {
          "internalType": "bytes32",
          "name": "s",
          "type": "bytes32"
        }
      ],
      "name": "permit",
      "outputs": [],
      "payable": false,
      "stateMutability": "nonpayable",
      "type": "function"
    },
    {
      "constant": true,
      "inputs": [],
      "name": "rateUpdateTimestamp",
      "outputs": [
        {
          "internalType": "uint32",
          "name": "",
          "type": "uint32"
        }
      ],
      "payable": false,
      "stateMutability": "view",
      "type": "function"
    },
    {
      "constant": false,
      "inputs": [
        {
          "internalType": "address",
          "name": "redeemer",
          "type": "address"
        }
      ],
      "name": "redeem",
      "outputs": [
        {
          "internalType": "uint256",
          "name": "redeemAmount",
          "type": "uint256"
        }
      ],
      "payable": false,
      "stateMutability": "nonpayable",
      "type": "function"
    },
    {
      "constant": true,
      "inputs": [],
      "name": "reserveFactor",
      "outputs": [
        {
          "internalType": "uint256",
          "name": "",
          "type": "uint256"
        }
      ],
      "payable": false,
      "stateMutability": "view",
      "type": "function"
    },
    {
      "constant": false,
      "inputs": [
        {
          "internalType": "address",
          "name": "to",
          "type": "address"
        }
      ],
      "name": "skim",
      "outputs": [],
      "payable": false,
      "stateMutability": "nonpayable",
      "type": "function"
    },
    {
      "constant": true,
      "inputs": [],
      "name": "symbol",
      "outputs": [
        {
          "internalType": "string",
          "name": "",
          "type": "string"
        }
      ],
      "payable": false,
      "stateMutability": "view",
      "type": "function"
    },
    {
      "constant": false,
      "inputs": [],
      "name": "sync",
      "outputs": [],
      "payable": false,
      "stateMutability": "nonpayable",
      "type": "function"
    },
    {
      "constant": true,
      "inputs": [],
      "name": "totalBalance",
      "outputs": [
        {
          "internalType": "uint256",
          "name": "",
          "type": "uint256"
        }
      ],
      "payable": false,
      "stateMutability": "view",
      "type": "function"
    },
    {
      "constant": true,
      "inputs": [],
      "name": "totalBorrows",
      "outputs": [
        {
          "internalType": "uint112",
          "name": "",
          "type": "uint112"
        }
      ],
      "payable": false,
      "stateMutability": "view",
      "type": "function"
    },
    {
      "constant": true,
      "inputs": [],
      "name": "totalSupply",
      "outputs": [
        {
          "internalType": "uint256",
          "name": "",
          "type": "uint256"
        }
      ],
      "payable": false,
      "stateMutability": "view",
      "type": "function"
    },
    {
      "constant": false,
      "inputs": [
        {
          "internalType": "address",
          "name": "borrower",
          "type": "address"
        }
      ],
      "name": "trackBorrow",
      "outputs": [],
      "payable": false,
      "stateMutability": "nonpayable",
      "type": "function"
    },
    {
      "constant": false,
      "inputs": [
        {
          "internalType": "address",
          "name": "to",
          "type": "address"
        },
        {
          "internalType": "uint256",
          "name": "value",
          "type": "uint256"
        }
      ],
      "name": "transfer",
      "outputs": [
        {
          "internalType": "bool",
          "name": "",
          "type": "bool"
        }
      ],
      "payable": false,
      "stateMutability": "nonpayable",
      "type": "function"
    },
    {
      "constant": false,
      "inputs": [
        {
          "internalType": "address",
          "name": "from",
          "type": "address"
        },
        {
          "internalType": "address",
          "name": "to",
          "type": "address"
        },
        {
          "internalType": "uint256",
          "name": "value",
          "type": "uint256"
        }
      ],
      "name": "transferFrom",
      "outputs": [
        {
          "internalType": "bool",
          "name": "",
          "type": "bool"
        }
      ],
      "payable": false,
      "stateMutability": "nonpayable",
      "type": "function"
    },
    {
      "constant": true,
      "inputs": [],
      "name": "underlying",
      "outputs": [
        {
          "internalType": "address",
          "name": "",
          "type": "address"
        }
      ],
      "payable": false,
      "stateMutability": "view",
      "type": "function"
    },
    {
      "constant": false,
      "inputs": [
        {
          "internalType": "address",
          "name": "_underlying",
          "type": "address"
        }
      ],
      "name": "setUnderlyingHarness",
      "outputs": [],
      "payable": false,
      "stateMutability": "nonpayable",
      "type": "function"
    },
    {
      "constant": false,
      "inputs": [
        {
          "internalType": "address",
          "name": "_factory",
          "type": "address"
        }
      ],
      "name": "setFactoryHarness",
      "outputs": [],
      "payable": false,
      "stateMutability": "nonpayable",
      "type": "function"
    },
    {
      "constant": false,
      "inputs": [
        {
          "internalType": "address",
          "name": "_collateral",
          "type": "address"
        }
      ],
      "name": "setCollateralHarness",
      "outputs": [],
      "payable": false,
      "stateMutability": "nonpayable",
      "type": "function"
    },
    {
      "constant": true,
      "inputs": [
        {
          "internalType": "address",
          "name": "borrower",
          "type": "address"
        }
      ],
      "name": "borrowBalance",
      "outputs": [
        {
          "internalType": "uint256",
          "name": "",
          "type": "uint256"
        }
      ],
      "payable": false,
      "stateMutability": "view",
      "type": "function"
    },
    {
      "constant": false,
      "inputs": [
        {
          "internalType": "address",
          "name": "borrower",
          "type": "address"
        },
        {
          "internalType": "uint256",
          "name": "amount",
          "type": "uint256"
        }
      ],
      "name": "setBorrowBalanceHarness",
      "outputs": [],
      "payable": false,
      "stateMutability": "nonpayable",
      "type": "function"
    },
    {
      "constant": false,
      "inputs": [
        {
          "internalType": "address",
          "name": "borrower",
          "type": "address"
        },
        {
          "internalType": "uint112",
          "name": "principal",
          "type": "uint112"
        },
        {
          "internalType": "uint112",
          "name": "interestIndex",
          "type": "uint112"
        }
      ],
      "name": "setBorrowBalances",
      "outputs": [],
      "payable": false,
      "stateMutability": "nonpayable",
      "type": "function"
    },
    {
      "constant": false,
      "inputs": [
        {
          "internalType": "uint112",
          "name": "_borrowIndex",
          "type": "uint112"
        }
      ],
      "name": "setBorrowIndex",
      "outputs": [],
      "payable": false,
      "stateMutability": "nonpayable",
      "type": "function"
    },
    {
      "constant": false,
      "inputs": [
        {
          "internalType": "address",
          "name": "collateral",
          "type": "address"
        },
        {
          "internalType": "address",
          "name": "liquidator",
          "type": "address"
        },
        {
          "internalType": "address",
          "name": "borrower",
          "type": "address"
        },
        {
          "internalType": "uint256",
          "name": "repayAmount",
          "type": "uint256"
        }
      ],
      "name": "seizeHarness",
      "outputs": [
        {
          "internalType": "uint256",
          "name": "",
          "type": "uint256"
        }
      ],
      "payable": false,
      "stateMutability": "nonpayable",
      "type": "function"
    },
    {
      "constant": false,
      "inputs": [
        {
          "internalType": "uint256",
          "name": "_totalBalance",
          "type": "uint256"
        }
      ],
      "name": "setTotalBalance",
      "outputs": [],
      "payable": false,
      "stateMutability": "nonpayable",
      "type": "function"
    },
    {
      "constant": false,
      "inputs": [
        {
          "internalType": "uint112",
          "name": "_totalBorrows",
          "type": "uint112"
        }
      ],
      "name": "setTotalBorrows",
      "outputs": [],
      "payable": false,
      "stateMutability": "nonpayable",
      "type": "function"
    },
    {
      "constant": false,
      "inputs": [
        {
          "internalType": "uint256",
          "name": "_totalSupply",
          "type": "uint256"
        }
      ],
      "name": "setTotalSupply",
      "outputs": [],
      "payable": false,
      "stateMutability": "nonpayable",
      "type": "function"
    },
    {
      "constant": false,
      "inputs": [
        {
          "internalType": "uint48",
          "name": "_borrowRate",
          "type": "uint48"
        }
      ],
      "name": "setBorrowRate",
      "outputs": [],
      "payable": false,
      "stateMutability": "nonpayable",
      "type": "function"
    },
    {
      "constant": false,
      "inputs": [
        {
          "internalType": "uint256",
          "name": "_reserveFactor",
          "type": "uint256"
        }
      ],
      "name": "setReserveFactor",
      "outputs": [],
      "payable": false,
      "stateMutability": "nonpayable",
      "type": "function"
    },
    {
      "constant": true,
      "inputs": [],
      "name": "getBlockTimestamp",
      "outputs": [
        {
          "internalType": "uint32",
          "name": "",
          "type": "uint32"
        }
      ],
      "payable": false,
      "stateMutability": "view",
      "type": "function"
    },
    {
      "constant": false,
      "inputs": [
        {
          "internalType": "uint256",
          "name": "blockTimestamp",
          "type": "uint256"
        }
      ],
      "name": "setBlockTimestamp",
      "outputs": [],
      "payable": false,
      "stateMutability": "nonpayable",
      "type": "function"
    },
    {
      "constant": false,
      "inputs": [
        {
          "internalType": "uint128",
          "name": "_exchangeRateLast",
          "type": "uint128"
        }
      ],
      "name": "setExchangeRateLast",
      "outputs": [],
      "payable": false,
      "stateMutability": "nonpayable",
      "type": "function"
    },
    {
      "constant": false,
      "inputs": [
        {
          "internalType": "address",
          "name": "_borrowTracker",
          "type": "address"
        }
      ],
      "name": "setBorrowTracker",
      "outputs": [],
      "payable": false,
      "stateMutability": "nonpayable",
      "type": "function"
    }
  ],
  "bytecode": "0x60806040526012600260006101000a81548160ff021916908360ff1602179055506001600b60006101000a81548160ff021916908315150217905550670de0b6b3a7640000600e60006101000a8154816dffffffffffffffffffffffffffff02191690836dffffffffffffffffffffffffffff16021790555064010000000042816200008757fe5b06600e601c6101000a81548163ffffffff021916908363ffffffff160217905550635e80a6c0601060066101000a81548165ffffffffffff021916908365ffffffffffff1602179055506401000000004281620000e057fe5b066010600c6101000a81548163ffffffff021916908363ffffffff16021790555067016345785d8a00006011556709b6e64a8ec600006012556486bd6db0206013556162a680620001326000396000f3fe608060405234801561001057600080fd5b50600436106104495760003560e01c8063796b89b911610241578063ba9a7a561161013b578063d8dfeb45116100c3578063f3fc0db911610087578063f3fc0db914611729578063f4108ef91461176d578063f7ea7a3d146117b1578063fca7820b146117df578063fff6cae91461180d57610449565b8063d8dfeb45146115f1578063dd62ed3e1461163b578063e0766000146116b3578063e0abdf66146116d1578063e12b6306146116ff57610449565b8063c72f3fbb1161010a578063c72f3fbb14611486578063c8c84f22146114a4578063c914b437146114fc578063c9ed50081461152a578063d505accf1461155857610449565b8063ba9a7a56146113bc578063bc25cf77146113da578063be340e321461141e578063c45a01551461143c57610449565b80639b4987fb116101c9578063a9059cbb1161018d578063a9059cbb1461128c578063aa5af0fd146112f2578063ad7a672f14611330578063b7f1118a1461134e578063b95b92a31461139257610449565b80639b4987fb146111395780639e79b55c1461117d578063a071571914611216578063a6afed9514611234578063a722c8aa1461123e57610449565b806391b427451161021057806391b4274514610f9c578063926d845b14610fca5780639292b0321461103057806395a2251f1461105e57806395d89b41146110b657610449565b8063796b89b914610e6c5780637b337fe314610e965780637ecebe0014610ecc57806386b9d81f14610f2457610449565b80633ba0b9a9116103525780635a521fc7116102da5780636a6278421161029e5780636a62784214610c825780636bd76d2414610cda5780636f307dc314610d5257806370a0823114610d9c578063750750ac14610df457610449565b80635a521fc714610ab65780635b2b9d1a14610afa5780636854406514610b185780636a02b42714610b365780636a030c1114610b7457610449565b80634a5d316c116103215780634a5d316c146109285780634d73e9ba146109325780635217b6681461098a57806353ca2e6f146109ca5780635595722014610a6c57610449565b80633ba0b9a9146108905780634322b714146108ae578063452ae95f146108cc57806347bd3718146108ea57610449565b80632374e8a9116103d55780632d5231d3116103a45780632d5231d3146107ce57806330adf81f146107ec578063313ce5671461080a578063355428221461082e5780633644e5151461087257610449565b80632374e8a9146106de57806323b872dd146106fc578063253c24f31461078257806327549a0b146107a057610449565b806318160ddd1161041c57806318160ddd146105735780631aebf12f146105915780631bf31ecd146105af5780631c446983146105ed5780631e7dcc0d1461061b57610449565b806301f8c1c81461044e57806306fdde031461046c578063075f4e7f146104ef578063095ea7b31461050d575b600080fd5b610456611817565b6040518082815260200191505060405180910390f35b61047461183e565b6040518080602001828103825283818151815260200191508051906020019080838360005b838110156104b4578082015181840152602081019050610499565b50505050905090810190601f1680156104e15780820380516001836020036101000a031916815260200191505b509250505060405180910390f35b6104f76118dc565b6040518082815260200191505060405180910390f35b6105596004803603604081101561052357600080fd5b81019080803573ffffffffffffffffffffffffffffffffffffffff169060200190929190803590602001909291905050506118e5565b604051808215151515815260200191505060405180910390f35b61057b6118fc565b6040518082815260200191505060405180910390f35b610599611902565b6040518082815260200191505060405180910390f35b6105eb600480360360208110156105c557600080fd5b8101908080356dffffffffffffffffffffffffffff169060200190929190505050611908565b005b6106196004803603602081101561060357600080fd5b8101908080359060200190929190505050611940565b005b6106dc6004803603608081101561063157600080fd5b81019080803573ffffffffffffffffffffffffffffffffffffffff169060200190929190803573ffffffffffffffffffffffffffffffffffffffff169060200190929190803590602001909291908035906020019064010000000081111561069857600080fd5b8201836020820111156106aa57600080fd5b803590602001918460018302840111640100000000831117156106cc57600080fd5b909192939192939050505061194a565b005b6106e6611f6c565b6040518082815260200191505060405180910390f35b6107686004803603606081101561071257600080fd5b81019080803573ffffffffffffffffffffffffffffffffffffffff169060200190929190803573ffffffffffffffffffffffffffffffffffffffff16906020019092919080359060200190929190505050611f78565b604051808215151515815260200191505060405180910390f35b61078a61217a565b6040518082815260200191505060405180910390f35b6107cc600480360360208110156107b657600080fd5b8101908080359060200190929190505050612184565b005b6107d6612293565b6040518082815260200191505060405180910390f35b6107f4612299565b6040518082815260200191505060405180910390f35b6108126122c0565b604051808260ff1660ff16815260200191505060405180910390f35b6108706004803603602081101561084457600080fd5b81019080803573ffffffffffffffffffffffffffffffffffffffff1690602001909291905050506122d3565b005b61087a61243a565b6040518082815260200191505060405180910390f35b610898612440565b6040518082815260200191505060405180910390f35b6108b66124ff565b6040518082815260200191505060405180910390f35b6108d4612505565b6040518082815260200191505060405180910390f35b6108f261250e565b60405180826dffffffffffffffffffffffffffff166dffffffffffffffffffffffffffff16815260200191505060405180910390f35b61093061252d565b005b6109746004803603602081101561094857600080fd5b81019080803573ffffffffffffffffffffffffffffffffffffffff169060200190929190505050612634565b6040518082815260200191505060405180910390f35b6109c8600480360360208110156109a057600080fd5b8101908080356fffffffffffffffffffffffffffffffff1690602001909291905050506126a2565b005b610a56600480360360808110156109e057600080fd5b81019080803573ffffffffffffffffffffffffffffffffffffffff169060200190929190803573ffffffffffffffffffffffffffffffffffffffff169060200190929190803573ffffffffffffffffffffffffffffffffffffffff169060200190929190803590602001909291905050506126be565b6040518082815260200191505060405180910390f35b610a746127c0565b604051808273ffffffffffffffffffffffffffffffffffffffff1673ffffffffffffffffffffffffffffffffffffffff16815260200191505060405180910390f35b610af860048036036020811015610acc57600080fd5b81019080803573ffffffffffffffffffffffffffffffffffffffff1690602001909291905050506127e6565b005b610b0261282a565b6040518082815260200191505060405180910390f35b610b2061282f565b6040518082815260200191505060405180910390f35b610b7260048036036020811015610b4c57600080fd5b8101908080356dffffffffffffffffffffffffffff16906020019092919050505061283b565b005b610c8060048036036080811015610b8a57600080fd5b8101908080359060200190640100000000811115610ba757600080fd5b820183602082011115610bb957600080fd5b80359060200191846001830284011164010000000083111715610bdb57600080fd5b909192939192939080359060200190640100000000811115610bfc57600080fd5b820183602082011115610c0e57600080fd5b80359060200191846001830284011164010000000083111715610c3057600080fd5b9091929391929390803573ffffffffffffffffffffffffffffffffffffffff169060200190929190803573ffffffffffffffffffffffffffffffffffffffff169060200190929190505050612872565b005b610cc460048036036020811015610c9857600080fd5b81019080803573ffffffffffffffffffffffffffffffffffffffff169060200190929190505050612a60565b6040518082815260200191505060405180910390f35b610d3c60048036036040811015610cf057600080fd5b81019080803573ffffffffffffffffffffffffffffffffffffffff169060200190929190803573ffffffffffffffffffffffffffffffffffffffff169060200190929190505050612d73565b6040518082815260200191505060405180910390f35b610d5a612d98565b604051808273ffffffffffffffffffffffffffffffffffffffff1673ffffffffffffffffffffffffffffffffffffffff16815260200191505060405180910390f35b610dde60048036036020811015610db257600080fd5b81019080803573ffffffffffffffffffffffffffffffffffffffff169060200190929190505050612dbe565b6040518082815260200191505060405180910390f35b610e6a60048036036060811015610e0a57600080fd5b81019080803573ffffffffffffffffffffffffffffffffffffffff16906020019092919080356dffffffffffffffffffffffffffff16906020019092919080356dffffffffffffffffffffffffffff169060200190929190505050612dd6565b005b610e74612ec5565b604051808263ffffffff1663ffffffff16815260200191505060405180910390f35b610eca60048036036020811015610eac57600080fd5b81019080803565ffffffffffff169060200190929190505050612edf565b005b610f0e60048036036020811015610ee257600080fd5b81019080803573ffffffffffffffffffffffffffffffffffffffff169060200190929190505050612f07565b6040518082815260200191505060405180910390f35b610f8660048036036040811015610f3a57600080fd5b81019080803573ffffffffffffffffffffffffffffffffffffffff169060200190929190803573ffffffffffffffffffffffffffffffffffffffff169060200190929190505050612f1f565b6040518082815260200191505060405180910390f35b610fa46132d0565b604051808265ffffffffffff1665ffffffffffff16815260200191505060405180910390f35b61101660048036036040811015610fe057600080fd5b81019080803573ffffffffffffffffffffffffffffffffffffffff169060200190929190803590602001909291905050506132e8565b604051808215151515815260200191505060405180910390f35b61105c6004803603602081101561104657600080fd5b81019080803590602001909291905050506132ff565b005b6110a06004803603602081101561107457600080fd5b81019080803573ffffffffffffffffffffffffffffffffffffffff169060200190929190505050613413565b6040518082815260200191505060405180910390f35b6110be6136c4565b6040518080602001828103825283818151815260200191508051906020019080838360005b838110156110fe5780820151818401526020810190506110e3565b50505050905090810190601f16801561112b5780820380516001836020036101000a031916815260200191505b509250505060405180910390f35b61117b6004803603602081101561114f57600080fd5b81019080803573ffffffffffffffffffffffffffffffffffffffff169060200190929190505050613762565b005b611214600480360360e081101561119357600080fd5b81019080803573ffffffffffffffffffffffffffffffffffffffff169060200190929190803573ffffffffffffffffffffffffffffffffffffffff1690602001909291908035906020019092919080359060200190929190803560ff16906020019092919080359060200190929190803590602001909291905050506137a6565b005b61121e6137ed565b6040518082815260200191505060405180910390f35b61123c6137f8565b005b61128a6004803603604081101561125457600080fd5b81019080803573ffffffffffffffffffffffffffffffffffffffff16906020019092919080359060200190929190505050613a4b565b005b6112d8600480360360408110156112a257600080fd5b81019080803573ffffffffffffffffffffffffffffffffffffffff16906020019092919080359060200190929190505050613aad565b604051808215151515815260200191505060405180910390f35b6112fa613ac4565b60405180826dffffffffffffffffffffffffffff166dffffffffffffffffffffffffffff16815260200191505060405180910390f35b611338613ae4565b6040518082815260200191505060405180910390f35b6113906004803603602081101561136457600080fd5b81019080803573ffffffffffffffffffffffffffffffffffffffff169060200190929190505050613aea565b005b61139a613b2c565b604051808263ffffffff1663ffffffff16815260200191505060405180910390f35b6113c4613b42565b6040518082815260200191505060405180910390f35b61141c600480360360208110156113f057600080fd5b81019080803573ffffffffffffffffffffffffffffffffffffffff169060200190929190505050613b48565b005b611426613cfa565b6040518082815260200191505060405180910390f35b611444613d00565b604051808273ffffffffffffffffffffffffffffffffffffffff1673ffffffffffffffffffffffffffffffffffffffff16815260200191505060405180910390f35b61148e613d26565b6040518082815260200191505060405180910390f35b6114e6600480360360208110156114ba57600080fd5b81019080803573ffffffffffffffffffffffffffffffffffffffff169060200190929190505050613d32565b6040518082815260200191505060405180910390f35b611504613d4a565b604051808265ffffffffffff1665ffffffffffff16815260200191505060405180910390f35b6115566004803603602081101561154057600080fd5b8101908080359060200190929190505050613d62565b005b6115ef600480360360e081101561156e57600080fd5b81019080803573ffffffffffffffffffffffffffffffffffffffff169060200190929190803573ffffffffffffffffffffffffffffffffffffffff1690602001909291908035906020019092919080359060200190929190803560ff1690602001909291908035906020019092919080359060200190929190505050613d6c565b005b6115f9613db3565b604051808273ffffffffffffffffffffffffffffffffffffffff1673ffffffffffffffffffffffffffffffffffffffff16815260200191505060405180910390f35b61169d6004803603604081101561165157600080fd5b81019080803573ffffffffffffffffffffffffffffffffffffffff169060200190929190803573ffffffffffffffffffffffffffffffffffffffff169060200190929190505050613dd9565b6040518082815260200191505060405180910390f35b6116bb613dfe565b6040518082815260200191505060405180910390f35b6116fd600480360360208110156116e757600080fd5b8101908080359060200190929190505050613e06565b005b611707613e38565b604051808263ffffffff1663ffffffff16815260200191505060405180910390f35b61176b6004803603602081101561173f57600080fd5b81019080803573ffffffffffffffffffffffffffffffffffffffff169060200190929190505050613e4e565b005b6117af6004803603602081101561178357600080fd5b81019080803573ffffffffffffffffffffffffffffffffffffffff169060200190929190505050613e92565b005b6117dd600480360360208110156117c757600080fd5b8101908080359060200190929190505050613ed6565b005b61180b600480360360208110156117f557600080fd5b8101908080359060200190929190505050613ee0565b005b611815613fed565b005b7ff6d86ed606f871fa1a557ac0ba607adce07767acf53f492fb215a1a4db4aea6f60001b81565b60008054600181600116156101000203166002900480601f0160208091040260200160405190810160405280929190818152602001828054600181600116156101000203166002900480156118d45780601f106118a9576101008083540402835291602001916118d4565b820191906000526020600020905b8154815290600101906020018083116118b757829003601f168201915b505050505081565b640d7957c4d081565b60006118f23384846140b7565b6001905092915050565b60035481565b60125481565b80600e60006101000a8154816dffffffffffffffffffffffffffff02191690836dffffffffffffffffffffffffffff16021790555050565b8060118190555050565b600b60009054906101000a900460ff166119cc576040517f08c379a00000000000000000000000000000000000000000000000000000000081526004018080602001828103825260138152602001807f496d7065726d61783a205245454e54455245440000000000000000000000000081525060200191505060405180910390fd5b6000600b60006101000a81548160ff0219169083151502179055506119ef6137f8565b6000600a54905080841115611a6c576040517f08c379a000000000000000000000000000000000000000000000000000000000815260040180806020018281038252601b8152602001807f496d7065726d61783a20494e53554646494349454e545f43415348000000000081525060200191505060405180910390fd5b611a778633866141a2565b6000841115611a8b57611a8a8585614384565b5b6000838390501115611b9f578473ffffffffffffffffffffffffffffffffffffffff1663876d9d9e33888787876040518663ffffffff1660e01b8152600401808673ffffffffffffffffffffffffffffffffffffffff1673ffffffffffffffffffffffffffffffffffffffff1681526020018573ffffffffffffffffffffffffffffffffffffffff1673ffffffffffffffffffffffffffffffffffffffff168152602001848152602001806020018281038252848482818152602001925080828437600081840152601f19601f8201169050808301925050509650505050505050600060405180830381600087803b158015611b8657600080fd5b505af1158015611b9a573d6000803e3d6000fd5b505050505b6000600860009054906101000a900473ffffffffffffffffffffffffffffffffffffffff1673ffffffffffffffffffffffffffffffffffffffff166370a08231306040518263ffffffff1660e01b8152600401808273ffffffffffffffffffffffffffffffffffffffff1673ffffffffffffffffffffffffffffffffffffffff16815260200191505060206040518083038186803b158015611c4057600080fd5b505afa158015611c54573d6000803e3d6000fd5b505050506040513d6020811015611c6a57600080fd5b810190808051906020019092919050505090506000611cb3670de0b6b3a7640000611ca566038d7ea4c68000896145f290919063ffffffff16565b61467890919063ffffffff16565b90506000611cca82886146c290919063ffffffff16565b90506000611cf385611ce58a876146c290919063ffffffff16565b61474a90919063ffffffff16565b90506000806000611d058d8686614794565b92509250925083851115611e9e57600b60019054906101000a900473ffffffffffffffffffffffffffffffffffffffff1673ffffffffffffffffffffffffffffffffffffffff16639aac2c538e30856040518463ffffffff1660e01b8152600401808473ffffffffffffffffffffffffffffffffffffffff1673ffffffffffffffffffffffffffffffffffffffff1681526020018373ffffffffffffffffffffffffffffffffffffffff1673ffffffffffffffffffffffffffffffffffffffff1681526020018281526020019350505050602060405180830381600087803b158015611df057600080fd5b505af1158015611e04573d6000803e3d6000fd5b505050506040513d6020811015611e1a57600080fd5b8101908080519060200190929190505050611e9d576040517f08c379a00000000000000000000000000000000000000000000000000000000081526004018080602001828103825260208152602001807f496d7065726d61783a20494e53554646494349454e545f4c495155494449545981525060200191505060405180910390fd5b5b8b73ffffffffffffffffffffffffffffffffffffffff168d73ffffffffffffffffffffffffffffffffffffffff163373ffffffffffffffffffffffffffffffffffffffff167f33f3048bd4e6af45e53afb722adfd57dbde82da7e93e44db921fb4b8c6a70c4b8e88888888604051808681526020018581526020018481526020018381526020018281526020019550505050505060405180910390a45050505050505050611f4a614b43565b6001600b60006101000a81548160ff0219169083151502179055505050505050565b670853a0d2313c000081565b60007fffffffffffffffffffffffffffffffffffffffffffffffffffffffffffffffff600560008673ffffffffffffffffffffffffffffffffffffffff1673ffffffffffffffffffffffffffffffffffffffff16815260200190815260200160002060003373ffffffffffffffffffffffffffffffffffffffff1673ffffffffffffffffffffffffffffffffffffffff1681526020019081526020016000205414612164576120e3826040518060400160405280601e81526020017f496d7065726d61783a205452414e534645525f4e4f545f414c4c4f5745440000815250600560008873ffffffffffffffffffffffffffffffffffffffff1673ffffffffffffffffffffffffffffffffffffffff16815260200190815260200160002060003373ffffffffffffffffffffffffffffffffffffffff1673ffffffffffffffffffffffffffffffffffffffff16815260200190815260200160002054614b559092919063ffffffff16565b600560008673ffffffffffffffffffffffffffffffffffffffff1673ffffffffffffffffffffffffffffffffffffffff16815260200190815260200160002060003373ffffffffffffffffffffffffffffffffffffffff1673ffffffffffffffffffffffffffffffffffffffff168152602001908152602001600020819055505b61216f848484614c15565b600190509392505050565b6505436648e14081565b600b60009054906101000a900460ff16612206576040517f08c379a00000000000000000000000000000000000000000000000000000000081526004018080602001828103825260138152602001807f496d7065726d61783a205245454e54455245440000000000000000000000000081525060200191505060405180910390fd5b6000600b60006101000a81548160ff02191690831515021790555061223781640d7957c4d06505436648e140614de0565b806013819055507f1396dfcdb64fb7eb77fb84966f27b81afe14aa70b6e966c68d74af3302a9fe90816040518082815260200191505060405180910390a16001600b60006101000a81548160ff02191690831515021790555050565b60135481565b7f6e71edae12b1b97f4d1f60370fef10105fa2faae0126114a169c64845d6126c960001b81565b600260009054906101000a900460ff1681565b600b60009054906101000a900460ff16612355576040517f08c379a00000000000000000000000000000000000000000000000000000000081526004018080602001828103825260138152602001807f496d7065726d61783a205245454e54455245440000000000000000000000000081525060200191505060405180910390fd5b6000600b60006101000a81548160ff021916908315150217905550612378614ed9565b80601460006101000a81548173ffffffffffffffffffffffffffffffffffffffff021916908373ffffffffffffffffffffffffffffffffffffffff1602179055507f468b6598e7e810c65c9858b5f23a2d5b8692fb753b78a032232de4c6ed3cabbf81604051808273ffffffffffffffffffffffffffffffffffffffff1673ffffffffffffffffffffffffffffffffffffffff16815260200191505060405180910390a16001600b60006101000a81548160ff02191690831515021790555050565b60065481565b600061244a6137f8565b600060035490506000612493600e809054906101000a90046dffffffffffffffffffffffffffff166dffffffffffffffffffffffffffff16600a546146c290919063ffffffff16565b905060008214806124a45750600081145b156124bb57670de0b6b3a7640000925050506124fc565b60006124ea836124dc670de0b6b3a7640000856145f290919063ffffffff16565b61467890919063ffffffff16565b90506124f6818461501e565b93505050505b90565b60115481565b6407620d070081565b600e809054906101000a90046dffffffffffffffffffffffffffff1681565b600073ffffffffffffffffffffffffffffffffffffffff16600960009054906101000a900473ffffffffffffffffffffffffffffffffffffffff1673ffffffffffffffffffffffffffffffffffffffff16146125f1576040517f08c379a000000000000000000000000000000000000000000000000000000000815260040180806020018281038252601d8152602001807f496d7065726d61783a20464143544f52595f414c52454144595f53455400000081525060200191505060405180910390fd5b33600960006101000a81548173ffffffffffffffffffffffffffffffffffffffff021916908373ffffffffffffffffffffffffffffffffffffffff160217905550565b60006014809054906101000a900460ff161561269157601560008373ffffffffffffffffffffffffffffffffffffffff1673ffffffffffffffffffffffffffffffffffffffff16815260200190815260200160002054905061269d565b61269a826151a3565b90505b919050565b806fffffffffffffffffffffffffffffffff16600f8190555050565b60008473ffffffffffffffffffffffffffffffffffffffff1663b2a02ff18585856040518463ffffffff1660e01b8152600401808473ffffffffffffffffffffffffffffffffffffffff1673ffffffffffffffffffffffffffffffffffffffff1681526020018373ffffffffffffffffffffffffffffffffffffffff1673ffffffffffffffffffffffffffffffffffffffff1681526020018281526020019350505050602060405180830381600087803b15801561277b57600080fd5b505af115801561278f573d6000803e3d6000fd5b505050506040513d60208110156127a557600080fd5b81019080805190602001909291905050509050949350505050565b601460009054906101000a900473ffffffffffffffffffffffffffffffffffffffff1681565b80601460006101000a81548173ffffffffffffffffffffffffffffffffffffffff021916908373ffffffffffffffffffffffffffffffffffffffff16021790555050565b600581565b670c7d713b49da000081565b80600e806101000a8154816dffffffffffffffffffffffffffff02191690836dffffffffffffffffffffffffffff16021790555050565b600960009054906101000a900473ffffffffffffffffffffffffffffffffffffffff1673ffffffffffffffffffffffffffffffffffffffff163373ffffffffffffffffffffffffffffffffffffffff1614612935576040517f08c379a00000000000000000000000000000000000000000000000000000000081526004018080602001828103825260168152602001807f496d7065726d61783a20554e415554484f52495a45440000000000000000000081525060200191505060405180910390fd5b6129c786868080601f016020809104026020016040519081016040528093929190818152602001838380828437600081840152601f19601f8201169050808301925050505050505085858080601f016020809104026020016040519081016040528093929190818152602001838380828437600081840152601f19601f8201169050808301925050505050505061532a565b81600860006101000a81548173ffffffffffffffffffffffffffffffffffffffff021916908373ffffffffffffffffffffffffffffffffffffffff16021790555080600b60016101000a81548173ffffffffffffffffffffffffffffffffffffffff021916908373ffffffffffffffffffffffffffffffffffffffff160217905550670de0b6b3a7640000600f81905550505050505050565b6000600b60009054906101000a900460ff16612ae4576040517f08c379a00000000000000000000000000000000000000000000000000000000081526004018080602001828103825260138152602001807f496d7065726d61783a205245454e54455245440000000000000000000000000081525060200191505060405180910390fd5b6000600b60006101000a81548160ff0219169083151502179055506000600860009054906101000a900473ffffffffffffffffffffffffffffffffffffffff1673ffffffffffffffffffffffffffffffffffffffff166370a08231306040518263ffffffff1660e01b8152600401808273ffffffffffffffffffffffffffffffffffffffff1673ffffffffffffffffffffffffffffffffffffffff16815260200191505060206040518083038186803b158015612ba057600080fd5b505afa158015612bb4573d6000803e3d6000fd5b505050506040513d6020811015612bca57600080fd5b810190808051906020019092919050505090506000612bf4600a548361474a90919063ffffffff16565b9050612c2a612c01612440565b612c1c670de0b6b3a7640000846145f290919063ffffffff16565b61467890919063ffffffff16565b925060006003541415612c5c57612c4c6103e88461474a90919063ffffffff16565b9250612c5b60006103e8615436565b5b60008311612cd2576040517f08c379a000000000000000000000000000000000000000000000000000000000815260040180806020018281038252601a8152602001807f496d7065726d61783a204d494e545f414d4f554e545f5a45524f00000000000081525060200191505060405180910390fd5b612cdc8484615436565b8373ffffffffffffffffffffffffffffffffffffffff163373ffffffffffffffffffffffffffffffffffffffff167f2f00e3cdd69a77be7ed215ec7b2a36784dd158f921fca79ac29deffa353fe6ee8386604051808381526020018281526020019250505060405180910390a35050612d53614b43565b6001600b60006101000a81548160ff021916908315150217905550919050565b600c602052816000526040600020602052806000526040600020600091509150505481565b600860009054906101000a900473ffffffffffffffffffffffffffffffffffffffff1681565b60046020528060005260406000206000915090505481565b81600d60008573ffffffffffffffffffffffffffffffffffffffff1673ffffffffffffffffffffffffffffffffffffffff16815260200190815260200160002060000160006101000a8154816dffffffffffffffffffffffffffff02191690836dffffffffffffffffffffffffffff16021790555080600d60008573ffffffffffffffffffffffffffffffffffffffff1673ffffffffffffffffffffffffffffffffffffffff168152602001908152602001600020600001600e6101000a8154816dffffffffffffffffffffffffffff02191690836dffffffffffffffffffffffffffff160217905550505050565b6000601660009054906101000a900463ffffffff16905090565b80601060006101000a81548165ffffffffffff021916908365ffffffffffff16021790555050565b60076020528060005260406000206000915090505481565b6000600b60009054906101000a900460ff16612fa3576040517f08c379a00000000000000000000000000000000000000000000000000000000081526004018080602001828103825260138152602001807f496d7065726d61783a205245454e54455245440000000000000000000000000081525060200191505060405180910390fd5b6000600b60006101000a81548160ff021916908315150217905550612fc66137f8565b6000600860009054906101000a900473ffffffffffffffffffffffffffffffffffffffff1673ffffffffffffffffffffffffffffffffffffffff166370a08231306040518263ffffffff1660e01b8152600401808273ffffffffffffffffffffffffffffffffffffffff1673ffffffffffffffffffffffffffffffffffffffff16815260200191505060206040518083038186803b15801561306757600080fd5b505afa15801561307b573d6000803e3d6000fd5b505050506040513d602081101561309157600080fd5b8101908080519060200190929190505050905060006130bb600a548361474a90919063ffffffff16565b905060008060006130ce88600086614794565b92509250925060006130e9838561474a90919063ffffffff16565b9050600b60019054906101000a900473ffffffffffffffffffffffffffffffffffffffff1673ffffffffffffffffffffffffffffffffffffffff1663b2a02ff1898b846040518463ffffffff1660e01b8152600401808473ffffffffffffffffffffffffffffffffffffffff1673ffffffffffffffffffffffffffffffffffffffff1681526020018373ffffffffffffffffffffffffffffffffffffffff1673ffffffffffffffffffffffffffffffffffffffff1681526020018281526020019350505050602060405180830381600087803b1580156131c857600080fd5b505af11580156131dc573d6000803e3d6000fd5b505050506040513d60208110156131f257600080fd5b810190808051906020019092919050505096508773ffffffffffffffffffffffffffffffffffffffff168973ffffffffffffffffffffffffffffffffffffffff163373ffffffffffffffffffffffffffffffffffffffff167fb0dbe18c6ffdf0da655dd690e77211d379205c497be44c64447c3f5f021b51678a89898989604051808681526020018581526020018481526020018381526020018281526020019550505050505060405180910390a45050505050506132af614b43565b6001600b60006101000a81548160ff02191690831515021790555092915050565b601060069054906101000a900465ffffffffffff1681565b60006132f5338484615550565b6001905092915050565b600b60009054906101000a900460ff16613381576040517f08c379a00000000000000000000000000000000000000000000000000000000081526004018080602001828103825260138152602001807f496d7065726d61783a205245454e54455245440000000000000000000000000081525060200191505060405180910390fd5b6000600b60006101000a81548160ff0219169083151502179055506133b781670853a0d2313c0000670c7d713b49da0000614de0565b806012819055507f7a550b1995ff63260fb313f12024e66e73bad425372e5af6b1e04cb3799ef38c816040518082815260200191505060405180910390a16001600b60006101000a81548160ff02191690831515021790555050565b6000600b60009054906101000a900460ff16613497576040517f08c379a00000000000000000000000000000000000000000000000000000000081526004018080602001828103825260138152602001807f496d7065726d61783a205245454e54455245440000000000000000000000000081525060200191505060405180910390fd5b6000600b60006101000a81548160ff0219169083151502179055506000600460003073ffffffffffffffffffffffffffffffffffffffff1673ffffffffffffffffffffffffffffffffffffffff16815260200190815260200160002054905061352a670de0b6b3a764000061351c61350d612440565b846145f290919063ffffffff16565b61467890919063ffffffff16565b9150600082116135a2576040517f08c379a000000000000000000000000000000000000000000000000000000000815260040180806020018281038252601c8152602001807f496d7065726d61783a2052454445454d5f414d4f554e545f5a45524f0000000081525060200191505060405180910390fd5b600a5482111561361a576040517f08c379a000000000000000000000000000000000000000000000000000000000815260040180806020018281038252601b8152602001807f496d7065726d61783a20494e53554646494349454e545f43415348000000000081525060200191505060405180910390fd5b6136248383614384565b61362e308261563b565b8273ffffffffffffffffffffffffffffffffffffffff163373ffffffffffffffffffffffffffffffffffffffff167f3f693fff038bb8a046aa76d9516190ac7444f7d69cf952c4cbdc086fdef2d6fc8484604051808381526020018281526020019250505060405180910390a3506136a4614b43565b6001600b60006101000a81548160ff021916908315150217905550919050565b60018054600181600116156101000203166002900480601f01602080910402602001604051908101604052809291908181526020018280546001816001161561010002031660029004801561375a5780601f1061372f5761010080835404028352916020019161375a565b820191906000526020600020905b81548152906001019060200180831161373d57829003601f168201915b505050505081565b80600960006101000a81548173ffffffffffffffffffffffffffffffffffffffff021916908373ffffffffffffffffffffffffffffffffffffffff16021790555050565b6137d9878787878787877ff6d86ed606f871fa1a557ac0ba607adce07767acf53f492fb215a1a4db4aea6f60001b615755565b6137e4878787615550565b50505050505050565b66038d7ea4c6800081565b6000600e60009054906101000a90046dffffffffffffffffffffffffffff166dffffffffffffffffffffffffffff1690506000600e809054906101000a90046dffffffffffffffffffffffffffff166dffffffffffffffffffffffffffff1690506000600e601c9054906101000a900463ffffffff169050600061387a612ec5565b90508063ffffffff168263ffffffff1614156138995750505050613a49565b6000828203905081600e601c6101000a81548163ffffffff021916908363ffffffff16021790555060006138f88263ffffffff16601060009054906101000a900465ffffffffffff1665ffffffffffff166145f290919063ffffffff16565b90506000613929670de0b6b3a764000061391b88856145f290919063ffffffff16565b61467890919063ffffffff16565b905061393e81876146c290919063ffffffff16565b955061397f613970670de0b6b3a76400006139628a866145f290919063ffffffff16565b61467890919063ffffffff16565b886146c290919063ffffffff16565b965061398a87615a6c565b600e60006101000a8154816dffffffffffffffffffffffffffff02191690836dffffffffffffffffffffffffffff1602179055506139c786615a6c565b600e806101000a8154816dffffffffffffffffffffffffffff02191690836dffffffffffffffffffffffffffff1602179055507f875352fb3fadeb8c0be7cbbe8ff761b308fa7033470cd0287f02f3436fd76cb981888860405180848152602001838152602001828152602001935050505060405180910390a1505050505050505b565b60016014806101000a81548160ff02191690831515021790555080601560008473ffffffffffffffffffffffffffffffffffffffff1673ffffffffffffffffffffffffffffffffffffffff168152602001908152602001600020819055505050565b6000613aba338484614c15565b6001905092915050565b600e60009054906101000a90046dffffffffffffffffffffffffffff1681565b600a5481565b613b2981613af783612634565b600e60009054906101000a90046dffffffffffffffffffffffffffff166dffffffffffffffffffffffffffff16615afa565b50565b600e601c9054906101000a900463ffffffff1681565b6103e881565b600b60009054906101000a900460ff16613bca576040517f08c379a00000000000000000000000000000000000000000000000000000000081526004018080602001828103825260138152602001807f496d7065726d61783a205245454e54455245440000000000000000000000000081525060200191505060405180910390fd5b6000600b60006101000a81548160ff021916908315150217905550613cdc81613cd7600a54600860009054906101000a900473ffffffffffffffffffffffffffffffffffffffff1673ffffffffffffffffffffffffffffffffffffffff166370a08231306040518263ffffffff1660e01b8152600401808273ffffffffffffffffffffffffffffffffffffffff1673ffffffffffffffffffffffffffffffffffffffff16815260200191505060206040518083038186803b158015613c8e57600080fd5b505afa158015613ca2573d6000803e3d6000fd5b505050506040513d6020811015613cb857600080fd5b810190808051906020019092919050505061474a90919063ffffffff16565b614384565b6001600b60006101000a81548160ff02191690831515021790555050565b600f5481565b600960009054906101000a900473ffffffffffffffffffffffffffffffffffffffff1681565b6702c68af0bb14000081565b60156020528060005260406000206000915090505481565b601060009054906101000a900465ffffffffffff1681565b80600a8190555050565b613d9f878787878787877f6e71edae12b1b97f4d1f60370fef10105fa2faae0126114a169c64845d6126c960001b615755565b613daa8787876140b7565b50505050505050565b600b60019054906101000a900473ffffffffffffffffffffffffffffffffffffffff1681565b6005602052816000526040600020602052806000526040600020600091509150505481565b6312e687c081565b6401000000008181613e1457fe5b06601660006101000a81548163ffffffff021916908363ffffffff16021790555050565b6010600c9054906101000a900463ffffffff1681565b80600860006101000a81548173ffffffffffffffffffffffffffffffffffffffff021916908373ffffffffffffffffffffffffffffffffffffffff16021790555050565b80600b60016101000a81548173ffffffffffffffffffffffffffffffffffffffff021916908373ffffffffffffffffffffffffffffffffffffffff16021790555050565b8060038190555050565b600b60009054906101000a900460ff16613f62576040517f08c379a00000000000000000000000000000000000000000000000000000000081526004018080602001828103825260138152602001807f496d7065726d61783a205245454e54455245440000000000000000000000000081525060200191505060405180910390fd5b6000600b60006101000a81548160ff021916908315150217905550613f918160006702c68af0bb140000614de0565b806011819055507f9d9cd27245b4e6b06dcf523ac57b6e851b934e199eee376313f906e94bfbfd55816040518082815260200191505060405180910390a16001600b60006101000a81548160ff02191690831515021790555050565b600b60009054906101000a900460ff1661406f576040517f08c379a00000000000000000000000000000000000000000000000000000000081526004018080602001828103825260138152602001807f496d7065726d61783a205245454e54455245440000000000000000000000000081525060200191505060405180910390fd5b6000600b60006101000a81548160ff0219169083151502179055506140926137f8565b61409a614b43565b6001600b60006101000a81548160ff021916908315150217905550565b80600560008573ffffffffffffffffffffffffffffffffffffffff1673ffffffffffffffffffffffffffffffffffffffff16815260200190815260200160002060008473ffffffffffffffffffffffffffffffffffffffff1673ffffffffffffffffffffffffffffffffffffffff168152602001908152602001600020819055508173ffffffffffffffffffffffffffffffffffffffff168373ffffffffffffffffffffffffffffffffffffffff167f8c5be1e5ebec7d5bd14f71427d1e84f3dd0314c0f7b2291e5b200ac8c7c3b925836040518082815260200191505060405180910390a3505050565b6000600c60008573ffffffffffffffffffffffffffffffffffffffff1673ffffffffffffffffffffffffffffffffffffffff16815260200190815260200160002060008473ffffffffffffffffffffffffffffffffffffffff1673ffffffffffffffffffffffffffffffffffffffff1681526020019081526020016000205490508373ffffffffffffffffffffffffffffffffffffffff168373ffffffffffffffffffffffffffffffffffffffff161415801561427f57507fffffffffffffffffffffffffffffffffffffffffffffffffffffffffffffffff8114155b1561437e57818110156142fa576040517f08c379a000000000000000000000000000000000000000000000000000000000815260040180806020018281038252601c8152602001807f496d7065726d61783a20424f52524f575f4e4f545f414c4c4f5745440000000081525060200191505060405180910390fd5b818103600c60008673ffffffffffffffffffffffffffffffffffffffff1673ffffffffffffffffffffffffffffffffffffffff16815260200190815260200160002060008573ffffffffffffffffffffffffffffffffffffffff1673ffffffffffffffffffffffffffffffffffffffff168152602001908152602001600020819055505b50505050565b60006060600860009054906101000a900473ffffffffffffffffffffffffffffffffffffffff1673ffffffffffffffffffffffffffffffffffffffff166040518060400160405280601981526020017f7472616e7366657228616464726573732c75696e743235362900000000000000815250805190602001208585604051602401808373ffffffffffffffffffffffffffffffffffffffff1673ffffffffffffffffffffffffffffffffffffffff16815260200182815260200192505050604051602081830303815290604052907bffffffffffffffffffffffffffffffffffffffffffffffffffffffff19166020820180517bffffffffffffffffffffffffffffffffffffffffffffffffffffffff83818316178352505050506040518082805190602001908083835b602083106144d357805182526020820191506020810190506020830392506144b0565b6001836020036101000a0380198251168184511680821785525050505050509050019150506000604051808303816000865af19150503d8060008114614535576040519150601f19603f3d011682016040523d82523d6000602084013e61453a565b606091505b509150915081801561457a5750600081511480614579575080806020019051602081101561456757600080fd5b81019080805190602001909291905050505b5b6145ec576040517f08c379a00000000000000000000000000000000000000000000000000000000081526004018080602001828103825260198152602001807f496d7065726d61783a205452414e534645525f4641494c45440000000000000081525060200191505060405180910390fd5b50505050565b6000808314156146055760009050614672565b600082840290508284828161461657fe5b041461466d576040517f08c379a00000000000000000000000000000000000000000000000000000000081526004018080602001828103825260218152602001806162516021913960400191505060405180910390fd5b809150505b92915050565b60006146ba83836040518060400160405280601a81526020017f536166654d6174683a206469766973696f6e206279207a65726f000000000000815250615c0a565b905092915050565b600080828401905083811015614740576040517f08c379a000000000000000000000000000000000000000000000000000000000815260040180806020018281038252601b8152602001807f536166654d6174683a206164646974696f6e206f766572666c6f77000000000081525060200191505060405180910390fd5b8091505092915050565b600061478c83836040518060400160405280601f81526020017f536166654d6174683a207375627472616374696f6e20756e646572666c6f7700815250614b55565b905092915050565b60008060006147a286612634565b9250838514156147e8578283600e809054906101000a90046dffffffffffffffffffffffffffff16806dffffffffffffffffffffffffffff169050925092509250614b3a565b6000600e60009054906101000a90046dffffffffffffffffffffffffffff16905084861115614969576000600d60008973ffffffffffffffffffffffffffffffffffffffff1673ffffffffffffffffffffffffffffffffffffffff16815260200190815260200160002090506000868803905061486e81876146c290919063ffffffff16565b945061487985615a6c565b8260000160006101000a8154816dffffffffffffffffffffffffffff02191690836dffffffffffffffffffffffffffff1602179055508282600001600e6101000a8154816dffffffffffffffffffffffffffff02191690836dffffffffffffffffffffffffffff16021790555061492481600e809054906101000a90046dffffffffffffffffffffffffffff166dffffffffffffffffffffffffffff166146c290919063ffffffff16565b935061492f84615a6c565b600e806101000a8154816dffffffffffffffffffffffffffff02191690836dffffffffffffffffffffffffffff1602179055505050614b1d565b6000600d60008973ffffffffffffffffffffffffffffffffffffffff1673ffffffffffffffffffffffffffffffffffffffff1681526020019081526020016000209050600087870390508086116149c15760006149c5565b8086035b94506149d085615a6c565b8260000160006101000a8154816dffffffffffffffffffffffffffff02191690836dffffffffffffffffffffffffffff1602179055506000851415614a4c57600082600001600e6101000a8154816dffffffffffffffffffffffffffff02191690836dffffffffffffffffffffffffffff160217905550614a84565b8282600001600e6101000a8154816dffffffffffffffffffffffffffff02191690836dffffffffffffffffffffffffffff1602179055505b6000614a99868861474a90919063ffffffff16565b9050600e809054906101000a90046dffffffffffffffffffffffffffff166dffffffffffffffffffffffffffff169450808511614ad7576000614adb565b8085035b9450614ae685615a6c565b600e806101000a8154816dffffffffffffffffffffffffffff02191690836dffffffffffffffffffffffffffff1602179055505050505b614b388784836dffffffffffffffffffffffffffff16615afa565b505b93509350939050565b614b4b615cd0565b614b53615deb565b565b6000838311158290614c02576040517f08c379a00000000000000000000000000000000000000000000000000000000081526004018080602001828103825283818151815260200191508051906020019080838360005b83811015614bc7578082015181840152602081019050614bac565b50505050905090810190601f168015614bf45780820380516001836020036101000a031916815260200191505b509250505060405180910390fd5b5060008385039050809150509392505050565b614c9e816040518060400160405280601b81526020017f496d7065726d61783a205452414e534645525f544f4f5f484947480000000000815250600460008773ffffffffffffffffffffffffffffffffffffffff1673ffffffffffffffffffffffffffffffffffffffff16815260200190815260200160002054614b559092919063ffffffff16565b600460008573ffffffffffffffffffffffffffffffffffffffff1673ffffffffffffffffffffffffffffffffffffffff16815260200190815260200160002081905550614d3381600460008573ffffffffffffffffffffffffffffffffffffffff1673ffffffffffffffffffffffffffffffffffffffff168152602001908152602001600020546146c290919063ffffffff16565b600460008473ffffffffffffffffffffffffffffffffffffffff1673ffffffffffffffffffffffffffffffffffffffff168152602001908152602001600020819055508173ffffffffffffffffffffffffffffffffffffffff168373ffffffffffffffffffffffffffffffffffffffff167fddf252ad1be2c89b69c2b068fc378daa952ba7f163c4a11628f55a4df523b3ef836040518082815260200191505060405180910390a3505050565b614de8614ed9565b81831015614e5e576040517f08c379a00000000000000000000000000000000000000000000000000000000081526004018080602001828103825260198152602001807f496d7065726d61783a20494e56414c49445f53455454494e470000000000000081525060200191505060405180910390fd5b80831115614ed4576040517f08c379a00000000000000000000000000000000000000000000000000000000081526004018080602001828103825260198152602001807f496d7065726d61783a20494e56414c49445f53455454494e470000000000000081525060200191505060405180910390fd5b505050565b600960009054906101000a900473ffffffffffffffffffffffffffffffffffffffff1673ffffffffffffffffffffffffffffffffffffffff1663f851a4406040518163ffffffff1660e01b815260040160206040518083038186803b158015614f4157600080fd5b505afa158015614f55573d6000803e3d6000fd5b505050506040513d6020811015614f6b57600080fd5b810190808051906020019092919050505073ffffffffffffffffffffffffffffffffffffffff163373ffffffffffffffffffffffffffffffffffffffff161461501c576040517f08c379a00000000000000000000000000000000000000000000000000000000081526004018080602001828103825260168152602001807f496d7065726d61783a20554e415554484f52495a45440000000000000000000081525060200191505060405180910390fd5b565b600080600f54905080841115615198576000615083615074670de0b6b3a7640000615066601154615058878b61474a90919063ffffffff16565b6145f290919063ffffffff16565b61467890919063ffffffff16565b8661474a90919063ffffffff16565b905060006150be856150b0846150a28a8a6145f290919063ffffffff16565b61467890919063ffffffff16565b61474a90919063ffffffff16565b905060008114156150d45785935050505061519d565b6000600960009054906101000a900473ffffffffffffffffffffffffffffffffffffffff1673ffffffffffffffffffffffffffffffffffffffff1663345ef9416040518163ffffffff1660e01b815260040160206040518083038186803b15801561513e57600080fd5b505afa158015615152573d6000803e3d6000fd5b505050506040513d602081101561516857600080fd5b810190808051906020019092919050505090506151858183615436565b82600f819055508294505050505061519d565b839150505b92915050565b60006151ad61611f565b600d60008473ffffffffffffffffffffffffffffffffffffffff1673ffffffffffffffffffffffffffffffffffffffff1681526020019081526020016000206040518060400160405290816000820160009054906101000a90046dffffffffffffffffffffffffffff166dffffffffffffffffffffffffffff166dffffffffffffffffffffffffffff16815260200160008201600e9054906101000a90046dffffffffffffffffffffffffffff166dffffffffffffffffffffffffffff166dffffffffffffffffffffffffffff16815250509050600081602001516dffffffffffffffffffffffffffff1614156152a8576000915050615325565b61532181602001516dffffffffffffffffffffffffffff16615313600e60009054906101000a90046dffffffffffffffffffffffffffff166dffffffffffffffffffffffffffff1684600001516dffffffffffffffffffffffffffff166145f290919063ffffffff16565b61467890919063ffffffff16565b9150505b919050565b8160009080519060200190615340929190616159565b508060019080519060200190615357929190616159565b50600046905060405180806161ff605291396052019050604051809103902083805190602001206040518060400160405280600181526020017f3100000000000000000000000000000000000000000000000000000000000000815250805190602001208330604051602001808681526020018581526020018481526020018381526020018273ffffffffffffffffffffffffffffffffffffffff1673ffffffffffffffffffffffffffffffffffffffff1681526020019550505050505060405160208183030381529060405280519060200120600681905550505050565b61544b816003546146c290919063ffffffff16565b6003819055506154a381600460008573ffffffffffffffffffffffffffffffffffffffff1673ffffffffffffffffffffffffffffffffffffffff168152602001908152602001600020546146c290919063ffffffff16565b600460008473ffffffffffffffffffffffffffffffffffffffff1673ffffffffffffffffffffffffffffffffffffffff168152602001908152602001600020819055508173ffffffffffffffffffffffffffffffffffffffff16600073ffffffffffffffffffffffffffffffffffffffff167fddf252ad1be2c89b69c2b068fc378daa952ba7f163c4a11628f55a4df523b3ef836040518082815260200191505060405180910390a35050565b80600c60008573ffffffffffffffffffffffffffffffffffffffff1673ffffffffffffffffffffffffffffffffffffffff16815260200190815260200160002060008473ffffffffffffffffffffffffffffffffffffffff1673ffffffffffffffffffffffffffffffffffffffff168152602001908152602001600020819055508173ffffffffffffffffffffffffffffffffffffffff168373ffffffffffffffffffffffffffffffffffffffff167fc3c1215b41d54142382d54a05fb991007165ae91bcb1879bac8b290d9111aaf4836040518082815260200191505060405180910390a3505050565b61568d81600460008573ffffffffffffffffffffffffffffffffffffffff1673ffffffffffffffffffffffffffffffffffffffff1681526020019081526020016000205461474a90919063ffffffff16565b600460008473ffffffffffffffffffffffffffffffffffffffff1673ffffffffffffffffffffffffffffffffffffffff168152602001908152602001600020819055506156e58160035461474a90919063ffffffff16565b600381905550600073ffffffffffffffffffffffffffffffffffffffff168273ffffffffffffffffffffffffffffffffffffffff167fddf252ad1be2c89b69c2b068fc378daa952ba7f163c4a11628f55a4df523b3ef836040518082815260200191505060405180910390a35050565b428510156157cb576040517f08c379a00000000000000000000000000000000000000000000000000000000081526004018080602001828103825260118152602001807f496d7065726d61783a204558504952454400000000000000000000000000000081525060200191505060405180910390fd5b6000600654828a8a8a600760008f73ffffffffffffffffffffffffffffffffffffffff1673ffffffffffffffffffffffffffffffffffffffff1681526020019081526020016000206000815480929190600101919050558b604051602001808781526020018673ffffffffffffffffffffffffffffffffffffffff1673ffffffffffffffffffffffffffffffffffffffff1681526020018573ffffffffffffffffffffffffffffffffffffffff1673ffffffffffffffffffffffffffffffffffffffff16815260200184815260200183815260200182815260200196505050505050506040516020818303038152906040528051906020012060405160200180807f190100000000000000000000000000000000000000000000000000000000000081525060020183815260200182815260200192505050604051602081830303815290604052805190602001209050600060018287878760405160008152602001604052604051808581526020018460ff1660ff1681526020018381526020018281526020019450505050506020604051602081039080840390855afa15801561597a573d6000803e3d6000fd5b505050602060405103519050600073ffffffffffffffffffffffffffffffffffffffff168173ffffffffffffffffffffffffffffffffffffffff16141580156159ee57508973ffffffffffffffffffffffffffffffffffffffff168173ffffffffffffffffffffffffffffffffffffffff16145b615a60576040517f08c379a000000000000000000000000000000000000000000000000000000000815260040180806020018281038252601b8152602001807f496d7065726d61783a20494e56414c49445f5349474e4154555245000000000081525060200191505060405180910390fd5b50505050505050505050565b60006e0100000000000000000000000000008210615af2576040517f08c379a00000000000000000000000000000000000000000000000000000000081526004018080602001828103825260118152602001807f496d7065726d61783a205341464531313200000000000000000000000000000081525060200191505060405180910390fd5b819050919050565b6000601460009054906101000a900473ffffffffffffffffffffffffffffffffffffffff169050600073ffffffffffffffffffffffffffffffffffffffff168173ffffffffffffffffffffffffffffffffffffffff161415615b5c5750615c05565b8073ffffffffffffffffffffffffffffffffffffffff166305285d7f8585856040518463ffffffff1660e01b8152600401808473ffffffffffffffffffffffffffffffffffffffff1673ffffffffffffffffffffffffffffffffffffffff1681526020018381526020018281526020019350505050600060405180830381600087803b158015615beb57600080fd5b505af1158015615bff573d6000803e3d6000fd5b50505050505b505050565b60008083118290615cb6576040517f08c379a00000000000000000000000000000000000000000000000000000000081526004018080602001828103825283818151815260200191508051906020019080838360005b83811015615c7b578082015181840152602081019050615c60565b50505050905090810190601f168015615ca85780820380516001836020036101000a031916815260200191505b509250505060405180910390fd5b506000838581615cc257fe5b049050809150509392505050565b600860009054906101000a900473ffffffffffffffffffffffffffffffffffffffff1673ffffffffffffffffffffffffffffffffffffffff166370a08231306040518263ffffffff1660e01b8152600401808273ffffffffffffffffffffffffffffffffffffffff1673ffffffffffffffffffffffffffffffffffffffff16815260200191505060206040518083038186803b158015615d6f57600080fd5b505afa158015615d83573d6000803e3d6000fd5b505050506040513d6020811015615d9957600080fd5b8101908080519060200190929190505050600a819055507f8a0df8ef054fae2c3d2d19a7b322e864870cc9fd3cb07fb9526309c596244bf4600a546040518082815260200191505060405180910390a1565b60006012549050600060135490506000601060009054906101000a900465ffffffffffff1665ffffffffffff1690506000601060069054906101000a900465ffffffffffff1665ffffffffffff16905060006010600c9054906101000a900463ffffffff169050600081615e5d612ec5565b03905060008163ffffffff161115615fe257615e77612ec5565b6010600c6101000a81548163ffffffff021916908363ffffffff160217905550600083851015615f00576000670de0b6b3a76400008363ffffffff168887670de0b6b3a76400008a8a030281615ec957fe5b04020281615ed357fe5b049050670de0b6b3a76400008111615ef55780670de0b6b3a764000003615ef8565b60005b915050615f44565b6000670de0b6b3a76400008363ffffffff168887670de0b6b3a7640000898b030281615f2857fe5b04020281615f3257fe5b049050670de0b6b3a764000081019150505b670de0b6b3a764000081850281615f5757fe5b0493506407620d0700841115615f70576407620d070093505b6312e687c0841015615f84576312e687c093505b83601060066101000a81548165ffffffffffff021916908365ffffffffffff1602179055507f713a98ffb7d769b8e33e2ee945ebb6acb7f397532688164d3ce1081f903c77bc846040518082815260200191505060405180910390a1505b600080600e809054906101000a90046dffffffffffffffffffffffffffff166dffffffffffffffffffffffffffff169050600061602a82600a546146c290919063ffffffff16565b90506000811461604d5780670de0b6b3a764000083028161604757fe5b04616050565b60005b9250505086811161606e57868185028161606657fe5b0494506160ba565b600087670de0b6b3a764000003670de0b6b3a7640000898403028161608f57fe5b049050670de0b6b3a764000085670de0b6b3a7640000836001600503020102816160b557fe5b049550505b84601060006101000a81548165ffffffffffff021916908365ffffffffffff1602179055507f338541dc9083f6af6715482fb419e1483c1ae9097764fd68a5dc98109bd5a788856040518082815260200191505060405180910390a150505050505050565b604051806040016040528060006dffffffffffffffffffffffffffff16815260200160006dffffffffffffffffffffffffffff1681525090565b828054600181600116156101000203166002900490600052602060002090601f016020900481019282601f1061619a57805160ff19168380011785556161c8565b828001600101855582156161c8579182015b828111156161c75782518255916020019190600101906161ac565b5b5090506161d591906161d9565b5090565b6161fb91905b808211156161f75760008160009055506001016161df565b5090565b9056fe454950373132446f6d61696e28737472696e67206e616d652c737472696e672076657273696f6e2c75696e7432353620636861696e49642c6164647265737320766572696679696e67436f6e747261637429536166654d6174683a206d756c7469706c69636174696f6e206f766572666c6f77a265627a7a72315820bf7d7d20473dd6b16bb524bd59c4d3b9cb468334e14365c1d1bf00b6104d937f64736f6c63430005100032",
  "source": "pragma solidity =0.5.16;\r\n\r\nimport \"../../contracts/Borrowable.sol\";\r\nimport \"../../contracts/interfaces/ICollateral.sol\";\r\n\r\ncontract BorrowableHarness is Borrowable {\r\n\t\r\n\tfunction setUnderlyingHarness(address _underlying) external {\r\n\t\tunderlying = _underlying;\r\n\t}\r\n\t\r\n\tfunction setFactoryHarness(address _factory) external {\r\n\t\tfactory = _factory;\r\n\t}\r\n\t\r\n\tfunction setCollateralHarness(address _collateral) external {\r\n\t\tcollateral = _collateral;\r\n\t}\r\n\t\r\n\tbool useMockBorrowBalance;\r\n\tmapping(address => uint) public _borrowBalance;\r\n\t\r\n\tfunction borrowBalance(address borrower) public view returns (uint) {\r\n\t\tif (useMockBorrowBalance) return _borrowBalance[borrower];\r\n\t\treturn super.borrowBalance(borrower);\r\n\t}\r\n\t\r\n\tfunction setBorrowBalanceHarness(address borrower, uint amount) external {\r\n\t\tuseMockBorrowBalance = true;\r\n\t\t_borrowBalance[borrower] = amount;\r\n\t}\r\n\t\r\n\tfunction setBorrowBalances(address borrower, uint112 principal, uint112 interestIndex) external {\r\n\t\tborrowBalances[borrower].principal = principal;\r\n\t\tborrowBalances[borrower].interestIndex = interestIndex;\r\n\t}\r\n\t\r\n\tfunction setBorrowIndex(uint112 _borrowIndex) external {\r\n\t\tborrowIndex = _borrowIndex;\r\n\t}\r\n\t\r\n\tfunction seizeHarness(address collateral, address liquidator, address borrower, uint repayAmount) external returns (uint) {\r\n\t\treturn ICollateral(collateral).seize(liquidator, borrower, repayAmount);\r\n\t}\r\n\t\r\n\tfunction setTotalBalance(uint _totalBalance) public {\r\n\t\ttotalBalance = _totalBalance;\r\n\t}\r\n\t\r\n\tfunction setTotalBorrows(uint112 _totalBorrows) public {\r\n\t\ttotalBorrows = _totalBorrows;\r\n\t}\r\n\t\r\n\tfunction setTotalSupply(uint _totalSupply) public {\r\n\t\ttotalSupply = _totalSupply;\r\n\t}\r\n\t\r\n\tfunction setBorrowRate(uint48 _borrowRate) public {\r\n\t\tborrowRate = _borrowRate;\r\n\t}\r\n\t\r\n\tfunction setReserveFactor(uint _reserveFactor) public {\r\n\t\treserveFactor = _reserveFactor;\r\n\t}\r\n\t\r\n\tuint32 _blockTimestamp;\r\n\tfunction getBlockTimestamp() public view returns (uint32) {\r\n\t\treturn _blockTimestamp;\r\n\t}\r\n\tfunction setBlockTimestamp(uint blockTimestamp) public {\r\n\t\t_blockTimestamp = uint32(blockTimestamp % 2**32);\r\n\t}\r\n\t\r\n\tfunction setExchangeRateLast(uint128 _exchangeRateLast) public {\r\n\t\texchangeRateLast = _exchangeRateLast;\r\n\t}\r\n\t\r\n\tfunction setBorrowTracker(address _borrowTracker) public {\r\n\t\tborrowTracker = _borrowTracker;\r\n\t}\r\n\r\n}",
  "sourcePath": "C:/Users/simor/Desktop/impermax-x-uniswapv2-core/contracts/Contracts/BorrowableHarness.sol",
  "compiler": {
    "name": "solc",
    "version": "0.5.16+commit.9c3226ce.Emscripten.clang"
  },
  "schemaVersion": "3.3.2",
  "updatedAt": "2021-01-07T14:19:53.138Z",
  "devdoc": {
    "methods": {}
  },
  "userdoc": {
    "methods": {
      "_setFactory()": {
        "notice": "* Initialize **"
      }
    }
  }
}