{
  "contractName": "BStorage",
  "abi": [
    {
      "constant": true,
      "inputs": [],
      "name": "accrualTimestamp",
      "outputs": [
        {
          "internalType": "uint32",
          "name": "",
          "type": "uint32"
        }
      ],
      "payable": false,
      "stateMutability": "view",
      "type": "function"
    },
    {
      "constant": true,
      "inputs": [],
      "name": "adjustSpeed",
      "outputs": [
        {
          "internalType": "uint256",
          "name": "",
          "type": "uint256"
        }
      ],
      "payable": false,
      "stateMutability": "view",
      "type": "function"
    },
    {
      "constant": true,
      "inputs": [
        {
          "internalType": "address",
          "name": "",
          "type": "address"
        },
        {
          "internalType": "address",
          "name": "",
          "type": "address"
        }
      ],
      "name": "borrowAllowance",
      "outputs": [
        {
          "internalType": "uint256",
          "name": "",
          "type": "uint256"
        }
      ],
      "payable": false,
      "stateMutability": "view",
      "type": "function"
    },
    {
      "constant": true,
      "inputs": [],
      "name": "borrowIndex",
      "outputs": [
        {
          "internalType": "uint112",
          "name": "",
          "type": "uint112"
        }
      ],
      "payable": false,
      "stateMutability": "view",
      "type": "function"
    },
    {
      "constant": true,
      "inputs": [],
      "name": "borrowRate",
      "outputs": [
        {
          "internalType": "uint48",
          "name": "",
          "type": "uint48"
        }
      ],
      "payable": false,
      "stateMutability": "view",
      "type": "function"
    },
    {
      "constant": true,
      "inputs": [],
      "name": "borrowTracker",
      "outputs": [
        {
          "internalType": "address",
          "name": "",
          "type": "address"
        }
      ],
      "payable": false,
      "stateMutability": "view",
      "type": "function"
    },
    {
      "constant": true,
      "inputs": [],
      "name": "collateral",
      "outputs": [
        {
          "internalType": "address",
          "name": "",
          "type": "address"
        }
      ],
      "payable": false,
      "stateMutability": "view",
      "type": "function"
    },
    {
      "constant": true,
      "inputs": [],
      "name": "exchangeRateLast",
      "outputs": [
        {
          "internalType": "uint256",
          "name": "",
          "type": "uint256"
        }
      ],
      "payable": false,
      "stateMutability": "view",
      "type": "function"
    },
    {
      "constant": true,
      "inputs": [],
      "name": "kinkBorrowRate",
      "outputs": [
        {
          "internalType": "uint48",
          "name": "",
          "type": "uint48"
        }
      ],
      "payable": false,
      "stateMutability": "view",
      "type": "function"
    },
    {
      "constant": true,
      "inputs": [],
      "name": "kinkUtilizationRate",
      "outputs": [
        {
          "internalType": "uint256",
          "name": "",
          "type": "uint256"
        }
      ],
      "payable": false,
      "stateMutability": "view",
      "type": "function"
    },
    {
      "constant": true,
      "inputs": [],
      "name": "rateUpdateTimestamp",
      "outputs": [
        {
          "internalType": "uint32",
          "name": "",
          "type": "uint32"
        }
      ],
      "payable": false,
      "stateMutability": "view",
      "type": "function"
    },
    {
      "constant": true,
      "inputs": [],
      "name": "reserveFactor",
      "outputs": [
        {
          "internalType": "uint256",
          "name": "",
          "type": "uint256"
        }
      ],
      "payable": false,
      "stateMutability": "view",
      "type": "function"
    },
    {
      "constant": true,
      "inputs": [],
      "name": "totalBorrows",
      "outputs": [
        {
          "internalType": "uint112",
          "name": "",
          "type": "uint112"
        }
      ],
      "payable": false,
      "stateMutability": "view",
      "type": "function"
    }
  ],
  "bytecode": "0x6080604052600380546001600160701b031916670de0b6b3a7640000176001600160e01b0316600160e01b4263ffffffff16908102919091179091556005805465ffffffffffff60301b191669bd014d800000000000001763ffffffff60601b19166c0100000000000000000000000090920291909117905567016345785d8a00006006556709b6e64a8ec600006007556486bd6db0206008553480156100a557600080fd5b5061035f806100b56000396000f3fe608060405234801561001057600080fd5b50600436106100df5760003560e01c806391b427451161008c578063be340e3211610066578063be340e32146101f1578063c914b437146101f9578063d8dfeb4514610201578063e12b630614610209576100df565b806391b42745146101a5578063aa5af0fd146101c8578063b95b92a3146101d0576100df565b806347bd3718116100bd57806347bd37181461010e57806355957220146101395780636bd76d241461016a576100df565b80631aebf12f146100e45780632d5231d3146100fe5780634322b71414610106575b600080fd5b6100ec610211565b60408051918252519081900360200190f35b6100ec610217565b6100ec61021d565b610116610223565b604080516dffffffffffffffffffffffffffff9092168252519081900360200190f35b61014161024b565b6040805173ffffffffffffffffffffffffffffffffffffffff9092168252519081900360200190f35b6100ec6004803603604081101561018057600080fd5b5073ffffffffffffffffffffffffffffffffffffffff81358116916020013516610267565b6101ad610284565b6040805165ffffffffffff9092168252519081900360200190f35b61011661029c565b6101d86102b2565b6040805163ffffffff9092168252519081900360200190f35b6100ec6102de565b6101ad6102e4565b6101416102f2565b6101d861030e565b60075481565b60085481565b60065481565b6003546e01000000000000000000000000000090046dffffffffffffffffffffffffffff1681565b60095473ffffffffffffffffffffffffffffffffffffffff1681565b600160209081526000928352604080842090915290825290205481565b6005546601000000000000900465ffffffffffff1681565b6003546dffffffffffffffffffffffffffff1681565b6003547c0100000000000000000000000000000000000000000000000000000000900463ffffffff1681565b60045481565b60055465ffffffffffff1681565b60005473ffffffffffffffffffffffffffffffffffffffff1681565b6005546c01000000000000000000000000900463ffffffff168156fea265627a7a723158200c2e5fb3dcda8bafe25aed198a730daff3158bcf8126305702b313c245dd6dc864736f6c63430005100032",
  "source": "pragma solidity =0.5.16;\r\n\r\ncontract BStorage {\r\n\r\n\taddress public collateral;\r\n\r\n\tmapping (address => mapping (address => uint256)) public borrowAllowance;\r\n\t\r\n\tstruct BorrowSnapshot {\r\n\t\tuint112 principal;\t\t// amount in underlying when the borrow was last updated\r\n\t\tuint112 interestIndex;\t// borrow index when borrow was last updated\r\n\t}\r\n\tmapping(address => BorrowSnapshot) internal borrowBalances;\t\r\n\r\n\t// use one memory slot\r\n\tuint112 public borrowIndex = 1e18;\r\n\tuint112 public totalBorrows;\r\n\tuint32 public accrualTimestamp = uint32(block.timestamp % 2**32);\t\r\n\r\n\tuint public exchangeRateLast;\r\n\t\t\r\n\t// use one memory slot\r\n\tuint48 public borrowRate;\r\n\tuint48 public kinkBorrowRate = 3.1709792e9; //10% per year\r\n\tuint32 public rateUpdateTimestamp = uint32(block.timestamp % 2**32);\r\n\r\n\tuint public reserveFactor = 0.10e18; //10%\r\n\tuint public kinkUtilizationRate = 0.70e18; //70%\r\n\tuint public adjustSpeed = 0.5787037e12; //5% per day\r\n\taddress public borrowTracker;\r\n\r\n    function safe112(uint n) internal pure returns (uint112) {\r\n        require(n < 2**112, \"Impermax: SAFE112\");\r\n        return uint112(n);\r\n    }\r\n}",
  "sourcePath": "C:\\Users\\simor\\Desktop\\impermax-x-uniswapv2-core\\contracts\\BStorage.sol",
  "compiler": {
    "name": "solc",
    "version": "0.5.16+commit.9c3226ce.Emscripten.clang"
  },
  "schemaVersion": "3.3.2",
  "updatedAt": "2021-02-22T23:43:56.683Z",
  "devdoc": {
    "methods": {}
  },
  "userdoc": {
    "methods": {}
  }
}