{
  "contractName": "CollateralHarness",
  "abi": [
    {
      "anonymous": false,
      "inputs": [
        {
          "indexed": true,
          "internalType": "address",
          "name": "owner",
          "type": "address"
        },
        {
          "indexed": true,
          "internalType": "address",
          "name": "spender",
          "type": "address"
        },
        {
          "indexed": false,
          "internalType": "uint256",
          "name": "value",
          "type": "uint256"
        }
      ],
      "name": "Approval",
      "type": "event"
    },
    {
      "anonymous": false,
      "inputs": [
        {
          "indexed": true,
          "internalType": "address",
          "name": "sender",
          "type": "address"
        },
        {
          "indexed": true,
          "internalType": "address",
          "name": "minter",
          "type": "address"
        },
        {
          "indexed": false,
          "internalType": "uint256",
          "name": "mintAmount",
          "type": "uint256"
        },
        {
          "indexed": false,
          "internalType": "uint256",
          "name": "mintTokens",
          "type": "uint256"
        }
      ],
      "name": "Mint",
      "type": "event"
    },
    {
      "anonymous": false,
      "inputs": [
        {
          "indexed": false,
          "internalType": "uint256",
          "name": "newLiquidationIncentive",
          "type": "uint256"
        }
      ],
      "name": "NewLiquidationIncentive",
      "type": "event"
    },
    {
      "anonymous": false,
      "inputs": [
        {
          "indexed": false,
          "internalType": "uint256",
          "name": "newSafetyMarginSqrt",
          "type": "uint256"
        }
      ],
      "name": "NewSafetyMargin",
      "type": "event"
    },
    {
      "anonymous": false,
      "inputs": [
        {
          "indexed": true,
          "internalType": "address",
          "name": "sender",
          "type": "address"
        },
        {
          "indexed": true,
          "internalType": "address",
          "name": "redeemer",
          "type": "address"
        },
        {
          "indexed": false,
          "internalType": "uint256",
          "name": "redeemAmount",
          "type": "uint256"
        },
        {
          "indexed": false,
          "internalType": "uint256",
          "name": "redeemTokens",
          "type": "uint256"
        }
      ],
      "name": "Redeem",
      "type": "event"
    },
    {
      "anonymous": false,
      "inputs": [
        {
          "indexed": false,
          "internalType": "uint256",
          "name": "totalBalance",
          "type": "uint256"
        }
      ],
      "name": "Sync",
      "type": "event"
    },
    {
      "anonymous": false,
      "inputs": [
        {
          "indexed": true,
          "internalType": "address",
          "name": "from",
          "type": "address"
        },
        {
          "indexed": true,
          "internalType": "address",
          "name": "to",
          "type": "address"
        },
        {
          "indexed": false,
          "internalType": "uint256",
          "name": "value",
          "type": "uint256"
        }
      ],
      "name": "Transfer",
      "type": "event"
    },
    {
      "constant": true,
      "inputs": [],
      "name": "DOMAIN_SEPARATOR",
      "outputs": [
        {
          "internalType": "bytes32",
          "name": "",
          "type": "bytes32"
        }
      ],
      "payable": false,
      "stateMutability": "view",
      "type": "function"
    },
    {
      "constant": true,
      "inputs": [],
      "name": "LIQUIDATION_INCENTIVE_MAX",
      "outputs": [
        {
          "internalType": "uint256",
          "name": "",
          "type": "uint256"
        }
      ],
      "payable": false,
      "stateMutability": "view",
      "type": "function"
    },
    {
      "constant": true,
      "inputs": [],
      "name": "LIQUIDATION_INCENTIVE_MIN",
      "outputs": [
        {
          "internalType": "uint256",
          "name": "",
          "type": "uint256"
        }
      ],
      "payable": false,
      "stateMutability": "view",
      "type": "function"
    },
    {
      "constant": true,
      "inputs": [],
      "name": "MINIMUM_LIQUIDITY",
      "outputs": [
        {
          "internalType": "uint256",
          "name": "",
          "type": "uint256"
        }
      ],
      "payable": false,
      "stateMutability": "view",
      "type": "function"
    },
    {
      "constant": true,
      "inputs": [],
      "name": "PERMIT_TYPEHASH",
      "outputs": [
        {
          "internalType": "bytes32",
          "name": "",
          "type": "bytes32"
        }
      ],
      "payable": false,
      "stateMutability": "view",
      "type": "function"
    },
    {
      "constant": true,
      "inputs": [],
      "name": "SAFETY_MARGIN_SQRT_MAX",
      "outputs": [
        {
          "internalType": "uint256",
          "name": "",
          "type": "uint256"
        }
      ],
      "payable": false,
      "stateMutability": "view",
      "type": "function"
    },
    {
      "constant": true,
      "inputs": [],
      "name": "SAFETY_MARGIN_SQRT_MIN",
      "outputs": [
        {
          "internalType": "uint256",
          "name": "",
          "type": "uint256"
        }
      ],
      "payable": false,
      "stateMutability": "view",
      "type": "function"
    },
    {
      "constant": true,
      "inputs": [],
      "name": "_exchangeRate",
      "outputs": [
        {
          "internalType": "uint256",
          "name": "",
          "type": "uint256"
        }
      ],
      "payable": false,
      "stateMutability": "view",
      "type": "function"
    },
    {
      "constant": false,
      "inputs": [
        {
          "internalType": "string",
          "name": "_name",
          "type": "string"
        },
        {
          "internalType": "string",
          "name": "_symbol",
          "type": "string"
        },
        {
          "internalType": "address",
          "name": "_underlying",
          "type": "address"
        },
        {
          "internalType": "address",
          "name": "_borrowable0",
          "type": "address"
        },
        {
          "internalType": "address",
          "name": "_borrowable1",
          "type": "address"
        }
      ],
      "name": "_initialize",
      "outputs": [],
      "payable": false,
      "stateMutability": "nonpayable",
      "type": "function"
    },
    {
      "constant": true,
      "inputs": [
        {
          "internalType": "address",
          "name": "",
          "type": "address"
        }
      ],
      "name": "_liquidity",
      "outputs": [
        {
          "internalType": "uint256",
          "name": "",
          "type": "uint256"
        }
      ],
      "payable": false,
      "stateMutability": "view",
      "type": "function"
    },
    {
      "constant": true,
      "inputs": [],
      "name": "_price0",
      "outputs": [
        {
          "internalType": "uint256",
          "name": "",
          "type": "uint256"
        }
      ],
      "payable": false,
      "stateMutability": "view",
      "type": "function"
    },
    {
      "constant": true,
      "inputs": [],
      "name": "_price1",
      "outputs": [
        {
          "internalType": "uint256",
          "name": "",
          "type": "uint256"
        }
      ],
      "payable": false,
      "stateMutability": "view",
      "type": "function"
    },
    {
      "constant": false,
      "inputs": [],
      "name": "_setFactory",
      "outputs": [],
      "payable": false,
      "stateMutability": "nonpayable",
      "type": "function"
    },
    {
      "constant": false,
      "inputs": [
        {
          "internalType": "uint256",
          "name": "newLiquidationIncentive",
          "type": "uint256"
        }
      ],
      "name": "_setLiquidationIncentive",
      "outputs": [],
      "payable": false,
      "stateMutability": "nonpayable",
      "type": "function"
    },
    {
      "constant": false,
      "inputs": [
        {
          "internalType": "uint256",
          "name": "newSafetyMarginSqrt",
          "type": "uint256"
        }
      ],
      "name": "_setSafetyMarginSqrt",
      "outputs": [],
      "payable": false,
      "stateMutability": "nonpayable",
      "type": "function"
    },
    {
      "constant": true,
      "inputs": [
        {
          "internalType": "address",
          "name": "",
          "type": "address"
        }
      ],
      "name": "_shortfall",
      "outputs": [
        {
          "internalType": "uint256",
          "name": "",
          "type": "uint256"
        }
      ],
      "payable": false,
      "stateMutability": "view",
      "type": "function"
    },
    {
      "constant": false,
      "inputs": [
        {
          "internalType": "address",
          "name": "borrower",
          "type": "address"
        },
        {
          "internalType": "uint256",
          "name": "amount0",
          "type": "uint256"
        },
        {
          "internalType": "uint256",
          "name": "amount1",
          "type": "uint256"
        }
      ],
      "name": "accountLiquidityAmounts",
      "outputs": [
        {
          "internalType": "uint256",
          "name": "liquidity",
          "type": "uint256"
        },
        {
          "internalType": "uint256",
          "name": "shortfall",
          "type": "uint256"
        }
      ],
      "payable": false,
      "stateMutability": "nonpayable",
      "type": "function"
    },
    {
      "constant": true,
      "inputs": [
        {
          "internalType": "address",
          "name": "",
          "type": "address"
        },
        {
          "internalType": "address",
          "name": "",
          "type": "address"
        }
      ],
      "name": "allowance",
      "outputs": [
        {
          "internalType": "uint256",
          "name": "",
          "type": "uint256"
        }
      ],
      "payable": false,
      "stateMutability": "view",
      "type": "function"
    },
    {
      "constant": false,
      "inputs": [
        {
          "internalType": "address",
          "name": "spender",
          "type": "address"
        },
        {
          "internalType": "uint256",
          "name": "value",
          "type": "uint256"
        }
      ],
      "name": "approve",
      "outputs": [
        {
          "internalType": "bool",
          "name": "",
          "type": "bool"
        }
      ],
      "payable": false,
      "stateMutability": "nonpayable",
      "type": "function"
    },
    {
      "constant": true,
      "inputs": [
        {
          "internalType": "address",
          "name": "",
          "type": "address"
        }
      ],
      "name": "balanceOf",
      "outputs": [
        {
          "internalType": "uint256",
          "name": "",
          "type": "uint256"
        }
      ],
      "payable": false,
      "stateMutability": "view",
      "type": "function"
    },
    {
      "constant": true,
      "inputs": [],
      "name": "borrowable0",
      "outputs": [
        {
          "internalType": "address",
          "name": "",
          "type": "address"
        }
      ],
      "payable": false,
      "stateMutability": "view",
      "type": "function"
    },
    {
      "constant": true,
      "inputs": [],
      "name": "borrowable1",
      "outputs": [
        {
          "internalType": "address",
          "name": "",
          "type": "address"
        }
      ],
      "payable": false,
      "stateMutability": "view",
      "type": "function"
    },
    {
      "constant": true,
      "inputs": [],
      "name": "decimals",
      "outputs": [
        {
          "internalType": "uint8",
          "name": "",
          "type": "uint8"
        }
      ],
      "payable": false,
      "stateMutability": "view",
      "type": "function"
    },
    {
      "constant": true,
      "inputs": [],
      "name": "factory",
      "outputs": [
        {
          "internalType": "address",
          "name": "",
          "type": "address"
        }
      ],
      "payable": false,
      "stateMutability": "view",
      "type": "function"
    },
    {
      "constant": false,
      "inputs": [
        {
          "internalType": "address",
          "name": "redeemer",
          "type": "address"
        },
        {
          "internalType": "uint256",
          "name": "redeemAmount",
          "type": "uint256"
        },
        {
          "internalType": "bytes",
          "name": "data",
          "type": "bytes"
        }
      ],
      "name": "flashRedeem",
      "outputs": [],
      "payable": false,
      "stateMutability": "nonpayable",
      "type": "function"
    },
    {
      "constant": true,
      "inputs": [],
      "name": "liquidationIncentive",
      "outputs": [
        {
          "internalType": "uint256",
          "name": "",
          "type": "uint256"
        }
      ],
      "payable": false,
      "stateMutability": "view",
      "type": "function"
    },
    {
      "constant": true,
      "inputs": [
        {
          "internalType": "address",
          "name": "",
          "type": "address"
        },
        {
          "internalType": "address",
          "name": "",
          "type": "address"
        }
      ],
      "name": "maxBorrowable",
      "outputs": [
        {
          "internalType": "uint256",
          "name": "",
          "type": "uint256"
        }
      ],
      "payable": false,
      "stateMutability": "view",
      "type": "function"
    },
    {
      "constant": false,
      "inputs": [
        {
          "internalType": "address",
          "name": "minter",
          "type": "address"
        }
      ],
      "name": "mint",
      "outputs": [
        {
          "internalType": "uint256",
          "name": "mintTokens",
          "type": "uint256"
        }
      ],
      "payable": false,
      "stateMutability": "nonpayable",
      "type": "function"
    },
    {
      "constant": true,
      "inputs": [],
      "name": "name",
      "outputs": [
        {
          "internalType": "string",
          "name": "",
          "type": "string"
        }
      ],
      "payable": false,
      "stateMutability": "view",
      "type": "function"
    },
    {
      "constant": true,
      "inputs": [
        {
          "internalType": "address",
          "name": "",
          "type": "address"
        }
      ],
      "name": "nonces",
      "outputs": [
        {
          "internalType": "uint256",
          "name": "",
          "type": "uint256"
        }
      ],
      "payable": false,
      "stateMutability": "view",
      "type": "function"
    },
    {
      "constant": false,
      "inputs": [
        {
          "internalType": "address",
          "name": "owner",
          "type": "address"
        },
        {
          "internalType": "address",
          "name": "spender",
          "type": "address"
        },
        {
          "internalType": "uint256",
          "name": "value",
          "type": "uint256"
        },
        {
          "internalType": "uint256",
          "name": "deadline",
          "type": "uint256"
        },
        {
          "internalType": "uint8",
          "name": "v",
          "type": "uint8"
        },
        {
          "internalType": "bytes32",
          "name": "r",
          "type": "bytes32"
        },
        {
          "internalType": "bytes32",
          "name": "s",
          "type": "bytes32"
        }
      ],
      "name": "permit",
      "outputs": [],
      "payable": false,
      "stateMutability": "nonpayable",
      "type": "function"
    },
    {
      "constant": false,
      "inputs": [
        {
          "internalType": "address",
          "name": "redeemer",
          "type": "address"
        }
      ],
      "name": "redeem",
      "outputs": [
        {
          "internalType": "uint256",
          "name": "redeemAmount",
          "type": "uint256"
        }
      ],
      "payable": false,
      "stateMutability": "nonpayable",
      "type": "function"
    },
    {
      "constant": true,
      "inputs": [],
      "name": "safetyMarginSqrt",
      "outputs": [
        {
          "internalType": "uint256",
          "name": "",
          "type": "uint256"
        }
      ],
      "payable": false,
      "stateMutability": "view",
      "type": "function"
    },
    {
      "constant": false,
      "inputs": [
        {
          "internalType": "address",
          "name": "liquidator",
          "type": "address"
        },
        {
          "internalType": "address",
          "name": "borrower",
          "type": "address"
        },
        {
          "internalType": "uint256",
          "name": "repayAmount",
          "type": "uint256"
        }
      ],
      "name": "seize",
      "outputs": [
        {
          "internalType": "uint256",
          "name": "seizeTokens",
          "type": "uint256"
        }
      ],
      "payable": false,
      "stateMutability": "nonpayable",
      "type": "function"
    },
    {
      "constant": true,
      "inputs": [],
      "name": "simpleUniswapOracle",
      "outputs": [
        {
          "internalType": "address",
          "name": "",
          "type": "address"
        }
      ],
      "payable": false,
      "stateMutability": "view",
      "type": "function"
    },
    {
      "constant": false,
      "inputs": [
        {
          "internalType": "address",
          "name": "to",
          "type": "address"
        }
      ],
      "name": "skim",
      "outputs": [],
      "payable": false,
      "stateMutability": "nonpayable",
      "type": "function"
    },
    {
      "constant": true,
      "inputs": [],
      "name": "symbol",
      "outputs": [
        {
          "internalType": "string",
          "name": "",
          "type": "string"
        }
      ],
      "payable": false,
      "stateMutability": "view",
      "type": "function"
    },
    {
      "constant": false,
      "inputs": [],
      "name": "sync",
      "outputs": [],
      "payable": false,
      "stateMutability": "nonpayable",
      "type": "function"
    },
    {
      "constant": false,
      "inputs": [
        {
          "internalType": "address",
          "name": "from",
          "type": "address"
        },
        {
          "internalType": "uint256",
          "name": "value",
          "type": "uint256"
        }
      ],
      "name": "tokensUnlocked",
      "outputs": [
        {
          "internalType": "bool",
          "name": "",
          "type": "bool"
        }
      ],
      "payable": false,
      "stateMutability": "nonpayable",
      "type": "function"
    },
    {
      "constant": true,
      "inputs": [],
      "name": "totalBalance",
      "outputs": [
        {
          "internalType": "uint256",
          "name": "",
          "type": "uint256"
        }
      ],
      "payable": false,
      "stateMutability": "view",
      "type": "function"
    },
    {
      "constant": true,
      "inputs": [],
      "name": "totalSupply",
      "outputs": [
        {
          "internalType": "uint256",
          "name": "",
          "type": "uint256"
        }
      ],
      "payable": false,
      "stateMutability": "view",
      "type": "function"
    },
    {
      "constant": false,
      "inputs": [
        {
          "internalType": "address",
          "name": "to",
          "type": "address"
        },
        {
          "internalType": "uint256",
          "name": "value",
          "type": "uint256"
        }
      ],
      "name": "transfer",
      "outputs": [
        {
          "internalType": "bool",
          "name": "",
          "type": "bool"
        }
      ],
      "payable": false,
      "stateMutability": "nonpayable",
      "type": "function"
    },
    {
      "constant": false,
      "inputs": [
        {
          "internalType": "address",
          "name": "from",
          "type": "address"
        },
        {
          "internalType": "address",
          "name": "to",
          "type": "address"
        },
        {
          "internalType": "uint256",
          "name": "value",
          "type": "uint256"
        }
      ],
      "name": "transferFrom",
      "outputs": [
        {
          "internalType": "bool",
          "name": "",
          "type": "bool"
        }
      ],
      "payable": false,
      "stateMutability": "nonpayable",
      "type": "function"
    },
    {
      "constant": true,
      "inputs": [],
      "name": "underlying",
      "outputs": [
        {
          "internalType": "address",
          "name": "",
          "type": "address"
        }
      ],
      "payable": false,
      "stateMutability": "view",
      "type": "function"
    },
    {
      "constant": true,
      "inputs": [],
      "name": "useMockCanBorrow",
      "outputs": [
        {
          "internalType": "bool",
          "name": "",
          "type": "bool"
        }
      ],
      "payable": false,
      "stateMutability": "view",
      "type": "function"
    },
    {
      "constant": true,
      "inputs": [],
      "name": "useMockExchangeRate",
      "outputs": [
        {
          "internalType": "bool",
          "name": "",
          "type": "bool"
        }
      ],
      "payable": false,
      "stateMutability": "view",
      "type": "function"
    },
    {
      "constant": true,
      "inputs": [],
      "name": "useMockPrices",
      "outputs": [
        {
          "internalType": "bool",
          "name": "",
          "type": "bool"
        }
      ],
      "payable": false,
      "stateMutability": "view",
      "type": "function"
    },
    {
      "constant": true,
      "inputs": [],
      "name": "useMockaAccountLiquidity",
      "outputs": [
        {
          "internalType": "bool",
          "name": "",
          "type": "bool"
        }
      ],
      "payable": false,
      "stateMutability": "view",
      "type": "function"
    },
    {
      "constant": false,
      "inputs": [
        {
          "internalType": "uint256",
          "name": "amountCollateral",
          "type": "uint256"
        },
        {
          "internalType": "uint256",
          "name": "amount0",
          "type": "uint256"
        },
        {
          "internalType": "uint256",
          "name": "amount1",
          "type": "uint256"
        }
      ],
      "name": "calculateLiquidity",
      "outputs": [
        {
          "internalType": "uint256",
          "name": "liquidity",
          "type": "uint256"
        },
        {
          "internalType": "uint256",
          "name": "shortfall",
          "type": "uint256"
        }
      ],
      "payable": false,
      "stateMutability": "nonpayable",
      "type": "function"
    },
    {
      "constant": false,
      "inputs": [
        {
          "internalType": "address",
          "name": "_underlying",
          "type": "address"
        }
      ],
      "name": "setUnderlyingHarness",
      "outputs": [],
      "payable": false,
      "stateMutability": "nonpayable",
      "type": "function"
    },
    {
      "constant": false,
      "inputs": [
        {
          "internalType": "address",
          "name": "_factory",
          "type": "address"
        }
      ],
      "name": "setFactoryHarness",
      "outputs": [],
      "payable": false,
      "stateMutability": "nonpayable",
      "type": "function"
    },
    {
      "constant": false,
      "inputs": [
        {
          "internalType": "address",
          "name": "_borrowable0",
          "type": "address"
        }
      ],
      "name": "setBorrowable0Harness",
      "outputs": [],
      "payable": false,
      "stateMutability": "nonpayable",
      "type": "function"
    },
    {
      "constant": false,
      "inputs": [
        {
          "internalType": "address",
          "name": "_borrowable1",
          "type": "address"
        }
      ],
      "name": "setBorrowable1Harness",
      "outputs": [],
      "payable": false,
      "stateMutability": "nonpayable",
      "type": "function"
    },
    {
      "constant": false,
      "inputs": [
        {
          "internalType": "address",
          "name": "account",
          "type": "address"
        },
        {
          "internalType": "uint256",
          "name": "balance",
          "type": "uint256"
        }
      ],
      "name": "setBalanceHarness",
      "outputs": [],
      "payable": false,
      "stateMutability": "nonpayable",
      "type": "function"
    },
    {
      "constant": false,
      "inputs": [],
      "name": "getPrices",
      "outputs": [
        {
          "internalType": "uint256",
          "name": "price0",
          "type": "uint256"
        },
        {
          "internalType": "uint256",
          "name": "price1",
          "type": "uint256"
        }
      ],
      "payable": false,
      "stateMutability": "nonpayable",
      "type": "function"
    },
    {
      "constant": false,
      "inputs": [
        {
          "internalType": "uint256",
          "name": "price0",
          "type": "uint256"
        },
        {
          "internalType": "uint256",
          "name": "price1",
          "type": "uint256"
        }
      ],
      "name": "setPricesHarness",
      "outputs": [],
      "payable": false,
      "stateMutability": "nonpayable",
      "type": "function"
    },
    {
      "constant": false,
      "inputs": [
        {
          "internalType": "address",
          "name": "_simpleUniswapOracle",
          "type": "address"
        }
      ],
      "name": "setPriceOracle",
      "outputs": [],
      "payable": false,
      "stateMutability": "nonpayable",
      "type": "function"
    },
    {
      "constant": false,
      "inputs": [],
      "name": "exchangeRate",
      "outputs": [
        {
          "internalType": "uint256",
          "name": "",
          "type": "uint256"
        }
      ],
      "payable": false,
      "stateMutability": "nonpayable",
      "type": "function"
    },
    {
      "constant": false,
      "inputs": [
        {
          "internalType": "uint256",
          "name": "__exchangeRate",
          "type": "uint256"
        }
      ],
      "name": "setExchangeRateHarness",
      "outputs": [],
      "payable": false,
      "stateMutability": "nonpayable",
      "type": "function"
    },
    {
      "constant": false,
      "inputs": [
        {
          "internalType": "address",
          "name": "borrower",
          "type": "address"
        }
      ],
      "name": "accountLiquidity",
      "outputs": [
        {
          "internalType": "uint256",
          "name": "liquidity",
          "type": "uint256"
        },
        {
          "internalType": "uint256",
          "name": "shortfall",
          "type": "uint256"
        }
      ],
      "payable": false,
      "stateMutability": "nonpayable",
      "type": "function"
    },
    {
      "constant": false,
      "inputs": [
        {
          "internalType": "address",
          "name": "borrower",
          "type": "address"
        },
        {
          "internalType": "uint256",
          "name": "liquidity",
          "type": "uint256"
        },
        {
          "internalType": "uint256",
          "name": "shortfall",
          "type": "uint256"
        }
      ],
      "name": "setAccountLiquidityHarness",
      "outputs": [],
      "payable": false,
      "stateMutability": "nonpayable",
      "type": "function"
    },
    {
      "constant": false,
      "inputs": [
        {
          "internalType": "address",
          "name": "borrower",
          "type": "address"
        },
        {
          "internalType": "address",
          "name": "borrowable",
          "type": "address"
        },
        {
          "internalType": "uint256",
          "name": "amount",
          "type": "uint256"
        }
      ],
      "name": "canBorrow",
      "outputs": [
        {
          "internalType": "bool",
          "name": "",
          "type": "bool"
        }
      ],
      "payable": false,
      "stateMutability": "nonpayable",
      "type": "function"
    },
    {
      "constant": false,
      "inputs": [
        {
          "internalType": "address",
          "name": "borrower",
          "type": "address"
        },
        {
          "internalType": "address",
          "name": "borrowable",
          "type": "address"
        },
        {
          "internalType": "uint256",
          "name": "maxAmount",
          "type": "uint256"
        }
      ],
      "name": "setMaxBorrowable",
      "outputs": [],
      "payable": false,
      "stateMutability": "nonpayable",
      "type": "function"
    }
  ],
  "bytecode": "0x60806040526012600260006101000a81548160ff021916908360ff1602179055506001600b60006101000a81548160ff0219169083151502179055506715f155637eba0c00600e55670e6ed27d66680000600f55615a4b806100626000396000f3fe608060405234801561001057600080fd5b50600436106103c55760003560e01c806395a2251f116101ff578063bd9a548b1161011a578063d7b9e056116100ad578063f0a053951161007c578063f0a0539514611492578063f3fc0db91461150a578063f638f5461461154e578063fff6cae9146115a6576103c5565b8063d7b9e0561461133e578063daf888181461138c578063dd62ed3e146113d6578063e5f8befd1461144e576103c5565b8063ca936d44116100e9578063ca936d441461122d578063d490e7e01461124f578063d505accf1461126d578063d57509e714611306576103c5565b8063bd9a548b14611072578063bf17b4de14611097578063c45a0155146110b5578063c548e3c5146110ff576103c5565b8063afc8276c11610192578063ba9a7a5611610161578063ba9a7a5614610fc4578063bb6ff38614610fe2578063bc25cf7714611010578063bc9bd12a14611054576103c5565b8063afc8276c14610e98578063b2a02ff114610eb6578063b64430c914610f38578063b8f65dba14610fa6576103c5565b80639b4987fb116101ce5780639b4987fb14610dae578063a9059cbb14610df2578063ad210a5314610e58578063ad7a672f14610e7a576103c5565b806395a2251f14610c1f57806395d89b4114610c775780639aaa897214610cfa5780639aac2c5314610d28576103c5565b80633ba0b9a9116102ef5780636a6278421161028257806370a082311161025157806370a0823114610b075780637c6674b514610b5f5780637ecebe0014610ba95780638c765e9414610c01576103c5565b80636a6278421461098c5780636e01be10146109e45780636f13cb8314610a4a5780636f307dc314610abd576103c5565b8063536b6b1c116102be578063536b6b1c1461086f5780635a0f03c6146108b35780635f760d871461091257806367ce50c014610934576103c5565b80633ba0b9a9146107d55780634a5d316c146107f35780634fd42e17146107fd578063530e784f1461082b576103c5565b806319f3400d1161036757806330adf81f1161033657806330adf81f14610757578063313ce56714610775578063356c571f146107995780633644e515146107b7576103c5565b806319f3400d146105c25780631f5393641461066557806323b872dd146106875780632fa5ae1b1461070d576103c5565b80630bfc1ac8116103a35780630bfc1ac8146105105780630fb60fef1461052e57806318160ddd1461054c578063199067731461056a576103c5565b806306fdde03146103ca578063087fe3781461044d578063095ea7b3146104aa575b600080fd5b6103d26115b0565b6040518080602001828103825283818151815260200191508051906020019080838360005b838110156104125780820151818401526020810190506103f7565b50505050905090810190601f16801561043f5780820380516001836020036101000a031916815260200191505b509250505060405180910390f35b61048d6004803603606081101561046357600080fd5b8101908080359060200190929190803590602001909291908035906020019092919050505061164e565b604051808381526020018281526020019250505060405180910390f35b6104f6600480360360408110156104c057600080fd5b81019080803573ffffffffffffffffffffffffffffffffffffffff16906020019092919080359060200190929190505050611668565b604051808215151515815260200191505060405180910390f35b61051861167f565b6040518082815260200191505060405180910390f35b610536611685565b6040518082815260200191505060405180910390f35b610554611691565b6040518082815260200191505060405180910390f35b6105ac6004803603602081101561058057600080fd5b81019080803573ffffffffffffffffffffffffffffffffffffffff169060200190929190505050611697565b6040518082815260200191505060405180910390f35b610663600480360360608110156105d857600080fd5b81019080803573ffffffffffffffffffffffffffffffffffffffff169060200190929190803590602001909291908035906020019064010000000081111561061f57600080fd5b82018360208201111561063157600080fd5b8035906020019184600183028401116401000000008311171561065357600080fd5b90919293919293905050506116af565b005b61066d611a6c565b604051808215151515815260200191505060405180910390f35b6106f36004803603606081101561069d57600080fd5b81019080803573ffffffffffffffffffffffffffffffffffffffff169060200190929190803573ffffffffffffffffffffffffffffffffffffffff16906020019092919080359060200190929190505050611a7f565b604051808215151515815260200191505060405180910390f35b610715611c81565b604051808273ffffffffffffffffffffffffffffffffffffffff1673ffffffffffffffffffffffffffffffffffffffff16815260200191505060405180910390f35b61075f611ca7565b6040518082815260200191505060405180910390f35b61077d611cce565b604051808260ff1660ff16815260200191505060405180910390f35b6107a1611ce1565b6040518082815260200191505060405180910390f35b6107bf611ce7565b6040518082815260200191505060405180910390f35b6107dd611ced565b6040518082815260200191505060405180910390f35b6107fb611d1c565b005b6108296004803603602081101561081357600080fd5b8101908080359060200190929190505050611e23565b005b61086d6004803603602081101561084157600080fd5b81019080803573ffffffffffffffffffffffffffffffffffffffff169060200190929190505050611f37565b005b6108b16004803603602081101561088557600080fd5b81019080803573ffffffffffffffffffffffffffffffffffffffff169060200190929190505050611f7b565b005b6108f5600480360360208110156108c957600080fd5b81019080803573ffffffffffffffffffffffffffffffffffffffff169060200190929190505050611fbf565b604051808381526020018281526020019250505060405180910390f35b61091a612073565b604051808215151515815260200191505060405180910390f35b6109766004803603602081101561094a57600080fd5b81019080803573ffffffffffffffffffffffffffffffffffffffff169060200190929190505050612086565b6040518082815260200191505060405180910390f35b6109ce600480360360208110156109a257600080fd5b81019080803573ffffffffffffffffffffffffffffffffffffffff16906020019092919050505061209e565b6040518082815260200191505060405180910390f35b610a30600480360360408110156109fa57600080fd5b81019080803573ffffffffffffffffffffffffffffffffffffffff169060200190929190803590602001909291905050506123b1565b604051808215151515815260200191505060405180910390f35b610aa060048036036060811015610a6057600080fd5b81019080803573ffffffffffffffffffffffffffffffffffffffff1690602001909291908035906020019092919080359060200190929190505050612626565b604051808381526020018281526020019250505060405180910390f35b610ac56128c2565b604051808273ffffffffffffffffffffffffffffffffffffffff1673ffffffffffffffffffffffffffffffffffffffff16815260200191505060405180910390f35b610b4960048036036020811015610b1d57600080fd5b81019080803573ffffffffffffffffffffffffffffffffffffffff1690602001909291905050506128e8565b6040518082815260200191505060405180910390f35b610b67612900565b604051808273ffffffffffffffffffffffffffffffffffffffff1673ffffffffffffffffffffffffffffffffffffffff16815260200191505060405180910390f35b610beb60048036036020811015610bbf57600080fd5b81019080803573ffffffffffffffffffffffffffffffffffffffff169060200190929190505050612926565b6040518082815260200191505060405180910390f35b610c0961293e565b6040518082815260200191505060405180910390f35b610c6160048036036020811015610c3557600080fd5b81019080803573ffffffffffffffffffffffffffffffffffffffff169060200190929190505050612944565b6040518082815260200191505060405180910390f35b610c7f612bf5565b6040518080602001828103825283818151815260200191508051906020019080838360005b83811015610cbf578082015181840152602081019050610ca4565b50505050905090810190601f168015610cec5780820380516001836020036101000a031916815260200191505b509250505060405180910390f35b610d2660048036036020811015610d1057600080fd5b8101908080359060200190929190505050612c93565b005b610d9460048036036060811015610d3e57600080fd5b81019080803573ffffffffffffffffffffffffffffffffffffffff169060200190929190803573ffffffffffffffffffffffffffffffffffffffff16906020019092919080359060200190929190505050612cb8565b604051808215151515815260200191505060405180910390f35b610df060048036036020811015610dc457600080fd5b81019080803573ffffffffffffffffffffffffffffffffffffffff169060200190929190505050612d6b565b005b610e3e60048036036040811015610e0857600080fd5b81019080803573ffffffffffffffffffffffffffffffffffffffff16906020019092919080359060200190929190505050612daf565b604051808215151515815260200191505060405180910390f35b610e60612dc6565b604051808215151515815260200191505060405180910390f35b610e82612dd9565b6040518082815260200191505060405180910390f35b610ea0612ddf565b6040518082815260200191505060405180910390f35b610f2260048036036060811015610ecc57600080fd5b81019080803573ffffffffffffffffffffffffffffffffffffffff169060200190929190803573ffffffffffffffffffffffffffffffffffffffff16906020019092919080359060200190929190505050612deb565b6040518082815260200191505060405180910390f35b610fa460048036036060811015610f4e57600080fd5b81019080803573ffffffffffffffffffffffffffffffffffffffff169060200190929190803573ffffffffffffffffffffffffffffffffffffffff16906020019092919080359060200190929190505050613230565b005b610fae6132d1565b6040518082815260200191505060405180910390f35b610fcc6132d7565b6040518082815260200191505060405180910390f35b61100e60048036036020811015610ff857600080fd5b81019080803590602001909291905050506132dd565b005b6110526004803603602081101561102657600080fd5b81019080803573ffffffffffffffffffffffffffffffffffffffff1690602001909291905050506133f1565b005b61105c6135a3565b6040518082815260200191505060405180910390f35b61107a6135af565b604051808381526020018281526020019250505060405180910390f35b61109f6135e7565b6040518082815260200191505060405180910390f35b6110bd6135ed565b604051808273ffffffffffffffffffffffffffffffffffffffff1673ffffffffffffffffffffffffffffffffffffffff16815260200191505060405180910390f35b61122b600480360360a081101561111557600080fd5b810190808035906020019064010000000081111561113257600080fd5b82018360208201111561114457600080fd5b8035906020019184600183028401116401000000008311171561116657600080fd5b90919293919293908035906020019064010000000081111561118757600080fd5b82018360208201111561119957600080fd5b803590602001918460018302840111640100000000831117156111bb57600080fd5b9091929391929390803573ffffffffffffffffffffffffffffffffffffffff169060200190929190803573ffffffffffffffffffffffffffffffffffffffff169060200190929190803573ffffffffffffffffffffffffffffffffffffffff169060200190929190505050613613565b005b611235613917565b604051808215151515815260200191505060405180910390f35b61125761392a565b6040518082815260200191505060405180910390f35b611304600480360360e081101561128357600080fd5b81019080803573ffffffffffffffffffffffffffffffffffffffff169060200190929190803573ffffffffffffffffffffffffffffffffffffffff1690602001909291908035906020019092919080359060200190929190803560ff1690602001909291908035906020019092919080359060200190929190505050613936565b005b61133c6004803603604081101561131c57600080fd5b81019080803590602001909291908035906020019092919050505061397d565b005b61138a6004803603604081101561135457600080fd5b81019080803573ffffffffffffffffffffffffffffffffffffffff169060200190929190803590602001909291905050506139aa565b005b6113946139f2565b604051808273ffffffffffffffffffffffffffffffffffffffff1673ffffffffffffffffffffffffffffffffffffffff16815260200191505060405180910390f35b611438600480360360408110156113ec57600080fd5b81019080803573ffffffffffffffffffffffffffffffffffffffff169060200190929190803573ffffffffffffffffffffffffffffffffffffffff169060200190929190505050613a18565b6040518082815260200191505060405180910390f35b6114906004803603602081101561146457600080fd5b81019080803573ffffffffffffffffffffffffffffffffffffffff169060200190929190505050613a3d565b005b6114f4600480360360408110156114a857600080fd5b81019080803573ffffffffffffffffffffffffffffffffffffffff169060200190929190803573ffffffffffffffffffffffffffffffffffffffff169060200190929190505050613a81565b6040518082815260200191505060405180910390f35b61154c6004803603602081101561152057600080fd5b81019080803573ffffffffffffffffffffffffffffffffffffffff169060200190929190505050613aa6565b005b6115a46004803603606081101561156457600080fd5b81019080803573ffffffffffffffffffffffffffffffffffffffff1690602001909291908035906020019092919080359060200190929190505050613aea565b005b6115ae613b92565b005b60008054600181600116156101000203166002900480601f0160208091040260200160405190810160405280929190818152602001828054600181600116156101000203166002900480156116465780601f1061161b57610100808354040283529160200191611646565b820191906000526020600020905b81548152906001019060200180831161162957829003601f168201915b505050505081565b60008061165c858585613c54565b91509150935093915050565b6000611675338484613dbe565b6001905092915050565b60125481565b6710ff2af864d4fc0081565b60035481565b60176020528060005260406000206000915090505481565b600b60009054906101000a900460ff16611731576040517f08c379a00000000000000000000000000000000000000000000000000000000081526004018080602001828103825260138152602001807f496d7065726d61783a205245454e54455245440000000000000000000000000081525060200191505060405180910390fd5b6000600b60006101000a81548160ff021916908315150217905550600a548311156117c4576040517f08c379a000000000000000000000000000000000000000000000000000000000815260040180806020018281038252601b8152602001807f496d7065726d61783a20494e53554646494349454e545f43415348000000000081525060200191505060405180910390fd5b6117ce8484613ea9565b60008282905011156118e2578373ffffffffffffffffffffffffffffffffffffffff166333b71f8533868686866040518663ffffffff1660e01b8152600401808673ffffffffffffffffffffffffffffffffffffffff1673ffffffffffffffffffffffffffffffffffffffff1681526020018573ffffffffffffffffffffffffffffffffffffffff1673ffffffffffffffffffffffffffffffffffffffff168152602001848152602001806020018281038252848482818152602001925080828437600081840152601f19601f8201169050808301925050509650505050505050600060405180830381600087803b1580156118c957600080fd5b505af11580156118dd573d6000803e3d6000fd5b505050505b6000600460003073ffffffffffffffffffffffffffffffffffffffff1673ffffffffffffffffffffffffffffffffffffffff168152602001908152602001600020549050600061196f6001611961611938611ced565b611953670de0b6b3a76400008a61411790919063ffffffff16565b61419d90919063ffffffff16565b6141e790919063ffffffff16565b9050808210156119ca576040517f08c379a000000000000000000000000000000000000000000000000000000000815260040180806020018281038252602481526020018061595f6024913960400191505060405180910390fd5b6119d4308361426f565b8573ffffffffffffffffffffffffffffffffffffffff163373ffffffffffffffffffffffffffffffffffffffff167f3f693fff038bb8a046aa76d9516190ac7444f7d69cf952c4cbdc086fdef2d6fc8785604051808381526020018281526020019250505060405180910390a35050611a4b614389565b6001600b60006101000a81548160ff02191690831515021790555050505050565b601360009054906101000a900460ff1681565b60007fffffffffffffffffffffffffffffffffffffffffffffffffffffffffffffffff600560008673ffffffffffffffffffffffffffffffffffffffff1673ffffffffffffffffffffffffffffffffffffffff16815260200190815260200160002060003373ffffffffffffffffffffffffffffffffffffffff1673ffffffffffffffffffffffffffffffffffffffff1681526020019081526020016000205414611c6b57611bea826040518060400160405280601e81526020017f496d7065726d61783a205452414e534645525f4e4f545f414c4c4f5745440000815250600560008873ffffffffffffffffffffffffffffffffffffffff1673ffffffffffffffffffffffffffffffffffffffff16815260200190815260200160002060003373ffffffffffffffffffffffffffffffffffffffff1673ffffffffffffffffffffffffffffffffffffffff168152602001908152602001600020546144a49092919063ffffffff16565b600560008673ffffffffffffffffffffffffffffffffffffffff1673ffffffffffffffffffffffffffffffffffffffff16815260200190815260200160002060003373ffffffffffffffffffffffffffffffffffffffff1673ffffffffffffffffffffffffffffffffffffffff168152602001908152602001600020819055505b611c76848484614564565b600190509392505050565b600b60019054906101000a900473ffffffffffffffffffffffffffffffffffffffff1681565b7f6e71edae12b1b97f4d1f60370fef10105fa2faae0126114a169c64845d6126c960001b81565b600260009054906101000a900460ff1681565b600e5481565b60065481565b6000601360009054906101000a900460ff1615611d0e576014549050611d19565b611d166145f0565b90505b90565b600073ffffffffffffffffffffffffffffffffffffffff16600960009054906101000a900473ffffffffffffffffffffffffffffffffffffffff1673ffffffffffffffffffffffffffffffffffffffff1614611de0576040517f08c379a000000000000000000000000000000000000000000000000000000000815260040180806020018281038252601d8152602001807f496d7065726d61783a20464143544f52595f414c52454144595f53455400000081525060200191505060405180910390fd5b33600960006101000a81548173ffffffffffffffffffffffffffffffffffffffff021916908373ffffffffffffffffffffffffffffffffffffffff160217905550565b600b60009054906101000a900460ff16611ea5576040517f08c379a00000000000000000000000000000000000000000000000000000000081526004018080602001828103825260138152602001807f496d7065726d61783a205245454e54455245440000000000000000000000000081525060200191505060405180910390fd5b6000600b60006101000a81548160ff021916908315150217905550611edb81670e043da617250000670e92596fd629000061465a565b80600f819055507f8a9bb9067f9ecb13a322b548e6df3dd1bd10a54698834dac43ed8f0e765bf94d816040518082815260200191505060405180910390a16001600b60006101000a81548160ff02191690831515021790555050565b80600d60006101000a81548173ffffffffffffffffffffffffffffffffffffffff021916908373ffffffffffffffffffffffffffffffffffffffff16021790555050565b80600b60016101000a81548173ffffffffffffffffffffffffffffffffffffffff021916908373ffffffffffffffffffffffffffffffffffffffff16021790555050565b600080601560009054906101000a900460ff161561206057601660008473ffffffffffffffffffffffffffffffffffffffff1673ffffffffffffffffffffffffffffffffffffffff16815260200190815260200160002054601760008573ffffffffffffffffffffffffffffffffffffffff1673ffffffffffffffffffffffffffffffffffffffff168152602001908152602001600020549150915061206e565b61206983614753565b915091505b915091565b601060009054906101000a900460ff1681565b60166020528060005260406000206000915090505481565b6000600b60009054906101000a900460ff16612122576040517f08c379a00000000000000000000000000000000000000000000000000000000081526004018080602001828103825260138152602001807f496d7065726d61783a205245454e54455245440000000000000000000000000081525060200191505060405180910390fd5b6000600b60006101000a81548160ff0219169083151502179055506000600860009054906101000a900473ffffffffffffffffffffffffffffffffffffffff1673ffffffffffffffffffffffffffffffffffffffff166370a08231306040518263ffffffff1660e01b8152600401808273ffffffffffffffffffffffffffffffffffffffff1673ffffffffffffffffffffffffffffffffffffffff16815260200191505060206040518083038186803b1580156121de57600080fd5b505afa1580156121f2573d6000803e3d6000fd5b505050506040513d602081101561220857600080fd5b810190808051906020019092919050505090506000612232600a548361478a90919063ffffffff16565b905061226861223f611ced565b61225a670de0b6b3a76400008461411790919063ffffffff16565b61419d90919063ffffffff16565b92506000600354141561229a5761228a6103e88461478a90919063ffffffff16565b925061229960006103e86147d4565b5b60008311612310576040517f08c379a000000000000000000000000000000000000000000000000000000000815260040180806020018281038252601a8152602001807f496d7065726d61783a204d494e545f414d4f554e545f5a45524f00000000000081525060200191505060405180910390fd5b61231a84846147d4565b8373ffffffffffffffffffffffffffffffffffffffff163373ffffffffffffffffffffffffffffffffffffffff167f2f00e3cdd69a77be7ed215ec7b2a36784dd158f921fca79ac29deffa353fe6ee8386604051808381526020018281526020019250505060405180910390a35050612391614389565b6001600b60006101000a81548160ff021916908315150217905550919050565b600080600460008573ffffffffffffffffffffffffffffffffffffffff1673ffffffffffffffffffffffffffffffffffffffff16815260200190815260200160002054905080831115612408576000915050612620565b600083820390506000612445670de0b6b3a7640000612437612428611ced565b8561411790919063ffffffff16565b61419d90919063ffffffff16565b90506000600b60019054906101000a900473ffffffffffffffffffffffffffffffffffffffff1673ffffffffffffffffffffffffffffffffffffffff16634d73e9ba886040518263ffffffff1660e01b8152600401808273ffffffffffffffffffffffffffffffffffffffff1673ffffffffffffffffffffffffffffffffffffffff16815260200191505060206040518083038186803b1580156124e857600080fd5b505afa1580156124fc573d6000803e3d6000fd5b505050506040513d602081101561251257600080fd5b810190808051906020019092919050505090506000600c60009054906101000a900473ffffffffffffffffffffffffffffffffffffffff1673ffffffffffffffffffffffffffffffffffffffff16634d73e9ba896040518263ffffffff1660e01b8152600401808273ffffffffffffffffffffffffffffffffffffffff1673ffffffffffffffffffffffffffffffffffffffff16815260200191505060206040518083038186803b1580156125c657600080fd5b505afa1580156125da573d6000803e3d6000fd5b505050506040513d60208110156125f057600080fd5b810190808051906020019092919050505090506000612610848484613c54565b9150506000811496505050505050505b92915050565b6000807fffffffffffffffffffffffffffffffffffffffffffffffffffffffffffffffff84141561272e57600b60019054906101000a900473ffffffffffffffffffffffffffffffffffffffff1673ffffffffffffffffffffffffffffffffffffffff16634d73e9ba866040518263ffffffff1660e01b8152600401808273ffffffffffffffffffffffffffffffffffffffff1673ffffffffffffffffffffffffffffffffffffffff16815260200191505060206040518083038186803b1580156126f057600080fd5b505afa158015612704573d6000803e3d6000fd5b505050506040513d602081101561271a57600080fd5b810190808051906020019092919050505093505b7fffffffffffffffffffffffffffffffffffffffffffffffffffffffffffffffff83141561283357600c60009054906101000a900473ffffffffffffffffffffffffffffffffffffffff1673ffffffffffffffffffffffffffffffffffffffff16634d73e9ba866040518263ffffffff1660e01b8152600401808273ffffffffffffffffffffffffffffffffffffffff1673ffffffffffffffffffffffffffffffffffffffff16815260200191505060206040518083038186803b1580156127f557600080fd5b505afa158015612809573d6000803e3d6000fd5b505050506040513d602081101561281f57600080fd5b810190808051906020019092919050505092505b60006128a8670de0b6b3a764000061289a61284c611ced565b600460008b73ffffffffffffffffffffffffffffffffffffffff1673ffffffffffffffffffffffffffffffffffffffff1681526020019081526020016000205461411790919063ffffffff16565b61419d90919063ffffffff16565b90506128b5818686613c54565b9250925050935093915050565b600860009054906101000a900473ffffffffffffffffffffffffffffffffffffffff1681565b60046020528060005260406000206000915090505481565b600d60009054906101000a900473ffffffffffffffffffffffffffffffffffffffff1681565b60076020528060005260406000206000915090505481565b600f5481565b6000600b60009054906101000a900460ff166129c8576040517f08c379a00000000000000000000000000000000000000000000000000000000081526004018080602001828103825260138152602001807f496d7065726d61783a205245454e54455245440000000000000000000000000081525060200191505060405180910390fd5b6000600b60006101000a81548160ff0219169083151502179055506000600460003073ffffffffffffffffffffffffffffffffffffffff1673ffffffffffffffffffffffffffffffffffffffff168152602001908152602001600020549050612a5b670de0b6b3a7640000612a4d612a3e611ced565b8461411790919063ffffffff16565b61419d90919063ffffffff16565b915060008211612ad3576040517f08c379a000000000000000000000000000000000000000000000000000000000815260040180806020018281038252601c8152602001807f496d7065726d61783a2052454445454d5f414d4f554e545f5a45524f0000000081525060200191505060405180910390fd5b600a54821115612b4b576040517f08c379a000000000000000000000000000000000000000000000000000000000815260040180806020018281038252601b8152602001807f496d7065726d61783a20494e53554646494349454e545f43415348000000000081525060200191505060405180910390fd5b612b558383613ea9565b612b5f308261426f565b8273ffffffffffffffffffffffffffffffffffffffff163373ffffffffffffffffffffffffffffffffffffffff167f3f693fff038bb8a046aa76d9516190ac7444f7d69cf952c4cbdc086fdef2d6fc8484604051808381526020018281526020019250505060405180910390a350612bd5614389565b6001600b60006101000a81548160ff021916908315150217905550919050565b60018054600181600116156101000203166002900480601f016020809104026020016040519081016040528092919081815260200182805460018160011615610100020316600290048015612c8b5780601f10612c6057610100808354040283529160200191612c8b565b820191906000526020600020905b815481529060010190602001808311612c6e57829003601f168201915b505050505081565b6001601360006101000a81548160ff0219169083151502179055508060148190555050565b6000601860009054906101000a900460ff1615612d565781601960008673ffffffffffffffffffffffffffffffffffffffff1673ffffffffffffffffffffffffffffffffffffffff16815260200190815260200160002060008573ffffffffffffffffffffffffffffffffffffffff1673ffffffffffffffffffffffffffffffffffffffff1681526020019081526020016000205410159050612d64565b612d618484846148ee565b90505b9392505050565b80600960006101000a81548173ffffffffffffffffffffffffffffffffffffffff021916908373ffffffffffffffffffffffffffffffffffffffff16021790555050565b6000612dbc338484614564565b6001905092915050565b601860009054906101000a900460ff1681565b600a5481565b670e92596fd629000081565b6000600b60019054906101000a900473ffffffffffffffffffffffffffffffffffffffff1673ffffffffffffffffffffffffffffffffffffffff163373ffffffffffffffffffffffffffffffffffffffff161480612e965750600c60009054906101000a900473ffffffffffffffffffffffffffffffffffffffff1673ffffffffffffffffffffffffffffffffffffffff163373ffffffffffffffffffffffffffffffffffffffff16145b612f08576040517f08c379a00000000000000000000000000000000000000000000000000000000081526004018080602001828103825260168152602001807f496d7065726d61783a20554e415554484f52495a45440000000000000000000081525060200191505060405180910390fd5b6000612f1384611fbf565b91505060008111612f8c576040517f08c379a00000000000000000000000000000000000000000000000000000000081526004018080602001828103825260208152602001807f496d7065726d61783a20494e53554646494349454e545f53484f525446414c4c81525060200191505060405180910390fd5b6000600b60019054906101000a900473ffffffffffffffffffffffffffffffffffffffff1673ffffffffffffffffffffffffffffffffffffffff163373ffffffffffffffffffffffffffffffffffffffff161415612ff657612fec6135af565b5080915050613005565b612ffe6135af565b9050809150505b61305f613010611ced565b61305183613043670de0b6b3a7640000613035600f548b61411790919063ffffffff16565b61419d90919063ffffffff16565b61411790919063ffffffff16565b61419d90919063ffffffff16565b92506130ea836040518060400160405280601e81526020017f496d7065726d61783a204c49515549444154494e475f544f4f5f4d5543480000815250600460008973ffffffffffffffffffffffffffffffffffffffff1673ffffffffffffffffffffffffffffffffffffffff168152602001908152602001600020546144a49092919063ffffffff16565b600460008773ffffffffffffffffffffffffffffffffffffffff1673ffffffffffffffffffffffffffffffffffffffff1681526020019081526020016000208190555061317f83600460008973ffffffffffffffffffffffffffffffffffffffff1673ffffffffffffffffffffffffffffffffffffffff168152602001908152602001600020546141e790919063ffffffff16565b600460008873ffffffffffffffffffffffffffffffffffffffff1673ffffffffffffffffffffffffffffffffffffffff168152602001908152602001600020819055508573ffffffffffffffffffffffffffffffffffffffff168573ffffffffffffffffffffffffffffffffffffffff167fddf252ad1be2c89b69c2b068fc378daa952ba7f163c4a11628f55a4df523b3ef856040518082815260200191505060405180910390a350509392505050565b6001601860006101000a81548160ff02191690831515021790555080601960008573ffffffffffffffffffffffffffffffffffffffff1673ffffffffffffffffffffffffffffffffffffffff16815260200190815260200160002060008473ffffffffffffffffffffffffffffffffffffffff1673ffffffffffffffffffffffffffffffffffffffff16815260200190815260200160002081905550505050565b60115481565b6103e881565b600b60009054906101000a900460ff1661335f576040517f08c379a00000000000000000000000000000000000000000000000000000000081526004018080602001828103825260138152602001807f496d7065726d61783a205245454e54455245440000000000000000000000000081525060200191505060405180910390fd5b6000600b60006101000a81548160ff021916908315150217905550613395816710ff2af864d4fc006715f15565d2c5f00061465a565b80600e819055507fdff9a61839be6f6ce5ea77311cc351786a39a9f337c507ff35e7b358fd39c043816040518082815260200191505060405180910390a16001600b60006101000a81548160ff02191690831515021790555050565b600b60009054906101000a900460ff16613473576040517f08c379a00000000000000000000000000000000000000000000000000000000081526004018080602001828103825260138152602001807f496d7065726d61783a205245454e54455245440000000000000000000000000081525060200191505060405180910390fd5b6000600b60006101000a81548160ff02191690831515021790555061358581613580600a54600860009054906101000a900473ffffffffffffffffffffffffffffffffffffffff1673ffffffffffffffffffffffffffffffffffffffff166370a08231306040518263ffffffff1660e01b8152600401808273ffffffffffffffffffffffffffffffffffffffff1673ffffffffffffffffffffffffffffffffffffffff16815260200191505060206040518083038186803b15801561353757600080fd5b505afa15801561354b573d6000803e3d6000fd5b505050506040513d602081101561356157600080fd5b810190808051906020019092919050505061478a90919063ffffffff16565b613ea9565b6001600b60006101000a81548160ff02191690831515021790555050565b670e043da61725000081565b600080601060009054906101000a900460ff16156135d657601154601254915091506135e3565b6135de614af4565b915091505b9091565b60145481565b600960009054906101000a900473ffffffffffffffffffffffffffffffffffffffff1681565b600960009054906101000a900473ffffffffffffffffffffffffffffffffffffffff1673ffffffffffffffffffffffffffffffffffffffff163373ffffffffffffffffffffffffffffffffffffffff16146136d6576040517f08c379a00000000000000000000000000000000000000000000000000000000081526004018080602001828103825260168152602001807f496d7065726d61783a20554e415554484f52495a45440000000000000000000081525060200191505060405180910390fd5b61376887878080601f016020809104026020016040519081016040528093929190818152602001838380828437600081840152601f19601f8201169050808301925050505050505086868080601f016020809104026020016040519081016040528093929190818152602001838380828437600081840152601f19601f82011690508083019250505050505050614fd3565b82600860006101000a81548173ffffffffffffffffffffffffffffffffffffffff021916908373ffffffffffffffffffffffffffffffffffffffff16021790555081600b60016101000a81548173ffffffffffffffffffffffffffffffffffffffff021916908373ffffffffffffffffffffffffffffffffffffffff16021790555080600c60006101000a81548173ffffffffffffffffffffffffffffffffffffffff021916908373ffffffffffffffffffffffffffffffffffffffff160217905550600960009054906101000a900473ffffffffffffffffffffffffffffffffffffffff1673ffffffffffffffffffffffffffffffffffffffff16637c6674b56040518163ffffffff1660e01b815260040160206040518083038186803b15801561389357600080fd5b505afa1580156138a7573d6000803e3d6000fd5b505050506040513d60208110156138bd57600080fd5b8101908080519060200190929190505050600d60006101000a81548173ffffffffffffffffffffffffffffffffffffffff021916908373ffffffffffffffffffffffffffffffffffffffff16021790555050505050505050565b601560009054906101000a900460ff1681565b6715f15565d2c5f00081565b613969878787878787877f6e71edae12b1b97f4d1f60370fef10105fa2faae0126114a169c64845d6126c960001b6150df565b613974878787613dbe565b50505050505050565b6001601060006101000a81548160ff02191690831515021790555081601181905550806012819055505050565b80600460008473ffffffffffffffffffffffffffffffffffffffff1673ffffffffffffffffffffffffffffffffffffffff168152602001908152602001600020819055505050565b600c60009054906101000a900473ffffffffffffffffffffffffffffffffffffffff1681565b6005602052816000526040600020602052806000526040600020600091509150505481565b80600c60006101000a81548173ffffffffffffffffffffffffffffffffffffffff021916908373ffffffffffffffffffffffffffffffffffffffff16021790555050565b6019602052816000526040600020602052806000526040600020600091509150505481565b80600860006101000a81548173ffffffffffffffffffffffffffffffffffffffff021916908373ffffffffffffffffffffffffffffffffffffffff16021790555050565b6001601560006101000a81548160ff02191690831515021790555081601660008573ffffffffffffffffffffffffffffffffffffffff1673ffffffffffffffffffffffffffffffffffffffff1681526020019081526020016000208190555080601760008573ffffffffffffffffffffffffffffffffffffffff1673ffffffffffffffffffffffffffffffffffffffff16815260200190815260200160002081905550505050565b600b60009054906101000a900460ff16613c14576040517f08c379a00000000000000000000000000000000000000000000000000000000081526004018080602001828103825260138152602001807f496d7065726d61783a205245454e54455245440000000000000000000000000081525060200191505060405180910390fd5b6000600b60006101000a81548160ff021916908315150217905550613c37614389565b6001600b60006101000a81548160ff021916908315150217905550565b6000806000600e549050600080613c696135af565b915091506000613c9c670de0b6b3a7640000613c8e858b61411790919063ffffffff16565b61419d90919063ffffffff16565b90506000613ccd670de0b6b3a7640000613cbf858b61411790919063ffffffff16565b61419d90919063ffffffff16565b905080821015613ce257808280925081935050505b613d0f670de0b6b3a7640000613d01878561411790919063ffffffff16565b61419d90919063ffffffff16565b9150613d3e85613d30670de0b6b3a76400008461411790919063ffffffff16565b61419d90919063ffffffff16565b90506000613d83670de0b6b3a7640000613d75600f54613d6786886141e790919063ffffffff16565b61411790919063ffffffff16565b61419d90919063ffffffff16565b9050808b10613da357808b03600080905097509750505050505050613db6565b60008b8203819150975097505050505050505b935093915050565b80600560008573ffffffffffffffffffffffffffffffffffffffff1673ffffffffffffffffffffffffffffffffffffffff16815260200190815260200160002060008473ffffffffffffffffffffffffffffffffffffffff1673ffffffffffffffffffffffffffffffffffffffff168152602001908152602001600020819055508173ffffffffffffffffffffffffffffffffffffffff168373ffffffffffffffffffffffffffffffffffffffff167f8c5be1e5ebec7d5bd14f71427d1e84f3dd0314c0f7b2291e5b200ac8c7c3b925836040518082815260200191505060405180910390a3505050565b60006060600860009054906101000a900473ffffffffffffffffffffffffffffffffffffffff1673ffffffffffffffffffffffffffffffffffffffff166040518060400160405280601981526020017f7472616e7366657228616464726573732c75696e743235362900000000000000815250805190602001208585604051602401808373ffffffffffffffffffffffffffffffffffffffff1673ffffffffffffffffffffffffffffffffffffffff16815260200182815260200192505050604051602081830303815290604052907bffffffffffffffffffffffffffffffffffffffffffffffffffffffff19166020820180517bffffffffffffffffffffffffffffffffffffffffffffffffffffffff83818316178352505050506040518082805190602001908083835b60208310613ff85780518252602082019150602081019050602083039250613fd5565b6001836020036101000a0380198251168184511680821785525050505050509050019150506000604051808303816000865af19150503d806000811461405a576040519150601f19603f3d011682016040523d82523d6000602084013e61405f565b606091505b509150915081801561409f575060008151148061409e575080806020019051602081101561408c57600080fd5b81019080805190602001909291905050505b5b614111576040517f08c379a00000000000000000000000000000000000000000000000000000000081526004018080602001828103825260198152602001807f496d7065726d61783a205452414e534645525f4641494c45440000000000000081525060200191505060405180910390fd5b50505050565b60008083141561412a5760009050614197565b600082840290508284828161413b57fe5b0414614192576040517f08c379a00000000000000000000000000000000000000000000000000000000081526004018080602001828103825260218152602001806159f66021913960400191505060405180910390fd5b809150505b92915050565b60006141df83836040518060400160405280601a81526020017f536166654d6174683a206469766973696f6e206279207a65726f0000000000008152506153f6565b905092915050565b600080828401905083811015614265576040517f08c379a000000000000000000000000000000000000000000000000000000000815260040180806020018281038252601b8152602001807f536166654d6174683a206164646974696f6e206f766572666c6f77000000000081525060200191505060405180910390fd5b8091505092915050565b6142c181600460008573ffffffffffffffffffffffffffffffffffffffff1673ffffffffffffffffffffffffffffffffffffffff1681526020019081526020016000205461478a90919063ffffffff16565b600460008473ffffffffffffffffffffffffffffffffffffffff1673ffffffffffffffffffffffffffffffffffffffff168152602001908152602001600020819055506143198160035461478a90919063ffffffff16565b600381905550600073ffffffffffffffffffffffffffffffffffffffff168273ffffffffffffffffffffffffffffffffffffffff167fddf252ad1be2c89b69c2b068fc378daa952ba7f163c4a11628f55a4df523b3ef836040518082815260200191505060405180910390a35050565b600860009054906101000a900473ffffffffffffffffffffffffffffffffffffffff1673ffffffffffffffffffffffffffffffffffffffff166370a08231306040518263ffffffff1660e01b8152600401808273ffffffffffffffffffffffffffffffffffffffff1673ffffffffffffffffffffffffffffffffffffffff16815260200191505060206040518083038186803b15801561442857600080fd5b505afa15801561443c573d6000803e3d6000fd5b505050506040513d602081101561445257600080fd5b8101908080519060200190929190505050600a819055507f8a0df8ef054fae2c3d2d19a7b322e864870cc9fd3cb07fb9526309c596244bf4600a546040518082815260200191505060405180910390a1565b6000838311158290614551576040517f08c379a00000000000000000000000000000000000000000000000000000000081526004018080602001828103825283818151815260200191508051906020019080838360005b838110156145165780820151818401526020810190506144fb565b50505050905090810190601f1680156145435780820380516001836020036101000a031916815260200191505b509250505060405180910390fd5b5060008385039050809150509392505050565b61456e83826123b1565b6145e0576040517f08c379a00000000000000000000000000000000000000000000000000000000081526004018080602001828103825260208152602001807f496d7065726d61783a20494e53554646494349454e545f4c495155494449545981525060200191505060405180910390fd5b6145eb8383836154bc565b505050565b60008060035490506000600a549050600082148061460e5750600081145b1561462557670de0b6b3a764000092505050614657565b61465282614644670de0b6b3a76400008461411790919063ffffffff16565b61419d90919063ffffffff16565b925050505b90565b614662615687565b818310156146d8576040517f08c379a00000000000000000000000000000000000000000000000000000000081526004018080602001828103825260198152602001807f496d7065726d61783a20494e56414c49445f53455454494e470000000000000081525060200191505060405180910390fd5b8083111561474e576040517f08c379a00000000000000000000000000000000000000000000000000000000081526004018080602001828103825260198152602001807f496d7065726d61783a20494e56414c49445f53455454494e470000000000000081525060200191505060405180910390fd5b505050565b600080614781837fffffffffffffffffffffffffffffffffffffffffffffffffffffffffffffffff80612626565b91509150915091565b60006147cc83836040518060400160405280601f81526020017f536166654d6174683a207375627472616374696f6e20756e646572666c6f77008152506144a4565b905092915050565b6147e9816003546141e790919063ffffffff16565b60038190555061484181600460008573ffffffffffffffffffffffffffffffffffffffff1673ffffffffffffffffffffffffffffffffffffffff168152602001908152602001600020546141e790919063ffffffff16565b600460008473ffffffffffffffffffffffffffffffffffffffff1673ffffffffffffffffffffffffffffffffffffffff168152602001908152602001600020819055508173ffffffffffffffffffffffffffffffffffffffff16600073ffffffffffffffffffffffffffffffffffffffff167fddf252ad1be2c89b69c2b068fc378daa952ba7f163c4a11628f55a4df523b3ef836040518082815260200191505060405180910390a35050565b600080600b60019054906101000a900473ffffffffffffffffffffffffffffffffffffffff1690506000600c60009054906101000a900473ffffffffffffffffffffffffffffffffffffffff1690508173ffffffffffffffffffffffffffffffffffffffff168573ffffffffffffffffffffffffffffffffffffffff1614806149a257508073ffffffffffffffffffffffffffffffffffffffff168573ffffffffffffffffffffffffffffffffffffffff16145b614a14576040517f08c379a000000000000000000000000000000000000000000000000000000000815260040180806020018281038252601c8152602001807f496d7065726d61783a20494e56414c49445f424f52524f5741424c450000000081525060200191505060405180910390fd5b60008273ffffffffffffffffffffffffffffffffffffffff168673ffffffffffffffffffffffffffffffffffffffff1614614a6f577fffffffffffffffffffffffffffffffffffffffffffffffffffffffffffffffff614a71565b845b905060008273ffffffffffffffffffffffffffffffffffffffff168773ffffffffffffffffffffffffffffffffffffffff1614614ace577fffffffffffffffffffffffffffffffffffffffffffffffffffffffffffffffff614ad0565b855b90506000614adf898484612626565b91505060008114955050505050509392505050565b6000806000600d60009054906101000a900473ffffffffffffffffffffffffffffffffffffffff1673ffffffffffffffffffffffffffffffffffffffff1663446a37e0600860009054906101000a900473ffffffffffffffffffffffffffffffffffffffff166040518263ffffffff1660e01b8152600401808273ffffffffffffffffffffffffffffffffffffffff1673ffffffffffffffffffffffffffffffffffffffff1681526020019150506040805180830381600087803b158015614bbb57600080fd5b505af1158015614bcf573d6000803e3d6000fd5b505050506040513d6040811015614be557600080fd5b810190808051906020019092919080519060200190929190505050509050600080600860009054906101000a900473ffffffffffffffffffffffffffffffffffffffff1673ffffffffffffffffffffffffffffffffffffffff16630902f1ac6040518163ffffffff1660e01b815260040160606040518083038186803b158015614c6e57600080fd5b505afa158015614c82573d6000803e3d6000fd5b505050506040513d6060811015614c9857600080fd5b8101908080519060200190929190805190602001909291908051906020019092919050505050915091506000600860009054906101000a900473ffffffffffffffffffffffffffffffffffffffff1673ffffffffffffffffffffffffffffffffffffffff166318160ddd6040518163ffffffff1660e01b815260040160206040518083038186803b158015614d2c57600080fd5b505afa158015614d40573d6000803e3d6000fd5b505050506040513d6020811015614d5657600080fd5b810190808051906020019092919050505090506000614da484614d78856157cc565b7bffffffffffffffffffffffffffffffffffffffffffffffffffffffff166157f790919063ffffffff16565b90506000614e0e827bffffffffffffffffffffffffffffffffffffffffffffffffffffffff16614e00640100000000897bffffffffffffffffffffffffffffffffffffffffffffffffffffffff1661411790919063ffffffff16565b61419d90919063ffffffff16565b90506000614e32614e2d6401000000008461411790919063ffffffff16565b615857565b90506000614e76600288026dffffffffffffffffffffffffffff16614e68670de0b6b3a76400008861411790919063ffffffff16565b61419d90919063ffffffff16565b90506000614eba600288026dffffffffffffffffffffffffffff16614eac670de0b6b3a76400008961411790919063ffffffff16565b61419d90919063ffffffff16565b9050614ee6640100000000614ed8858561411790919063ffffffff16565b61419d90919063ffffffff16565b9a50614f1283614f046401000000008461411790919063ffffffff16565b61419d90919063ffffffff16565b995060648b11614f6d576040517f08c379a00000000000000000000000000000000000000000000000000000000081526004018080602001828103825260218152602001806159836021913960400191505060405180910390fd5b60648a11614fc6576040517f08c379a00000000000000000000000000000000000000000000000000000000081526004018080602001828103825260218152602001806159836021913960400191505060405180910390fd5b5050505050505050509091565b8160009080519060200190614fe99291906158b9565b5080600190805190602001906150009291906158b9565b50600046905060405180806159a4605291396052019050604051809103902083805190602001206040518060400160405280600181526020017f3100000000000000000000000000000000000000000000000000000000000000815250805190602001208330604051602001808681526020018581526020018481526020018381526020018273ffffffffffffffffffffffffffffffffffffffff1673ffffffffffffffffffffffffffffffffffffffff1681526020019550505050505060405160208183030381529060405280519060200120600681905550505050565b42851015615155576040517f08c379a00000000000000000000000000000000000000000000000000000000081526004018080602001828103825260118152602001807f496d7065726d61783a204558504952454400000000000000000000000000000081525060200191505060405180910390fd5b6000600654828a8a8a600760008f73ffffffffffffffffffffffffffffffffffffffff1673ffffffffffffffffffffffffffffffffffffffff1681526020019081526020016000206000815480929190600101919050558b604051602001808781526020018673ffffffffffffffffffffffffffffffffffffffff1673ffffffffffffffffffffffffffffffffffffffff1681526020018573ffffffffffffffffffffffffffffffffffffffff1673ffffffffffffffffffffffffffffffffffffffff16815260200184815260200183815260200182815260200196505050505050506040516020818303038152906040528051906020012060405160200180807f190100000000000000000000000000000000000000000000000000000000000081525060020183815260200182815260200192505050604051602081830303815290604052805190602001209050600060018287878760405160008152602001604052604051808581526020018460ff1660ff1681526020018381526020018281526020019450505050506020604051602081039080840390855afa158015615304573d6000803e3d6000fd5b505050602060405103519050600073ffffffffffffffffffffffffffffffffffffffff168173ffffffffffffffffffffffffffffffffffffffff161415801561537857508973ffffffffffffffffffffffffffffffffffffffff168173ffffffffffffffffffffffffffffffffffffffff16145b6153ea576040517f08c379a000000000000000000000000000000000000000000000000000000000815260040180806020018281038252601b8152602001807f496d7065726d61783a20494e56414c49445f5349474e4154555245000000000081525060200191505060405180910390fd5b50505050505050505050565b600080831182906154a2576040517f08c379a00000000000000000000000000000000000000000000000000000000081526004018080602001828103825283818151815260200191508051906020019080838360005b8381101561546757808201518184015260208101905061544c565b50505050905090810190601f1680156154945780820380516001836020036101000a031916815260200191505b509250505060405180910390fd5b5060008385816154ae57fe5b049050809150509392505050565b615545816040518060400160405280601b81526020017f496d7065726d61783a205452414e534645525f544f4f5f484947480000000000815250600460008773ffffffffffffffffffffffffffffffffffffffff1673ffffffffffffffffffffffffffffffffffffffff168152602001908152602001600020546144a49092919063ffffffff16565b600460008573ffffffffffffffffffffffffffffffffffffffff1673ffffffffffffffffffffffffffffffffffffffff168152602001908152602001600020819055506155da81600460008573ffffffffffffffffffffffffffffffffffffffff1673ffffffffffffffffffffffffffffffffffffffff168152602001908152602001600020546141e790919063ffffffff16565b600460008473ffffffffffffffffffffffffffffffffffffffff1673ffffffffffffffffffffffffffffffffffffffff168152602001908152602001600020819055508173ffffffffffffffffffffffffffffffffffffffff168373ffffffffffffffffffffffffffffffffffffffff167fddf252ad1be2c89b69c2b068fc378daa952ba7f163c4a11628f55a4df523b3ef836040518082815260200191505060405180910390a3505050565b600960009054906101000a900473ffffffffffffffffffffffffffffffffffffffff1673ffffffffffffffffffffffffffffffffffffffff1663f851a4406040518163ffffffff1660e01b815260040160206040518083038186803b1580156156ef57600080fd5b505afa158015615703573d6000803e3d6000fd5b505050506040513d602081101561571957600080fd5b810190808051906020019092919050505073ffffffffffffffffffffffffffffffffffffffff163373ffffffffffffffffffffffffffffffffffffffff16146157ca576040517f08c379a00000000000000000000000000000000000000000000000000000000081526004018080602001828103825260168152602001807f496d7065726d61783a20554e415554484f52495a45440000000000000000000081525060200191505060405180910390fd5b565b60006e010000000000000000000000000000826dffffffffffffffffffffffffffff16029050919050565b6000816dffffffffffffffffffffffffffff167bffffffffffffffffffffffffffffffffffffffffffffffffffffffff16837bffffffffffffffffffffffffffffffffffffffffffffffffffffffff168161584e57fe5b04905092915050565b600060038211156158a657819050600060016002848161587357fe5b040190505b818110156158a05780915060028182858161588f57fe5b04018161589857fe5b049050615878565b506158b4565b600082146158b357600190505b5b919050565b828054600181600116156101000203166002900490600052602060002090601f016020900481019282601f106158fa57805160ff1916838001178555615928565b82800160010185558215615928579182015b8281111561592757825182559160200191906001019061590c565b5b5090506159359190615939565b5090565b61595b91905b8082111561595757600081600090555060010161593f565b5090565b9056fe496d7065726d61783a20494e53554646494349454e545f52454445454d5f544f4b454e53496d7065726d61783a2050524943455f43414c43554c4154494f4e5f4552524f52454950373132446f6d61696e28737472696e67206e616d652c737472696e672076657273696f6e2c75696e7432353620636861696e49642c6164647265737320766572696679696e67436f6e747261637429536166654d6174683a206d756c7469706c69636174696f6e206f766572666c6f77a265627a7a72315820ef9f90ee61b4ab826676ba0bc2d47a7aa0501e2f359796067ae179a6e3a9471d64736f6c63430005100032",
  "source": "pragma solidity =0.5.16;\r\n\r\nimport \"../../contracts/Collateral.sol\";\r\n\r\ncontract CollateralHarness is Collateral {\r\n\tfunction calculateLiquidity(uint amountCollateral, uint amount0, uint amount1) external returns (uint liquidity, uint shortfall) {\r\n\t\treturn super._calculateLiquidity(amountCollateral, amount0, amount1);\r\n\t}\r\n\t\r\n\tfunction setUnderlyingHarness(address _underlying) external {\r\n\t\tunderlying = _underlying;\r\n\t}\r\n\t\r\n\tfunction setFactoryHarness(address _factory) external {\r\n\t\tfactory = _factory;\r\n\t}\r\n\t\r\n\tfunction setBorrowable0Harness(address _borrowable0) external {\r\n\t\tborrowable0 = _borrowable0;\r\n\t}\r\n\t\r\n\tfunction setBorrowable1Harness(address _borrowable1) external {\r\n\t\tborrowable1 = _borrowable1;\r\n\t}\r\n\t\r\n\tfunction setBalanceHarness(address account, uint balance) external {\r\n\t\tbalanceOf[account] = balance;\r\n\t}\r\n\t\r\n\tbool public useMockPrices;\r\n\tuint public _price0;\r\n\tuint public _price1;\r\n\t\r\n\tfunction getPrices() public returns (uint price0, uint price1) {\r\n\t\tif (useMockPrices) return (_price0, _price1);\r\n\t\treturn super.getPrices();\r\n\t}\r\n\t\r\n\tfunction setPricesHarness(uint price0, uint price1) external {\r\n\t\tuseMockPrices = true;\r\n\t\t_price0 = price0;\r\n\t\t_price1 = price1;\r\n\t}\r\n\t\r\n\tfunction setPriceOracle(address _simpleUniswapOracle) external {\r\n\t\tsimpleUniswapOracle = _simpleUniswapOracle;\r\n\t}\r\n\t\r\n\tbool public useMockExchangeRate;\r\n\tuint public _exchangeRate;\r\n\t\r\n\tfunction exchangeRate() public returns (uint) {\r\n\t\tif (useMockExchangeRate) return _exchangeRate;\r\n\t\treturn super.exchangeRate();\r\n\t}\r\n\t\r\n\tfunction setExchangeRateHarness(uint __exchangeRate) external {\r\n\t\tuseMockExchangeRate = true;\r\n\t\t_exchangeRate = __exchangeRate;\r\n\t}\r\n\t\r\n\tbool public useMockaAccountLiquidity;\r\n\tmapping(address => uint) public _liquidity;\r\n\tmapping(address => uint) public _shortfall;\r\n\t\r\n\tfunction accountLiquidity(address borrower) public returns (uint liquidity, uint shortfall) {\r\n\t\tif (useMockaAccountLiquidity) return (_liquidity[borrower], _shortfall[borrower]);\r\n\t\treturn super.accountLiquidity(borrower);\r\n\t}\r\n\t\r\n\tfunction setAccountLiquidityHarness(address borrower, uint liquidity, uint shortfall) external {\r\n\t\tuseMockaAccountLiquidity = true;\r\n\t\t_liquidity[borrower] = liquidity;\r\n\t\t_shortfall[borrower] = shortfall;\r\n\t}\r\n\t\r\n\tbool public useMockCanBorrow;\r\n\tmapping(address => mapping(address => uint)) public maxBorrowable;\r\n\t\r\n\tfunction canBorrow(address borrower, address borrowable, uint amount) public returns (bool) {\r\n\t\tif (useMockCanBorrow){\r\n\t\t\treturn maxBorrowable[borrower][borrowable] >= amount;\r\n\t\t}\r\n\t\treturn super.canBorrow(borrower, borrowable, amount);\r\n\t}\r\n\t\r\n\tfunction setMaxBorrowable(address borrower, address borrowable, uint maxAmount) external {\r\n\t\tuseMockCanBorrow = true;\r\n\t\tmaxBorrowable[borrower][borrowable] = maxAmount;\r\n\t}\r\n}",
  "sourcePath": "C:/Users/simor/Desktop/impermax-x-uniswapv2-core/contracts/Contracts/CollateralHarness.sol",
  "compiler": {
    "name": "solc",
    "version": "0.5.16+commit.9c3226ce.Emscripten.clang"
  },
  "schemaVersion": "3.3.2",
  "updatedAt": "2021-01-07T14:19:53.142Z",
  "devdoc": {
    "methods": {}
  },
  "userdoc": {
    "methods": {
      "_setFactory()": {
        "notice": "* Initialize **"
      },
      "accountLiquidityAmounts(address,uint256,uint256)": {
        "notice": "* Collateral **"
      }
    }
  }
}