{
  "contractName": "CStorage",
  "abi": [
    {
      "constant": true,
      "inputs": [],
      "name": "borrowable0",
      "outputs": [
        {
          "internalType": "address",
          "name": "",
          "type": "address"
        }
      ],
      "payable": false,
      "stateMutability": "view",
      "type": "function"
    },
    {
      "constant": true,
      "inputs": [],
      "name": "borrowable1",
      "outputs": [
        {
          "internalType": "address",
          "name": "",
          "type": "address"
        }
      ],
      "payable": false,
      "stateMutability": "view",
      "type": "function"
    },
    {
      "constant": true,
      "inputs": [],
      "name": "liquidationIncentive",
      "outputs": [
        {
          "internalType": "uint256",
          "name": "",
          "type": "uint256"
        }
      ],
      "payable": false,
      "stateMutability": "view",
      "type": "function"
    },
    {
      "constant": true,
      "inputs": [],
      "name": "safetyMarginSqrt",
      "outputs": [
        {
          "internalType": "uint256",
          "name": "",
          "type": "uint256"
        }
      ],
      "payable": false,
      "stateMutability": "view",
      "type": "function"
    },
    {
      "constant": true,
      "inputs": [],
      "name": "simpleUniswapOracle",
      "outputs": [
        {
          "internalType": "address",
          "name": "",
          "type": "address"
        }
      ],
      "payable": false,
      "stateMutability": "view",
      "type": "function"
    }
  ],
  "bytecode": "0x60806040526715f155637eba0c00600355670e6ed27d6668000060045534801561002857600080fd5b50610164806100386000396000f3fe608060405234801561001057600080fd5b50600436106100675760003560e01c80637c6674b5116100505780637c6674b5146100b75780638c765e94146100bf578063daf88818146100c757610067565b80632fa5ae1b1461006c578063356c571f1461009d575b600080fd5b6100746100cf565b6040805173ffffffffffffffffffffffffffffffffffffffff9092168252519081900360200190f35b6100a56100eb565b60408051918252519081900360200190f35b6100746100f1565b6100a561010d565b610074610113565b60005473ffffffffffffffffffffffffffffffffffffffff1681565b60035481565b60025473ffffffffffffffffffffffffffffffffffffffff1681565b60045481565b60015473ffffffffffffffffffffffffffffffffffffffff168156fea265627a7a72315820d8a278088137cfa4507f31cba02b6015cf5452a9764812d74c50777400763af964736f6c63430005100032",
  "source": "pragma solidity =0.5.16;\r\n\r\n\r\ncontract CStorage {\r\n\taddress public borrowable0;\r\n\taddress public borrowable1;\r\n\taddress public simpleUniswapOracle;\r\n\tuint public safetyMarginSqrt = 1.58113883e18; //safetyMargin: 250%\r\n\tuint public liquidationIncentive = 1.04e18; //4%\r\n}",
  "sourcePath": "C:\\Users\\simor\\Desktop\\impermax-x-uniswapv2-core\\contracts\\CStorage.sol",
  "compiler": {
    "name": "solc",
    "version": "0.5.16+commit.9c3226ce.Emscripten.clang"
  },
  "schemaVersion": "3.3.2",
  "updatedAt": "2021-02-22T23:43:56.703Z",
  "devdoc": {
    "methods": {}
  },
  "userdoc": {
    "methods": {}
  }
}