{
  "contractName": "MockUniswapV2Pair",
  "abi": [
    {
      "inputs": [
        {
          "internalType": "address",
          "name": "_token0",
          "type": "address"
        },
        {
          "internalType": "address",
          "name": "_token1",
          "type": "address"
        }
      ],
      "payable": false,
      "stateMutability": "nonpayable",
      "type": "constructor"
    },
    {
      "anonymous": false,
      "inputs": [
        {
          "indexed": true,
          "internalType": "address",
          "name": "owner",
          "type": "address"
        },
        {
          "indexed": true,
          "internalType": "address",
          "name": "spender",
          "type": "address"
        },
        {
          "indexed": false,
          "internalType": "uint256",
          "name": "value",
          "type": "uint256"
        }
      ],
      "name": "Approval",
      "type": "event"
    },
    {
      "anonymous": false,
      "inputs": [
        {
          "indexed": true,
          "internalType": "address",
          "name": "from",
          "type": "address"
        },
        {
          "indexed": true,
          "internalType": "address",
          "name": "to",
          "type": "address"
        },
        {
          "indexed": false,
          "internalType": "uint256",
          "name": "value",
          "type": "uint256"
        }
      ],
      "name": "Transfer",
      "type": "event"
    },
    {
      "constant": true,
      "inputs": [
        {
          "internalType": "address",
          "name": "owner",
          "type": "address"
        },
        {
          "internalType": "address",
          "name": "spender",
          "type": "address"
        }
      ],
      "name": "allowance",
      "outputs": [
        {
          "internalType": "uint256",
          "name": "",
          "type": "uint256"
        }
      ],
      "payable": false,
      "stateMutability": "view",
      "type": "function"
    },
    {
      "constant": false,
      "inputs": [
        {
          "internalType": "address",
          "name": "spender",
          "type": "address"
        },
        {
          "internalType": "uint256",
          "name": "amount",
          "type": "uint256"
        }
      ],
      "name": "approve",
      "outputs": [
        {
          "internalType": "bool",
          "name": "",
          "type": "bool"
        }
      ],
      "payable": false,
      "stateMutability": "nonpayable",
      "type": "function"
    },
    {
      "constant": true,
      "inputs": [
        {
          "internalType": "address",
          "name": "account",
          "type": "address"
        }
      ],
      "name": "balanceOf",
      "outputs": [
        {
          "internalType": "uint256",
          "name": "",
          "type": "uint256"
        }
      ],
      "payable": false,
      "stateMutability": "view",
      "type": "function"
    },
    {
      "constant": false,
      "inputs": [
        {
          "internalType": "address",
          "name": "account",
          "type": "address"
        },
        {
          "internalType": "uint256",
          "name": "amount",
          "type": "uint256"
        }
      ],
      "name": "burn",
      "outputs": [],
      "payable": false,
      "stateMutability": "nonpayable",
      "type": "function"
    },
    {
      "constant": true,
      "inputs": [],
      "name": "decimals",
      "outputs": [
        {
          "internalType": "uint8",
          "name": "",
          "type": "uint8"
        }
      ],
      "payable": false,
      "stateMutability": "view",
      "type": "function"
    },
    {
      "constant": false,
      "inputs": [
        {
          "internalType": "address",
          "name": "account",
          "type": "address"
        },
        {
          "internalType": "uint256",
          "name": "amount",
          "type": "uint256"
        }
      ],
      "name": "mint",
      "outputs": [],
      "payable": false,
      "stateMutability": "nonpayable",
      "type": "function"
    },
    {
      "constant": true,
      "inputs": [],
      "name": "name",
      "outputs": [
        {
          "internalType": "string",
          "name": "",
          "type": "string"
        }
      ],
      "payable": false,
      "stateMutability": "view",
      "type": "function"
    },
    {
      "constant": true,
      "inputs": [],
      "name": "price0CumulativeLast",
      "outputs": [
        {
          "internalType": "uint256",
          "name": "",
          "type": "uint256"
        }
      ],
      "payable": false,
      "stateMutability": "view",
      "type": "function"
    },
    {
      "constant": true,
      "inputs": [],
      "name": "symbol",
      "outputs": [
        {
          "internalType": "string",
          "name": "",
          "type": "string"
        }
      ],
      "payable": false,
      "stateMutability": "view",
      "type": "function"
    },
    {
      "constant": true,
      "inputs": [],
      "name": "token0",
      "outputs": [
        {
          "internalType": "address",
          "name": "",
          "type": "address"
        }
      ],
      "payable": false,
      "stateMutability": "view",
      "type": "function"
    },
    {
      "constant": true,
      "inputs": [],
      "name": "token1",
      "outputs": [
        {
          "internalType": "address",
          "name": "",
          "type": "address"
        }
      ],
      "payable": false,
      "stateMutability": "view",
      "type": "function"
    },
    {
      "constant": true,
      "inputs": [],
      "name": "totalSupply",
      "outputs": [
        {
          "internalType": "uint256",
          "name": "",
          "type": "uint256"
        }
      ],
      "payable": false,
      "stateMutability": "view",
      "type": "function"
    },
    {
      "constant": false,
      "inputs": [
        {
          "internalType": "address",
          "name": "to",
          "type": "address"
        },
        {
          "internalType": "uint256",
          "name": "amount",
          "type": "uint256"
        }
      ],
      "name": "transfer",
      "outputs": [
        {
          "internalType": "bool",
          "name": "",
          "type": "bool"
        }
      ],
      "payable": false,
      "stateMutability": "nonpayable",
      "type": "function"
    },
    {
      "constant": false,
      "inputs": [
        {
          "internalType": "address",
          "name": "from",
          "type": "address"
        },
        {
          "internalType": "address",
          "name": "to",
          "type": "address"
        },
        {
          "internalType": "uint256",
          "name": "amount",
          "type": "uint256"
        }
      ],
      "name": "transferFrom",
      "outputs": [
        {
          "internalType": "bool",
          "name": "",
          "type": "bool"
        }
      ],
      "payable": false,
      "stateMutability": "nonpayable",
      "type": "function"
    },
    {
      "constant": true,
      "inputs": [],
      "name": "getReserves",
      "outputs": [
        {
          "internalType": "uint112",
          "name": "_reserve0",
          "type": "uint112"
        },
        {
          "internalType": "uint112",
          "name": "_reserve1",
          "type": "uint112"
        },
        {
          "internalType": "uint32",
          "name": "_blockTimestampLast",
          "type": "uint32"
        }
      ],
      "payable": false,
      "stateMutability": "view",
      "type": "function"
    },
    {
      "constant": false,
      "inputs": [
        {
          "internalType": "uint112",
          "name": "_reserve0",
          "type": "uint112"
        },
        {
          "internalType": "uint112",
          "name": "_reserve1",
          "type": "uint112"
        }
      ],
      "name": "setReserves",
      "outputs": [],
      "payable": false,
      "stateMutability": "nonpayable",
      "type": "function"
    },
    {
      "constant": false,
      "inputs": [
        {
          "internalType": "uint256",
          "name": "__totalSupply",
          "type": "uint256"
        }
      ],
      "name": "setTotalSupply",
      "outputs": [],
      "payable": false,
      "stateMutability": "nonpayable",
      "type": "function"
    },
    {
      "constant": false,
      "inputs": [
        {
          "internalType": "address",
          "name": "account",
          "type": "address"
        },
        {
          "internalType": "uint256",
          "name": "amount",
          "type": "uint256"
        }
      ],
      "name": "setBalanceHarness",
      "outputs": [],
      "payable": false,
      "stateMutability": "nonpayable",
      "type": "function"
    }
  ],
  "bytecode": "0x6080604052633b9aca00600860006101000a8154816dffffffffffffffffffffffffffff02191690836dffffffffffffffffffffffffffff160217905550633b9aca006008600e6101000a8154816dffffffffffffffffffffffffffff02191690836dffffffffffffffffffffffffffff1602179055503480156200008357600080fd5b50604051620015a4380380620015a483398181016040526040811015620000a957600080fd5b81019080805190602001909291908051906020019092919050505060405180602001604052806000815250604051806020016040528060008152508160039080519060200190620000fc929190620001f9565b50806004908051906020019062000115929190620001f9565b506012600560006101000a81548160ff021916908360ff160217905550505064010000000042816200014357fe5b066008601c6101000a81548163ffffffff021916908363ffffffff16021790555081600560016101000a81548173ffffffffffffffffffffffffffffffffffffffff021916908373ffffffffffffffffffffffffffffffffffffffff16021790555080600660006101000a81548173ffffffffffffffffffffffffffffffffffffffff021916908373ffffffffffffffffffffffffffffffffffffffff160217905550633b9aca006002819055505050620002a8565b828054600181600116156101000203166002900490600052602060002090601f016020900481019282601f106200023c57805160ff19168380011785556200026d565b828001600101855582156200026d579182015b828111156200026c5782518255916020019190600101906200024f565b5b5090506200027c919062000280565b5090565b620002a591905b80821115620002a157600081600090555060010162000287565b5090565b90565b6112ec80620002b86000396000f3fe608060405234801561001057600080fd5b50600436106101165760003560e01c806370a08231116100a2578063a9059cbb11610071578063a9059cbb1461057b578063d21220a7146105e1578063d7b9e0561461062b578063dd62ed3e14610679578063f7ea7a3d146106f157610116565b806370a08231146103fa57806375ea5f2e1461045257806395d89b41146104aa5780639dc29fac1461052d57610116565b806318160ddd116100e957806318160ddd146102c657806323b872dd146102e4578063313ce5671461036a57806340c10f191461038e5780635909c0d5146103dc57610116565b806306fdde031461011b5780630902f1ac1461019e578063095ea7b3146102165780630dfe16811461027c575b600080fd5b61012361071f565b6040518080602001828103825283818151815260200191508051906020019080838360005b83811015610163578082015181840152602081019050610148565b50505050905090810190601f1680156101905780820380516001836020036101000a031916815260200191505b509250505060405180910390f35b6101a66107c1565b60405180846dffffffffffffffffffffffffffff166dffffffffffffffffffffffffffff168152602001836dffffffffffffffffffffffffffff166dffffffffffffffffffffffffffff1681526020018263ffffffff1663ffffffff168152602001935050505060405180910390f35b6102626004803603604081101561022c57600080fd5b81019080803573ffffffffffffffffffffffffffffffffffffffff1690602001909291908035906020019092919050505061081e565b604051808215151515815260200191505060405180910390f35b610284610835565b604051808273ffffffffffffffffffffffffffffffffffffffff1673ffffffffffffffffffffffffffffffffffffffff16815260200191505060405180910390f35b6102ce61085b565b6040518082815260200191505060405180910390f35b610350600480360360608110156102fa57600080fd5b81019080803573ffffffffffffffffffffffffffffffffffffffff169060200190929190803573ffffffffffffffffffffffffffffffffffffffff16906020019092919080359060200190929190505050610865565b604051808215151515815260200191505060405180910390f35b610372610930565b604051808260ff1660ff16815260200191505060405180910390f35b6103da600480360360408110156103a457600080fd5b81019080803573ffffffffffffffffffffffffffffffffffffffff16906020019092919080359060200190929190505050610947565b005b6103e4610955565b6040518082815260200191505060405180910390f35b61043c6004803603602081101561041057600080fd5b81019080803573ffffffffffffffffffffffffffffffffffffffff16906020019092919050505061095b565b6040518082815260200191505060405180910390f35b6104a86004803603604081101561046857600080fd5b8101908080356dffffffffffffffffffffffffffff16906020019092919080356dffffffffffffffffffffffffffff1690602001909291905050506109a3565b005b6104b2610a11565b6040518080602001828103825283818151815260200191508051906020019080838360005b838110156104f25780820151818401526020810190506104d7565b50505050905090810190601f16801561051f5780820380516001836020036101000a031916815260200191505b509250505060405180910390f35b6105796004803603604081101561054357600080fd5b81019080803573ffffffffffffffffffffffffffffffffffffffff16906020019092919080359060200190929190505050610ab3565b005b6105c76004803603604081101561059157600080fd5b81019080803573ffffffffffffffffffffffffffffffffffffffff16906020019092919080359060200190929190505050610ac1565b604051808215151515815260200191505060405180910390f35b6105e9610ad8565b604051808273ffffffffffffffffffffffffffffffffffffffff1673ffffffffffffffffffffffffffffffffffffffff16815260200191505060405180910390f35b6106776004803603604081101561064157600080fd5b81019080803573ffffffffffffffffffffffffffffffffffffffff16906020019092919080359060200190929190505050610afe565b005b6106db6004803603604081101561068f57600080fd5b81019080803573ffffffffffffffffffffffffffffffffffffffff169060200190929190803573ffffffffffffffffffffffffffffffffffffffff169060200190929190505050610b45565b6040518082815260200191505060405180910390f35b61071d6004803603602081101561070757600080fd5b8101908080359060200190929190505050610bcc565b005b606060038054600181600116156101000203166002900480601f0160208091040260200160405190810160405280929190818152602001828054600181600116156101000203166002900480156107b75780601f1061078c576101008083540402835291602001916107b7565b820191906000526020600020905b81548152906001019060200180831161079a57829003601f168201915b5050505050905090565b6000806000600860009054906101000a90046dffffffffffffffffffffffffffff1692506008600e9054906101000a90046dffffffffffffffffffffffffffff1691506008601c9054906101000a900463ffffffff169050909192565b600061082b338484610bd6565b6001905092915050565b600560019054906101000a900473ffffffffffffffffffffffffffffffffffffffff1681565b6000600254905090565b6000610872848484610cc1565b61092584336109208560405180606001604052806028815260200161129060289139600160008b73ffffffffffffffffffffffffffffffffffffffff1673ffffffffffffffffffffffffffffffffffffffff16815260200190815260200160002060003373ffffffffffffffffffffffffffffffffffffffff1673ffffffffffffffffffffffffffffffffffffffff16815260200190815260200160002054610e6b9092919063ffffffff16565b610bd6565b600190509392505050565b6000600560009054906101000a900460ff16905090565b6109518282610f2b565b5050565b60075481565b60008060008373ffffffffffffffffffffffffffffffffffffffff1673ffffffffffffffffffffffffffffffffffffffff168152602001908152602001600020549050919050565b81600860006101000a8154816dffffffffffffffffffffffffffff02191690836dffffffffffffffffffffffffffff160217905550806008600e6101000a8154816dffffffffffffffffffffffffffff02191690836dffffffffffffffffffffffffffff1602179055505050565b606060048054600181600116156101000203166002900480601f016020809104026020016040519081016040528092919081815260200182805460018160011615610100020316600290048015610aa95780601f10610a7e57610100808354040283529160200191610aa9565b820191906000526020600020905b815481529060010190602001808311610a8c57829003601f168201915b5050505050905090565b610abd8282611043565b5050565b6000610ace338484610cc1565b6001905092915050565b600660009054906101000a900473ffffffffffffffffffffffffffffffffffffffff1681565b806000808473ffffffffffffffffffffffffffffffffffffffff1673ffffffffffffffffffffffffffffffffffffffff168152602001908152602001600020819055505050565b6000600160008473ffffffffffffffffffffffffffffffffffffffff1673ffffffffffffffffffffffffffffffffffffffff16815260200190815260200160002060008373ffffffffffffffffffffffffffffffffffffffff1673ffffffffffffffffffffffffffffffffffffffff16815260200190815260200160002054905092915050565b8060028190555050565b80600160008573ffffffffffffffffffffffffffffffffffffffff1673ffffffffffffffffffffffffffffffffffffffff16815260200190815260200160002060008473ffffffffffffffffffffffffffffffffffffffff1673ffffffffffffffffffffffffffffffffffffffff168152602001908152602001600020819055508173ffffffffffffffffffffffffffffffffffffffff168373ffffffffffffffffffffffffffffffffffffffff167f8c5be1e5ebec7d5bd14f71427d1e84f3dd0314c0f7b2291e5b200ac8c7c3b925836040518082815260200191505060405180910390a3505050565b610d2c8160405180606001604052806026815260200161126a602691396000808773ffffffffffffffffffffffffffffffffffffffff1673ffffffffffffffffffffffffffffffffffffffff16815260200190815260200160002054610e6b9092919063ffffffff16565b6000808573ffffffffffffffffffffffffffffffffffffffff1673ffffffffffffffffffffffffffffffffffffffff16815260200190815260200160002081905550610dbf816000808573ffffffffffffffffffffffffffffffffffffffff1673ffffffffffffffffffffffffffffffffffffffff1681526020019081526020016000205461117590919063ffffffff16565b6000808473ffffffffffffffffffffffffffffffffffffffff1673ffffffffffffffffffffffffffffffffffffffff168152602001908152602001600020819055508173ffffffffffffffffffffffffffffffffffffffff168373ffffffffffffffffffffffffffffffffffffffff167fddf252ad1be2c89b69c2b068fc378daa952ba7f163c4a11628f55a4df523b3ef836040518082815260200191505060405180910390a3505050565b6000838311158290610f18576040517f08c379a00000000000000000000000000000000000000000000000000000000081526004018080602001828103825283818151815260200191508051906020019080838360005b83811015610edd578082015181840152602081019050610ec2565b50505050905090810190601f168015610f0a5780820380516001836020036101000a031916815260200191505b509250505060405180910390fd5b5060008385039050809150509392505050565b610f408160025461117590919063ffffffff16565b600281905550610f97816000808573ffffffffffffffffffffffffffffffffffffffff1673ffffffffffffffffffffffffffffffffffffffff1681526020019081526020016000205461117590919063ffffffff16565b6000808473ffffffffffffffffffffffffffffffffffffffff1673ffffffffffffffffffffffffffffffffffffffff168152602001908152602001600020819055508173ffffffffffffffffffffffffffffffffffffffff16600073ffffffffffffffffffffffffffffffffffffffff167fddf252ad1be2c89b69c2b068fc378daa952ba7f163c4a11628f55a4df523b3ef836040518082815260200191505060405180910390a35050565b6110ae81604051806060016040528060228152602001611248602291396000808673ffffffffffffffffffffffffffffffffffffffff1673ffffffffffffffffffffffffffffffffffffffff16815260200190815260200160002054610e6b9092919063ffffffff16565b6000808473ffffffffffffffffffffffffffffffffffffffff1673ffffffffffffffffffffffffffffffffffffffff16815260200190815260200160002081905550611105816002546111fd90919063ffffffff16565b600281905550600073ffffffffffffffffffffffffffffffffffffffff168273ffffffffffffffffffffffffffffffffffffffff167fddf252ad1be2c89b69c2b068fc378daa952ba7f163c4a11628f55a4df523b3ef836040518082815260200191505060405180910390a35050565b6000808284019050838110156111f3576040517f08c379a000000000000000000000000000000000000000000000000000000000815260040180806020018281038252601b8152602001807f536166654d6174683a206164646974696f6e206f766572666c6f77000000000081525060200191505060405180910390fd5b8091505092915050565b600061123f83836040518060400160405280601f81526020017f536166654d6174683a207375627472616374696f6e20756e646572666c6f7700815250610e6b565b90509291505056fe45524332303a206275726e20616d6f756e7420657863656564732062616c616e636545524332303a207472616e7366657220616d6f756e7420657863656564732062616c616e636545524332303a207472616e7366657220616d6f756e74206578636565647320616c6c6f77616e6365a265627a7a723158206630d190b76d49c9e02412260265ed59f040f2ed52deb55ebfe66c924f7bfdb564736f6c63430005100032",
  "source": "pragma solidity =0.5.16;\r\n\r\nimport \"../../contracts/libraries/SafeMath.sol\";\r\nimport \"../../contracts/interfaces/IUniswapV2Pair.sol\";\r\nimport \"../../contracts/libraries/UQ112x112.sol\";\r\nimport \"./MockERC20.sol\";\r\n\r\ncontract MockUniswapV2Pair is MockERC20 {\r\n\tusing SafeMath for uint256;\r\n\tusing UQ112x112 for uint224;\r\n\t\r\n\taddress public token0;\r\n\taddress public token1;\r\n\t\r\n\tconstructor (address _token0, address _token1) MockERC20(\"\", \"\") public {\r\n\t\tblockTimestampLast = uint32(block.timestamp % 2**32);\r\n\t\ttoken0 = _token0;\r\n\t\ttoken1 = _token1;\r\n\t\t_totalSupply = 1e9;\r\n\t}\r\n\t\r\n\tuint256 public price0CumulativeLast;\r\n\tuint112 internal reserve0 = 1e9;\r\n\tuint112 internal reserve1 = 1e9;\r\n\tuint32 internal blockTimestampLast;\r\n\t\r\n\tfunction getReserves() external view returns (uint112 _reserve0, uint112 _reserve1, uint32 _blockTimestampLast) {\r\n\t\t_reserve0 = reserve0;\r\n\t\t_reserve1 = reserve1;\r\n\t\t_blockTimestampLast = blockTimestampLast;\r\n\t}\r\n\t\r\n\tfunction setReserves(uint112 _reserve0, uint112 _reserve1) external {\r\n\t\treserve0 = _reserve0;\r\n\t\treserve1 = _reserve1;\r\n\t}\r\n\t\r\n\tfunction setTotalSupply(uint __totalSupply) external {\r\n\t\t_totalSupply = __totalSupply;\r\n\t}\r\n\t\r\n\tfunction setBalanceHarness(address account, uint amount) external {\r\n\t\t_balances[account] = amount;\r\n\t}\r\n\t\r\n\tfunction toUint112(uint256 input) internal pure returns(uint112) {\r\n\t\trequire(input <= uint112(-1), \"MockUniPair: UINT224_OVERFLOW\");\r\n\t\treturn uint112(input);\r\n\t}\r\n}",
  "sourcePath": "C:/Users/simor/Desktop/impermax-x-uniswapv2-core/contracts/Contracts/MockUniswapV2Pair.sol",
  "compiler": {
    "name": "solc",
    "version": "0.5.16+commit.9c3226ce.Emscripten.clang"
  },
  "schemaVersion": "3.3.2",
  "updatedAt": "2021-01-07T14:19:53.155Z",
  "devdoc": {
    "methods": {}
  },
  "userdoc": {
    "methods": {}
  }
}