{
  "contractName": "MockBorrowTracker",
  "abi": [
    {
      "inputs": [],
      "payable": false,
      "stateMutability": "nonpayable",
      "type": "constructor"
    },
    {
      "constant": true,
      "inputs": [
        {
          "internalType": "address",
          "name": "",
          "type": "address"
        }
      ],
      "name": "relativeBorrow",
      "outputs": [
        {
          "internalType": "uint256",
          "name": "",
          "type": "uint256"
        }
      ],
      "payable": false,
      "stateMutability": "view",
      "type": "function"
    },
    {
      "constant": true,
      "inputs": [],
      "name": "totalRelativeBorrows",
      "outputs": [
        {
          "internalType": "uint256",
          "name": "",
          "type": "uint256"
        }
      ],
      "payable": false,
      "stateMutability": "view",
      "type": "function"
    },
    {
      "constant": false,
      "inputs": [
        {
          "internalType": "address",
          "name": "borrower",
          "type": "address"
        },
        {
          "internalType": "uint256",
          "name": "borrowBalance",
          "type": "uint256"
        },
        {
          "internalType": "uint256",
          "name": "borrowIndex",
          "type": "uint256"
        }
      ],
      "name": "trackBorrow",
      "outputs": [],
      "payable": false,
      "stateMutability": "nonpayable",
      "type": "function"
    },
    {
      "constant": true,
      "inputs": [
        {
          "internalType": "address",
          "name": "borrower",
          "type": "address"
        }
      ],
      "name": "borrowPercentage",
      "outputs": [
        {
          "internalType": "uint256",
          "name": "",
          "type": "uint256"
        }
      ],
      "payable": false,
      "stateMutability": "view",
      "type": "function"
    }
  ],
  "bytecode": "0x608060405234801561001057600080fd5b506105af806100206000396000f3fe608060405234801561001057600080fd5b506004361061004c5760003560e01c806305285d7f146100515780634be5bb82146100a9578063658d307c146101015780636b64339e14610159575b600080fd5b6100a76004803603606081101561006757600080fd5b81019080803573ffffffffffffffffffffffffffffffffffffffff1690602001909291908035906020019092919080359060200190929190505050610177565b005b6100eb600480360360208110156100bf57600080fd5b81019080803573ffffffffffffffffffffffffffffffffffffffff169060200190929190505050610293565b6040518082815260200191505060405180910390f35b6101436004803603602081101561011757600080fd5b81019080803573ffffffffffffffffffffffffffffffffffffffff16906020019092919050505061031d565b6040518082815260200191505060405180910390f35b610161610335565b6040518082815260200191505060405180910390f35b60008060008573ffffffffffffffffffffffffffffffffffffffff1673ffffffffffffffffffffffffffffffffffffffff16815260200190815260200160002054905060006101f2836101e47001000000000000000000000000000000008761033b90919063ffffffff16565b6103c190919063ffffffff16565b9050806000808773ffffffffffffffffffffffffffffffffffffffff1673ffffffffffffffffffffffffffffffffffffffff1681526020019081526020016000208190555081811115610267576000828203905061025b8160015461040b90919063ffffffff16565b6001819055505061028c565b60008183039050806001541161027e576000610284565b80600154035b600181905550505b5050505050565b60008060015414156102a85760009050610318565b610315600154610307670de0b6b3a76400006000808773ffffffffffffffffffffffffffffffffffffffff1673ffffffffffffffffffffffffffffffffffffffff1681526020019081526020016000205461033b90919063ffffffff16565b6103c190919063ffffffff16565b90505b919050565b60006020528060005260406000206000915090505481565b60015481565b60008083141561034e57600090506103bb565b600082840290508284828161035f57fe5b04146103b6576040517f08c379a000000000000000000000000000000000000000000000000000000000815260040180806020018281038252602181526020018061055a6021913960400191505060405180910390fd5b809150505b92915050565b600061040383836040518060400160405280601a81526020017f536166654d6174683a206469766973696f6e206279207a65726f000000000000815250610493565b905092915050565b600080828401905083811015610489576040517f08c379a000000000000000000000000000000000000000000000000000000000815260040180806020018281038252601b8152602001807f536166654d6174683a206164646974696f6e206f766572666c6f77000000000081525060200191505060405180910390fd5b8091505092915050565b6000808311829061053f576040517f08c379a00000000000000000000000000000000000000000000000000000000081526004018080602001828103825283818151815260200191508051906020019080838360005b838110156105045780820151818401526020810190506104e9565b50505050905090810190601f1680156105315780820380516001836020036101000a031916815260200191505b509250505060405180910390fd5b50600083858161054b57fe5b04905080915050939250505056fe536166654d6174683a206d756c7469706c69636174696f6e206f766572666c6f77a265627a7a723158201a86b263e706ee00fc1090de381743897d827baad9e79dce085489ae87a127b564736f6c63430005100032",
  "source": "pragma solidity =0.5.16;\r\n\r\nimport \"../../contracts/interfaces/IBorrowTracker.sol\";\r\nimport \"../../contracts/libraries/SafeMath.sol\";\r\n\r\ncontract MockBorrowTracker is IBorrowTracker {\r\n\tusing SafeMath for uint;\r\n\t\r\n\tconstructor () public {}\r\n\t\r\n\tmapping(address => uint) public relativeBorrow;\r\n\tuint public totalRelativeBorrows;\r\n\r\n\tfunction trackBorrow(address borrower, uint borrowBalance, uint borrowIndex) external {\r\n\t\tuint _relativeBorrowPrior = relativeBorrow[borrower];\r\n\t\tuint _relativeBorrow = borrowBalance.mul(2**128).div(borrowIndex);\r\n\t\trelativeBorrow[borrower] = _relativeBorrow;\r\n\t\tif (_relativeBorrow > _relativeBorrowPrior) {\r\n\t\t\tuint increaseAmount = _relativeBorrow - _relativeBorrowPrior;\r\n\t\t\ttotalRelativeBorrows = totalRelativeBorrows.add(increaseAmount);\r\n\t\t}\r\n\t\telse {\r\n\t\t\tuint decreaseAmount = _relativeBorrowPrior - _relativeBorrow;\r\n\t\t\ttotalRelativeBorrows = totalRelativeBorrows > decreaseAmount ? totalRelativeBorrows - decreaseAmount : 0;\r\n\t\t}\r\n\t}\r\n\r\n\tfunction borrowPercentage(address borrower) external view returns (uint) {\r\n\t\tif (totalRelativeBorrows == 0) return 0;\r\n\t\treturn relativeBorrow[borrower].mul(1e18).div(totalRelativeBorrows);\r\n\t}\r\n}",
  "sourcePath": "C:/Users/simor/Desktop/impermax-x-uniswapv2-core/contracts/Contracts/MockBorrowTracker.sol",
  "compiler": {
    "name": "solc",
    "version": "0.5.16+commit.9c3226ce.Emscripten.clang"
  },
  "schemaVersion": "3.3.2",
  "updatedAt": "2021-01-07T14:19:53.148Z",
  "devdoc": {
    "methods": {}
  },
  "userdoc": {
    "methods": {}
  }
}