{
  "contractName": "MockOracle",
  "abi": [
    {
      "anonymous": false,
      "inputs": [
        {
          "indexed": true,
          "internalType": "address",
          "name": "pair",
          "type": "address"
        },
        {
          "indexed": false,
          "internalType": "uint256",
          "name": "priceCumulative",
          "type": "uint256"
        },
        {
          "indexed": false,
          "internalType": "uint32",
          "name": "blockTimestamp",
          "type": "uint32"
        },
        {
          "indexed": false,
          "internalType": "bool",
          "name": "lastIsA",
          "type": "bool"
        }
      ],
      "name": "PriceUpdate",
      "type": "event"
    },
    {
      "constant": true,
      "inputs": [],
      "name": "MIN_T",
      "outputs": [
        {
          "internalType": "uint32",
          "name": "",
          "type": "uint32"
        }
      ],
      "payable": false,
      "stateMutability": "view",
      "type": "function"
    },
    {
      "constant": true,
      "inputs": [
        {
          "internalType": "address",
          "name": "",
          "type": "address"
        }
      ],
      "name": "getPair",
      "outputs": [
        {
          "internalType": "uint256",
          "name": "priceCumulativeA",
          "type": "uint256"
        },
        {
          "internalType": "uint256",
          "name": "priceCumulativeB",
          "type": "uint256"
        },
        {
          "internalType": "uint32",
          "name": "updateA",
          "type": "uint32"
        },
        {
          "internalType": "uint32",
          "name": "updateB",
          "type": "uint32"
        },
        {
          "internalType": "bool",
          "name": "lastIsA",
          "type": "bool"
        },
        {
          "internalType": "bool",
          "name": "initialized",
          "type": "bool"
        }
      ],
      "payable": false,
      "stateMutability": "view",
      "type": "function"
    },
    {
      "constant": true,
      "inputs": [
        {
          "internalType": "address",
          "name": "",
          "type": "address"
        }
      ],
      "name": "mockPrice",
      "outputs": [
        {
          "internalType": "uint224",
          "name": "",
          "type": "uint224"
        }
      ],
      "payable": false,
      "stateMutability": "view",
      "type": "function"
    },
    {
      "constant": false,
      "inputs": [
        {
          "internalType": "address",
          "name": "uniswapV2Pair",
          "type": "address"
        }
      ],
      "name": "initialize",
      "outputs": [],
      "payable": false,
      "stateMutability": "nonpayable",
      "type": "function"
    },
    {
      "constant": false,
      "inputs": [
        {
          "internalType": "address",
          "name": "uniswapV2Pair",
          "type": "address"
        }
      ],
      "name": "getResult",
      "outputs": [
        {
          "internalType": "uint224",
          "name": "price",
          "type": "uint224"
        },
        {
          "internalType": "uint32",
          "name": "T",
          "type": "uint32"
        }
      ],
      "payable": false,
      "stateMutability": "nonpayable",
      "type": "function"
    },
    {
      "constant": false,
      "inputs": [
        {
          "internalType": "address",
          "name": "uniswapV2Pair",
          "type": "address"
        },
        {
          "internalType": "uint224",
          "name": "price",
          "type": "uint224"
        }
      ],
      "name": "setPrice",
      "outputs": [],
      "payable": false,
      "stateMutability": "nonpayable",
      "type": "function"
    },
    {
      "constant": true,
      "inputs": [],
      "name": "getBlockTimestamp",
      "outputs": [
        {
          "internalType": "uint32",
          "name": "",
          "type": "uint32"
        }
      ],
      "payable": false,
      "stateMutability": "view",
      "type": "function"
    }
  ],
  "bytecode": "0x608060405234801561001057600080fd5b5061072e806100206000396000f3fe608060405234801561001057600080fd5b506004361061007d5760003560e01c80639a2a7b7d1161005b5780639a2a7b7d146101ee578063c4d66de81461025a578063e102c9961461029e578063f51b5531146103325761007d565b80631a788a0214610082578063446a37e01461011d578063796b89b9146101c4575b600080fd5b6100c46004803603602081101561009857600080fd5b81019080803573ffffffffffffffffffffffffffffffffffffffff16906020019092919050505061035c565b604051808781526020018681526020018563ffffffff1663ffffffff1681526020018463ffffffff1663ffffffff1681526020018315151515815260200182151515158152602001965050505050505060405180910390f35b61015f6004803603602081101561013357600080fd5b81019080803573ffffffffffffffffffffffffffffffffffffffff1690602001909291905050506103d2565b60405180837bffffffffffffffffffffffffffffffffffffffffffffffffffffffff167bffffffffffffffffffffffffffffffffffffffffffffffffffffffff1681526020018263ffffffff1663ffffffff1681526020019250505060405180910390f35b6101cc610449565b604051808263ffffffff1663ffffffff16815260200191505060405180910390f35b6102586004803603604081101561020457600080fd5b81019080803573ffffffffffffffffffffffffffffffffffffffff16906020019092919080357bffffffffffffffffffffffffffffffffffffffffffffffffffffffff16906020019092919050505061045f565b005b61029c6004803603602081101561027057600080fd5b81019080803573ffffffffffffffffffffffffffffffffffffffff1690602001909291905050506104f1565b005b6102e0600480360360208110156102b457600080fd5b81019080803573ffffffffffffffffffffffffffffffffffffffff169060200190929190505050610690565b60405180827bffffffffffffffffffffffffffffffffffffffffffffffffffffffff167bffffffffffffffffffffffffffffffffffffffffffffffffffffffff16815260200191505060405180910390f35b61033a6106cb565b604051808263ffffffff1663ffffffff16815260200191505060405180910390f35b60006020528060005260406000206000915090508060000154908060010154908060020160009054906101000a900463ffffffff16908060020160049054906101000a900463ffffffff16908060020160089054906101000a900460ff16908060020160099054906101000a900460ff16905086565b600080600160008473ffffffffffffffffffffffffffffffffffffffff1673ffffffffffffffffffffffffffffffffffffffff16815260200190815260200160002060009054906101000a90047bffffffffffffffffffffffffffffffffffffffffffffffffffffffff169150610e109050915091565b6000640100000000428161045957fe5b06905090565b80600160008473ffffffffffffffffffffffffffffffffffffffff1673ffffffffffffffffffffffffffffffffffffffff16815260200190815260200160002060006101000a8154817bffffffffffffffffffffffffffffffffffffffffffffffffffffffff02191690837bffffffffffffffffffffffffffffffffffffffffffffffffffffffff1602179055505050565b6000808273ffffffffffffffffffffffffffffffffffffffff1673ffffffffffffffffffffffffffffffffffffffff16815260200190815260200160002060020160099054906101000a900460ff1615610596576040517f08c379a00000000000000000000000000000000000000000000000000000000081526004018080602001828103825260288152602001806106d26028913960400191505060405180910390fd5b60016000808373ffffffffffffffffffffffffffffffffffffffff1673ffffffffffffffffffffffffffffffffffffffff16815260200190815260200160002060020160096101000a81548160ff0219169083151502179055506e010000000000000000000000000000600160008373ffffffffffffffffffffffffffffffffffffffff1673ffffffffffffffffffffffffffffffffffffffff16815260200190815260200160002060006101000a8154817bffffffffffffffffffffffffffffffffffffffffffffffffffffffff02191690837bffffffffffffffffffffffffffffffffffffffffffffffffffffffff16021790555050565b60016020528060005260406000206000915054906101000a90047bffffffffffffffffffffffffffffffffffffffffffffffffffffffff1681565b610e108156fe4173736572744572726f723a207061697220697320616c726561647920696e697469616c697a6564a265627a7a72315820270d94f95ab4e3bae02ae2b390786ec7a4b5c67b2bd9fab3b333a9390ac5293564736f6c63430005100032",
  "source": "pragma solidity =0.5.16;\r\n\r\nimport \"../../contracts/libraries/UQ112x112.sol\";\r\nimport \"../../contracts/interfaces/IUniswapV2Pair.sol\";\r\nimport \"../../contracts/interfaces/ISimpleUniswapOracle.sol\";\r\n\r\ncontract MockOracle is ISimpleUniswapOracle {\r\n\tusing UQ112x112 for uint224;\r\n\t\r\n\tuint32 public constant MIN_T = 3600;\r\n\tstruct Pair {\r\n\t\tuint256 priceCumulativeA;\r\n\t\tuint256 priceCumulativeB;\r\n\t\tuint32 updateA;\r\n\t\tuint32 updateB;\r\n\t\tbool lastIsA;\r\n\t\tbool initialized;\r\n\t}\r\n\tmapping(address => Pair) public getPair;\r\n\t\r\n\tmapping(address => uint224) public mockPrice;\r\n\t\r\n\tfunction initialize(address uniswapV2Pair) external {\r\n\t\trequire(!getPair[uniswapV2Pair].initialized, \"AssertError: pair is already initialized\");\r\n\t\tgetPair[uniswapV2Pair].initialized = true;\r\n\t\tmockPrice[uniswapV2Pair] = 2**112;\r\n\t}\r\n\t\r\n\tfunction getResult(address uniswapV2Pair) external returns (uint224 price, uint32 T) {\r\n\t\tprice = mockPrice[uniswapV2Pair];\r\n\t\tT = 3600;\r\n\t}\r\n\t\r\n\tfunction setPrice(address uniswapV2Pair, uint224 price) external {\r\n\t\tmockPrice[uniswapV2Pair] = price;\r\n\t}\r\n\t\r\n\t/*** Utilities ***/\r\n\t\r\n\tfunction getBlockTimestamp() public view returns (uint32) {\r\n\t\treturn uint32(block.timestamp % 2**32);\r\n\t}\r\n}",
  "sourcePath": "C:/Users/simor/Desktop/impermax-x-uniswapv2-core/contracts/Contracts/MockOracle.sol",
  "compiler": {
    "name": "solc",
    "version": "0.5.16+commit.9c3226ce.Emscripten.clang"
  },
  "schemaVersion": "3.3.2",
  "updatedAt": "2021-01-07T14:19:53.153Z",
  "devdoc": {
    "methods": {}
  },
  "userdoc": {
    "methods": {
      "getBlockTimestamp()": {
        "notice": "* Utilities **"
      }
    }
  }
}