{
  "contractName": "PoolTokenHarness",
  "abi": [
    {
      "anonymous": false,
      "inputs": [
        {
          "indexed": true,
          "internalType": "address",
          "name": "owner",
          "type": "address"
        },
        {
          "indexed": true,
          "internalType": "address",
          "name": "spender",
          "type": "address"
        },
        {
          "indexed": false,
          "internalType": "uint256",
          "name": "value",
          "type": "uint256"
        }
      ],
      "name": "Approval",
      "type": "event"
    },
    {
      "anonymous": false,
      "inputs": [
        {
          "indexed": true,
          "internalType": "address",
          "name": "sender",
          "type": "address"
        },
        {
          "indexed": true,
          "internalType": "address",
          "name": "minter",
          "type": "address"
        },
        {
          "indexed": false,
          "internalType": "uint256",
          "name": "mintAmount",
          "type": "uint256"
        },
        {
          "indexed": false,
          "internalType": "uint256",
          "name": "mintTokens",
          "type": "uint256"
        }
      ],
      "name": "Mint",
      "type": "event"
    },
    {
      "anonymous": false,
      "inputs": [
        {
          "indexed": true,
          "internalType": "address",
          "name": "sender",
          "type": "address"
        },
        {
          "indexed": true,
          "internalType": "address",
          "name": "redeemer",
          "type": "address"
        },
        {
          "indexed": false,
          "internalType": "uint256",
          "name": "redeemAmount",
          "type": "uint256"
        },
        {
          "indexed": false,
          "internalType": "uint256",
          "name": "redeemTokens",
          "type": "uint256"
        }
      ],
      "name": "Redeem",
      "type": "event"
    },
    {
      "anonymous": false,
      "inputs": [
        {
          "indexed": false,
          "internalType": "uint256",
          "name": "totalBalance",
          "type": "uint256"
        }
      ],
      "name": "Sync",
      "type": "event"
    },
    {
      "anonymous": false,
      "inputs": [
        {
          "indexed": true,
          "internalType": "address",
          "name": "from",
          "type": "address"
        },
        {
          "indexed": true,
          "internalType": "address",
          "name": "to",
          "type": "address"
        },
        {
          "indexed": false,
          "internalType": "uint256",
          "name": "value",
          "type": "uint256"
        }
      ],
      "name": "Transfer",
      "type": "event"
    },
    {
      "constant": true,
      "inputs": [],
      "name": "DOMAIN_SEPARATOR",
      "outputs": [
        {
          "internalType": "bytes32",
          "name": "",
          "type": "bytes32"
        }
      ],
      "payable": false,
      "stateMutability": "view",
      "type": "function"
    },
    {
      "constant": true,
      "inputs": [],
      "name": "MINIMUM_LIQUIDITY",
      "outputs": [
        {
          "internalType": "uint256",
          "name": "",
          "type": "uint256"
        }
      ],
      "payable": false,
      "stateMutability": "view",
      "type": "function"
    },
    {
      "constant": true,
      "inputs": [],
      "name": "PERMIT_TYPEHASH",
      "outputs": [
        {
          "internalType": "bytes32",
          "name": "",
          "type": "bytes32"
        }
      ],
      "payable": false,
      "stateMutability": "view",
      "type": "function"
    },
    {
      "constant": false,
      "inputs": [],
      "name": "_setFactory",
      "outputs": [],
      "payable": false,
      "stateMutability": "nonpayable",
      "type": "function"
    },
    {
      "constant": true,
      "inputs": [
        {
          "internalType": "address",
          "name": "",
          "type": "address"
        },
        {
          "internalType": "address",
          "name": "",
          "type": "address"
        }
      ],
      "name": "allowance",
      "outputs": [
        {
          "internalType": "uint256",
          "name": "",
          "type": "uint256"
        }
      ],
      "payable": false,
      "stateMutability": "view",
      "type": "function"
    },
    {
      "constant": false,
      "inputs": [
        {
          "internalType": "address",
          "name": "spender",
          "type": "address"
        },
        {
          "internalType": "uint256",
          "name": "value",
          "type": "uint256"
        }
      ],
      "name": "approve",
      "outputs": [
        {
          "internalType": "bool",
          "name": "",
          "type": "bool"
        }
      ],
      "payable": false,
      "stateMutability": "nonpayable",
      "type": "function"
    },
    {
      "constant": true,
      "inputs": [
        {
          "internalType": "address",
          "name": "",
          "type": "address"
        }
      ],
      "name": "balanceOf",
      "outputs": [
        {
          "internalType": "uint256",
          "name": "",
          "type": "uint256"
        }
      ],
      "payable": false,
      "stateMutability": "view",
      "type": "function"
    },
    {
      "constant": true,
      "inputs": [],
      "name": "decimals",
      "outputs": [
        {
          "internalType": "uint8",
          "name": "",
          "type": "uint8"
        }
      ],
      "payable": false,
      "stateMutability": "view",
      "type": "function"
    },
    {
      "constant": false,
      "inputs": [],
      "name": "exchangeRate",
      "outputs": [
        {
          "internalType": "uint256",
          "name": "",
          "type": "uint256"
        }
      ],
      "payable": false,
      "stateMutability": "nonpayable",
      "type": "function"
    },
    {
      "constant": true,
      "inputs": [],
      "name": "factory",
      "outputs": [
        {
          "internalType": "address",
          "name": "",
          "type": "address"
        }
      ],
      "payable": false,
      "stateMutability": "view",
      "type": "function"
    },
    {
      "constant": false,
      "inputs": [
        {
          "internalType": "address",
          "name": "minter",
          "type": "address"
        }
      ],
      "name": "mint",
      "outputs": [
        {
          "internalType": "uint256",
          "name": "mintTokens",
          "type": "uint256"
        }
      ],
      "payable": false,
      "stateMutability": "nonpayable",
      "type": "function"
    },
    {
      "constant": true,
      "inputs": [],
      "name": "name",
      "outputs": [
        {
          "internalType": "string",
          "name": "",
          "type": "string"
        }
      ],
      "payable": false,
      "stateMutability": "view",
      "type": "function"
    },
    {
      "constant": true,
      "inputs": [
        {
          "internalType": "address",
          "name": "",
          "type": "address"
        }
      ],
      "name": "nonces",
      "outputs": [
        {
          "internalType": "uint256",
          "name": "",
          "type": "uint256"
        }
      ],
      "payable": false,
      "stateMutability": "view",
      "type": "function"
    },
    {
      "constant": false,
      "inputs": [
        {
          "internalType": "address",
          "name": "owner",
          "type": "address"
        },
        {
          "internalType": "address",
          "name": "spender",
          "type": "address"
        },
        {
          "internalType": "uint256",
          "name": "value",
          "type": "uint256"
        },
        {
          "internalType": "uint256",
          "name": "deadline",
          "type": "uint256"
        },
        {
          "internalType": "uint8",
          "name": "v",
          "type": "uint8"
        },
        {
          "internalType": "bytes32",
          "name": "r",
          "type": "bytes32"
        },
        {
          "internalType": "bytes32",
          "name": "s",
          "type": "bytes32"
        }
      ],
      "name": "permit",
      "outputs": [],
      "payable": false,
      "stateMutability": "nonpayable",
      "type": "function"
    },
    {
      "constant": false,
      "inputs": [
        {
          "internalType": "address",
          "name": "redeemer",
          "type": "address"
        }
      ],
      "name": "redeem",
      "outputs": [
        {
          "internalType": "uint256",
          "name": "redeemAmount",
          "type": "uint256"
        }
      ],
      "payable": false,
      "stateMutability": "nonpayable",
      "type": "function"
    },
    {
      "constant": false,
      "inputs": [
        {
          "internalType": "address",
          "name": "to",
          "type": "address"
        }
      ],
      "name": "skim",
      "outputs": [],
      "payable": false,
      "stateMutability": "nonpayable",
      "type": "function"
    },
    {
      "constant": true,
      "inputs": [],
      "name": "symbol",
      "outputs": [
        {
          "internalType": "string",
          "name": "",
          "type": "string"
        }
      ],
      "payable": false,
      "stateMutability": "view",
      "type": "function"
    },
    {
      "constant": false,
      "inputs": [],
      "name": "sync",
      "outputs": [],
      "payable": false,
      "stateMutability": "nonpayable",
      "type": "function"
    },
    {
      "constant": true,
      "inputs": [],
      "name": "totalBalance",
      "outputs": [
        {
          "internalType": "uint256",
          "name": "",
          "type": "uint256"
        }
      ],
      "payable": false,
      "stateMutability": "view",
      "type": "function"
    },
    {
      "constant": true,
      "inputs": [],
      "name": "totalSupply",
      "outputs": [
        {
          "internalType": "uint256",
          "name": "",
          "type": "uint256"
        }
      ],
      "payable": false,
      "stateMutability": "view",
      "type": "function"
    },
    {
      "constant": false,
      "inputs": [
        {
          "internalType": "address",
          "name": "to",
          "type": "address"
        },
        {
          "internalType": "uint256",
          "name": "value",
          "type": "uint256"
        }
      ],
      "name": "transfer",
      "outputs": [
        {
          "internalType": "bool",
          "name": "",
          "type": "bool"
        }
      ],
      "payable": false,
      "stateMutability": "nonpayable",
      "type": "function"
    },
    {
      "constant": false,
      "inputs": [
        {
          "internalType": "address",
          "name": "from",
          "type": "address"
        },
        {
          "internalType": "address",
          "name": "to",
          "type": "address"
        },
        {
          "internalType": "uint256",
          "name": "value",
          "type": "uint256"
        }
      ],
      "name": "transferFrom",
      "outputs": [
        {
          "internalType": "bool",
          "name": "",
          "type": "bool"
        }
      ],
      "payable": false,
      "stateMutability": "nonpayable",
      "type": "function"
    },
    {
      "constant": true,
      "inputs": [],
      "name": "underlying",
      "outputs": [
        {
          "internalType": "address",
          "name": "",
          "type": "address"
        }
      ],
      "payable": false,
      "stateMutability": "view",
      "type": "function"
    },
    {
      "constant": false,
      "inputs": [
        {
          "internalType": "address",
          "name": "_underlying",
          "type": "address"
        }
      ],
      "name": "setUnderlying",
      "outputs": [],
      "payable": false,
      "stateMutability": "nonpayable",
      "type": "function"
    }
  ],
  "bytecode": "0x60806040526012600260006101000a81548160ff021916908360ff1602179055506001600b60006101000a81548160ff0219169083151502179055506125c98061004a6000396000f3fe608060405234801561001057600080fd5b50600436106101585760003560e01c80637ecebe00116100c3578063bc25cf771161007c578063bc25cf7714610641578063bdb2321f14610685578063c45a0155146106c9578063d505accf14610713578063dd62ed3e146107ac578063fff6cae91461082457610158565b80637ecebe001461046c57806395a2251f146104c457806395d89b411461051c578063a9059cbb1461059f578063ad7a672f14610605578063ba9a7a561461062357610158565b80633644e515116101155780633644e5151461032c5780633ba0b9a91461034a5780634a5d316c146103685780636a627842146103725780636f307dc3146103ca57806370a082311461041457610158565b806306fdde031461015d578063095ea7b3146101e057806318160ddd1461024657806323b872dd1461026457806330adf81f146102ea578063313ce56714610308575b600080fd5b61016561082e565b6040518080602001828103825283818151815260200191508051906020019080838360005b838110156101a557808201518184015260208101905061018a565b50505050905090810190601f1680156101d25780820380516001836020036101000a031916815260200191505b509250505060405180910390f35b61022c600480360360408110156101f657600080fd5b81019080803573ffffffffffffffffffffffffffffffffffffffff169060200190929190803590602001909291905050506108cc565b604051808215151515815260200191505060405180910390f35b61024e6108e3565b6040518082815260200191505060405180910390f35b6102d06004803603606081101561027a57600080fd5b81019080803573ffffffffffffffffffffffffffffffffffffffff169060200190929190803573ffffffffffffffffffffffffffffffffffffffff169060200190929190803590602001909291905050506108e9565b604051808215151515815260200191505060405180910390f35b6102f2610aeb565b6040518082815260200191505060405180910390f35b610310610b12565b604051808260ff1660ff16815260200191505060405180910390f35b610334610b25565b6040518082815260200191505060405180910390f35b610352610b2b565b6040518082815260200191505060405180910390f35b610370610b95565b005b6103b46004803603602081101561038857600080fd5b81019080803573ffffffffffffffffffffffffffffffffffffffff169060200190929190505050610c9c565b6040518082815260200191505060405180910390f35b6103d2610faf565b604051808273ffffffffffffffffffffffffffffffffffffffff1673ffffffffffffffffffffffffffffffffffffffff16815260200191505060405180910390f35b6104566004803603602081101561042a57600080fd5b81019080803573ffffffffffffffffffffffffffffffffffffffff169060200190929190505050610fd5565b6040518082815260200191505060405180910390f35b6104ae6004803603602081101561048257600080fd5b81019080803573ffffffffffffffffffffffffffffffffffffffff169060200190929190505050610fed565b6040518082815260200191505060405180910390f35b610506600480360360208110156104da57600080fd5b81019080803573ffffffffffffffffffffffffffffffffffffffff169060200190929190505050611005565b6040518082815260200191505060405180910390f35b6105246112b6565b6040518080602001828103825283818151815260200191508051906020019080838360005b83811015610564578082015181840152602081019050610549565b50505050905090810190601f1680156105915780820380516001836020036101000a031916815260200191505b509250505060405180910390f35b6105eb600480360360408110156105b557600080fd5b81019080803573ffffffffffffffffffffffffffffffffffffffff16906020019092919080359060200190929190505050611354565b604051808215151515815260200191505060405180910390f35b61060d61136b565b6040518082815260200191505060405180910390f35b61062b611371565b6040518082815260200191505060405180910390f35b6106836004803603602081101561065757600080fd5b81019080803573ffffffffffffffffffffffffffffffffffffffff169060200190929190505050611377565b005b6106c76004803603602081101561069b57600080fd5b81019080803573ffffffffffffffffffffffffffffffffffffffff169060200190929190505050611529565b005b6106d161156d565b604051808273ffffffffffffffffffffffffffffffffffffffff1673ffffffffffffffffffffffffffffffffffffffff16815260200191505060405180910390f35b6107aa600480360360e081101561072957600080fd5b81019080803573ffffffffffffffffffffffffffffffffffffffff169060200190929190803573ffffffffffffffffffffffffffffffffffffffff1690602001909291908035906020019092919080359060200190929190803560ff1690602001909291908035906020019092919080359060200190929190505050611593565b005b61080e600480360360408110156107c257600080fd5b81019080803573ffffffffffffffffffffffffffffffffffffffff169060200190929190803573ffffffffffffffffffffffffffffffffffffffff1690602001909291905050506115da565b6040518082815260200191505060405180910390f35b61082c6115ff565b005b60008054600181600116156101000203166002900480601f0160208091040260200160405190810160405280929190818152602001828054600181600116156101000203166002900480156108c45780601f10610899576101008083540402835291602001916108c4565b820191906000526020600020905b8154815290600101906020018083116108a757829003601f168201915b505050505081565b60006108d93384846116c1565b6001905092915050565b60035481565b60007fffffffffffffffffffffffffffffffffffffffffffffffffffffffffffffffff600560008673ffffffffffffffffffffffffffffffffffffffff1673ffffffffffffffffffffffffffffffffffffffff16815260200190815260200160002060003373ffffffffffffffffffffffffffffffffffffffff1673ffffffffffffffffffffffffffffffffffffffff1681526020019081526020016000205414610ad557610a54826040518060400160405280601e81526020017f496d7065726d61783a205452414e534645525f4e4f545f414c4c4f5745440000815250600560008873ffffffffffffffffffffffffffffffffffffffff1673ffffffffffffffffffffffffffffffffffffffff16815260200190815260200160002060003373ffffffffffffffffffffffffffffffffffffffff1673ffffffffffffffffffffffffffffffffffffffff168152602001908152602001600020546117ac9092919063ffffffff16565b600560008673ffffffffffffffffffffffffffffffffffffffff1673ffffffffffffffffffffffffffffffffffffffff16815260200190815260200160002060003373ffffffffffffffffffffffffffffffffffffffff1673ffffffffffffffffffffffffffffffffffffffff168152602001908152602001600020819055505b610ae084848461186c565b600190509392505050565b7f6e71edae12b1b97f4d1f60370fef10105fa2faae0126114a169c64845d6126c960001b81565b600260009054906101000a900460ff1681565b60065481565b60008060035490506000600a5490506000821480610b495750600081145b15610b6057670de0b6b3a764000092505050610b92565b610b8d82610b7f670de0b6b3a764000084611a3790919063ffffffff16565b611abd90919063ffffffff16565b925050505b90565b600073ffffffffffffffffffffffffffffffffffffffff16600960009054906101000a900473ffffffffffffffffffffffffffffffffffffffff1673ffffffffffffffffffffffffffffffffffffffff1614610c59576040517f08c379a000000000000000000000000000000000000000000000000000000000815260040180806020018281038252601d8152602001807f496d7065726d61783a20464143544f52595f414c52454144595f53455400000081525060200191505060405180910390fd5b33600960006101000a81548173ffffffffffffffffffffffffffffffffffffffff021916908373ffffffffffffffffffffffffffffffffffffffff160217905550565b6000600b60009054906101000a900460ff16610d20576040517f08c379a00000000000000000000000000000000000000000000000000000000081526004018080602001828103825260138152602001807f496d7065726d61783a205245454e54455245440000000000000000000000000081525060200191505060405180910390fd5b6000600b60006101000a81548160ff0219169083151502179055506000600860009054906101000a900473ffffffffffffffffffffffffffffffffffffffff1673ffffffffffffffffffffffffffffffffffffffff166370a08231306040518263ffffffff1660e01b8152600401808273ffffffffffffffffffffffffffffffffffffffff1673ffffffffffffffffffffffffffffffffffffffff16815260200191505060206040518083038186803b158015610ddc57600080fd5b505afa158015610df0573d6000803e3d6000fd5b505050506040513d6020811015610e0657600080fd5b810190808051906020019092919050505090506000610e30600a5483611b0790919063ffffffff16565b9050610e66610e3d610b2b565b610e58670de0b6b3a764000084611a3790919063ffffffff16565b611abd90919063ffffffff16565b925060006003541415610e9857610e886103e884611b0790919063ffffffff16565b9250610e9760006103e8611b51565b5b60008311610f0e576040517f08c379a000000000000000000000000000000000000000000000000000000000815260040180806020018281038252601a8152602001807f496d7065726d61783a204d494e545f414d4f554e545f5a45524f00000000000081525060200191505060405180910390fd5b610f188484611b51565b8373ffffffffffffffffffffffffffffffffffffffff163373ffffffffffffffffffffffffffffffffffffffff167f2f00e3cdd69a77be7ed215ec7b2a36784dd158f921fca79ac29deffa353fe6ee8386604051808381526020018281526020019250505060405180910390a35050610f8f611c6b565b6001600b60006101000a81548160ff021916908315150217905550919050565b600860009054906101000a900473ffffffffffffffffffffffffffffffffffffffff1681565b60046020528060005260406000206000915090505481565b60076020528060005260406000206000915090505481565b6000600b60009054906101000a900460ff16611089576040517f08c379a00000000000000000000000000000000000000000000000000000000081526004018080602001828103825260138152602001807f496d7065726d61783a205245454e54455245440000000000000000000000000081525060200191505060405180910390fd5b6000600b60006101000a81548160ff0219169083151502179055506000600460003073ffffffffffffffffffffffffffffffffffffffff1673ffffffffffffffffffffffffffffffffffffffff16815260200190815260200160002054905061111c670de0b6b3a764000061110e6110ff610b2b565b84611a3790919063ffffffff16565b611abd90919063ffffffff16565b915060008211611194576040517f08c379a000000000000000000000000000000000000000000000000000000000815260040180806020018281038252601c8152602001807f496d7065726d61783a2052454445454d5f414d4f554e545f5a45524f0000000081525060200191505060405180910390fd5b600a5482111561120c576040517f08c379a000000000000000000000000000000000000000000000000000000000815260040180806020018281038252601b8152602001807f496d7065726d61783a20494e53554646494349454e545f43415348000000000081525060200191505060405180910390fd5b6112168383611d86565b6112203082611ff4565b8273ffffffffffffffffffffffffffffffffffffffff163373ffffffffffffffffffffffffffffffffffffffff167f3f693fff038bb8a046aa76d9516190ac7444f7d69cf952c4cbdc086fdef2d6fc8484604051808381526020018281526020019250505060405180910390a350611296611c6b565b6001600b60006101000a81548160ff021916908315150217905550919050565b60018054600181600116156101000203166002900480601f01602080910402602001604051908101604052809291908181526020018280546001816001161561010002031660029004801561134c5780601f106113215761010080835404028352916020019161134c565b820191906000526020600020905b81548152906001019060200180831161132f57829003601f168201915b505050505081565b600061136133848461186c565b6001905092915050565b600a5481565b6103e881565b600b60009054906101000a900460ff166113f9576040517f08c379a00000000000000000000000000000000000000000000000000000000081526004018080602001828103825260138152602001807f496d7065726d61783a205245454e54455245440000000000000000000000000081525060200191505060405180910390fd5b6000600b60006101000a81548160ff02191690831515021790555061150b81611506600a54600860009054906101000a900473ffffffffffffffffffffffffffffffffffffffff1673ffffffffffffffffffffffffffffffffffffffff166370a08231306040518263ffffffff1660e01b8152600401808273ffffffffffffffffffffffffffffffffffffffff1673ffffffffffffffffffffffffffffffffffffffff16815260200191505060206040518083038186803b1580156114bd57600080fd5b505afa1580156114d1573d6000803e3d6000fd5b505050506040513d60208110156114e757600080fd5b8101908080519060200190929190505050611b0790919063ffffffff16565b611d86565b6001600b60006101000a81548160ff02191690831515021790555050565b80600860006101000a81548173ffffffffffffffffffffffffffffffffffffffff021916908373ffffffffffffffffffffffffffffffffffffffff16021790555050565b600960009054906101000a900473ffffffffffffffffffffffffffffffffffffffff1681565b6115c6878787878787877f6e71edae12b1b97f4d1f60370fef10105fa2faae0126114a169c64845d6126c960001b61210e565b6115d18787876116c1565b50505050505050565b6005602052816000526040600020602052806000526040600020600091509150505481565b600b60009054906101000a900460ff16611681576040517f08c379a00000000000000000000000000000000000000000000000000000000081526004018080602001828103825260138152602001807f496d7065726d61783a205245454e54455245440000000000000000000000000081525060200191505060405180910390fd5b6000600b60006101000a81548160ff0219169083151502179055506116a4611c6b565b6001600b60006101000a81548160ff021916908315150217905550565b80600560008573ffffffffffffffffffffffffffffffffffffffff1673ffffffffffffffffffffffffffffffffffffffff16815260200190815260200160002060008473ffffffffffffffffffffffffffffffffffffffff1673ffffffffffffffffffffffffffffffffffffffff168152602001908152602001600020819055508173ffffffffffffffffffffffffffffffffffffffff168373ffffffffffffffffffffffffffffffffffffffff167f8c5be1e5ebec7d5bd14f71427d1e84f3dd0314c0f7b2291e5b200ac8c7c3b925836040518082815260200191505060405180910390a3505050565b6000838311158290611859576040517f08c379a00000000000000000000000000000000000000000000000000000000081526004018080602001828103825283818151815260200191508051906020019080838360005b8381101561181e578082015181840152602081019050611803565b50505050905090810190601f16801561184b5780820380516001836020036101000a031916815260200191505b509250505060405180910390fd5b5060008385039050809150509392505050565b6118f5816040518060400160405280601b81526020017f496d7065726d61783a205452414e534645525f544f4f5f484947480000000000815250600460008773ffffffffffffffffffffffffffffffffffffffff1673ffffffffffffffffffffffffffffffffffffffff168152602001908152602001600020546117ac9092919063ffffffff16565b600460008573ffffffffffffffffffffffffffffffffffffffff1673ffffffffffffffffffffffffffffffffffffffff1681526020019081526020016000208190555061198a81600460008573ffffffffffffffffffffffffffffffffffffffff1673ffffffffffffffffffffffffffffffffffffffff1681526020019081526020016000205461242590919063ffffffff16565b600460008473ffffffffffffffffffffffffffffffffffffffff1673ffffffffffffffffffffffffffffffffffffffff168152602001908152602001600020819055508173ffffffffffffffffffffffffffffffffffffffff168373ffffffffffffffffffffffffffffffffffffffff167fddf252ad1be2c89b69c2b068fc378daa952ba7f163c4a11628f55a4df523b3ef836040518082815260200191505060405180910390a3505050565b600080831415611a4a5760009050611ab7565b6000828402905082848281611a5b57fe5b0414611ab2576040517f08c379a00000000000000000000000000000000000000000000000000000000081526004018080602001828103825260218152602001806125746021913960400191505060405180910390fd5b809150505b92915050565b6000611aff83836040518060400160405280601a81526020017f536166654d6174683a206469766973696f6e206279207a65726f0000000000008152506124ad565b905092915050565b6000611b4983836040518060400160405280601f81526020017f536166654d6174683a207375627472616374696f6e20756e646572666c6f77008152506117ac565b905092915050565b611b668160035461242590919063ffffffff16565b600381905550611bbe81600460008573ffffffffffffffffffffffffffffffffffffffff1673ffffffffffffffffffffffffffffffffffffffff1681526020019081526020016000205461242590919063ffffffff16565b600460008473ffffffffffffffffffffffffffffffffffffffff1673ffffffffffffffffffffffffffffffffffffffff168152602001908152602001600020819055508173ffffffffffffffffffffffffffffffffffffffff16600073ffffffffffffffffffffffffffffffffffffffff167fddf252ad1be2c89b69c2b068fc378daa952ba7f163c4a11628f55a4df523b3ef836040518082815260200191505060405180910390a35050565b600860009054906101000a900473ffffffffffffffffffffffffffffffffffffffff1673ffffffffffffffffffffffffffffffffffffffff166370a08231306040518263ffffffff1660e01b8152600401808273ffffffffffffffffffffffffffffffffffffffff1673ffffffffffffffffffffffffffffffffffffffff16815260200191505060206040518083038186803b158015611d0a57600080fd5b505afa158015611d1e573d6000803e3d6000fd5b505050506040513d6020811015611d3457600080fd5b8101908080519060200190929190505050600a819055507f8a0df8ef054fae2c3d2d19a7b322e864870cc9fd3cb07fb9526309c596244bf4600a546040518082815260200191505060405180910390a1565b60006060600860009054906101000a900473ffffffffffffffffffffffffffffffffffffffff1673ffffffffffffffffffffffffffffffffffffffff166040518060400160405280601981526020017f7472616e7366657228616464726573732c75696e743235362900000000000000815250805190602001208585604051602401808373ffffffffffffffffffffffffffffffffffffffff1673ffffffffffffffffffffffffffffffffffffffff16815260200182815260200192505050604051602081830303815290604052907bffffffffffffffffffffffffffffffffffffffffffffffffffffffff19166020820180517bffffffffffffffffffffffffffffffffffffffffffffffffffffffff83818316178352505050506040518082805190602001908083835b60208310611ed55780518252602082019150602081019050602083039250611eb2565b6001836020036101000a0380198251168184511680821785525050505050509050019150506000604051808303816000865af19150503d8060008114611f37576040519150601f19603f3d011682016040523d82523d6000602084013e611f3c565b606091505b5091509150818015611f7c5750600081511480611f7b5750808060200190516020811015611f6957600080fd5b81019080805190602001909291905050505b5b611fee576040517f08c379a00000000000000000000000000000000000000000000000000000000081526004018080602001828103825260198152602001807f496d7065726d61783a205452414e534645525f4641494c45440000000000000081525060200191505060405180910390fd5b50505050565b61204681600460008573ffffffffffffffffffffffffffffffffffffffff1673ffffffffffffffffffffffffffffffffffffffff16815260200190815260200160002054611b0790919063ffffffff16565b600460008473ffffffffffffffffffffffffffffffffffffffff1673ffffffffffffffffffffffffffffffffffffffff1681526020019081526020016000208190555061209e81600354611b0790919063ffffffff16565b600381905550600073ffffffffffffffffffffffffffffffffffffffff168273ffffffffffffffffffffffffffffffffffffffff167fddf252ad1be2c89b69c2b068fc378daa952ba7f163c4a11628f55a4df523b3ef836040518082815260200191505060405180910390a35050565b42851015612184576040517f08c379a00000000000000000000000000000000000000000000000000000000081526004018080602001828103825260118152602001807f496d7065726d61783a204558504952454400000000000000000000000000000081525060200191505060405180910390fd5b6000600654828a8a8a600760008f73ffffffffffffffffffffffffffffffffffffffff1673ffffffffffffffffffffffffffffffffffffffff1681526020019081526020016000206000815480929190600101919050558b604051602001808781526020018673ffffffffffffffffffffffffffffffffffffffff1673ffffffffffffffffffffffffffffffffffffffff1681526020018573ffffffffffffffffffffffffffffffffffffffff1673ffffffffffffffffffffffffffffffffffffffff16815260200184815260200183815260200182815260200196505050505050506040516020818303038152906040528051906020012060405160200180807f190100000000000000000000000000000000000000000000000000000000000081525060020183815260200182815260200192505050604051602081830303815290604052805190602001209050600060018287878760405160008152602001604052604051808581526020018460ff1660ff1681526020018381526020018281526020019450505050506020604051602081039080840390855afa158015612333573d6000803e3d6000fd5b505050602060405103519050600073ffffffffffffffffffffffffffffffffffffffff168173ffffffffffffffffffffffffffffffffffffffff16141580156123a757508973ffffffffffffffffffffffffffffffffffffffff168173ffffffffffffffffffffffffffffffffffffffff16145b612419576040517f08c379a000000000000000000000000000000000000000000000000000000000815260040180806020018281038252601b8152602001807f496d7065726d61783a20494e56414c49445f5349474e4154555245000000000081525060200191505060405180910390fd5b50505050505050505050565b6000808284019050838110156124a3576040517f08c379a000000000000000000000000000000000000000000000000000000000815260040180806020018281038252601b8152602001807f536166654d6174683a206164646974696f6e206f766572666c6f77000000000081525060200191505060405180910390fd5b8091505092915050565b60008083118290612559576040517f08c379a00000000000000000000000000000000000000000000000000000000081526004018080602001828103825283818151815260200191508051906020019080838360005b8381101561251e578082015181840152602081019050612503565b50505050905090810190601f16801561254b5780820380516001836020036101000a031916815260200191505b509250505060405180910390fd5b50600083858161256557fe5b04905080915050939250505056fe536166654d6174683a206d756c7469706c69636174696f6e206f766572666c6f77a265627a7a72315820d72281bb8eb872edf48fd2cf5340e69acbc20841d89407577e6326794581fda664736f6c63430005100032",
  "source": "pragma solidity =0.5.16;\r\n\r\nimport \"../../contracts/PoolToken.sol\";\r\n\r\ncontract PoolTokenHarness is PoolToken {\r\n\tfunction setUnderlying(address _underlying) public {\r\n\t\tunderlying = _underlying;\r\n\t}\r\n}",
  "sourcePath": "C:/Users/simor/Desktop/impermax-x-uniswapv2-core/contracts/Contracts/PoolTokenHarness.sol",
  "compiler": {
    "name": "solc",
    "version": "0.5.16+commit.9c3226ce.Emscripten.clang"
  },
  "schemaVersion": "3.3.2",
  "updatedAt": "2021-01-07T14:19:53.157Z",
  "devdoc": {
    "methods": {}
  },
  "userdoc": {
    "methods": {
      "_setFactory()": {
        "notice": "* Initialize **"
      }
    }
  }
}