{
  "contractName": "ReentrantCallee",
  "abi": [
    {
      "inputs": [],
      "payable": false,
      "stateMutability": "nonpayable",
      "type": "constructor"
    },
    {
      "constant": false,
      "inputs": [
        {
          "internalType": "address",
          "name": "sender",
          "type": "address"
        },
        {
          "internalType": "address",
          "name": "borrower",
          "type": "address"
        },
        {
          "internalType": "uint256",
          "name": "borrowAmount",
          "type": "uint256"
        },
        {
          "internalType": "bytes",
          "name": "data",
          "type": "bytes"
        }
      ],
      "name": "impermaxBorrow",
      "outputs": [],
      "payable": false,
      "stateMutability": "nonpayable",
      "type": "function"
    },
    {
      "constant": false,
      "inputs": [
        {
          "internalType": "address",
          "name": "sender",
          "type": "address"
        },
        {
          "internalType": "address",
          "name": "redeemer",
          "type": "address"
        },
        {
          "internalType": "uint256",
          "name": "redeemAmount",
          "type": "uint256"
        },
        {
          "internalType": "bytes",
          "name": "data",
          "type": "bytes"
        }
      ],
      "name": "impermaxRedeem",
      "outputs": [],
      "payable": false,
      "stateMutability": "nonpayable",
      "type": "function"
    }
  ],
  "bytecode": "0x608060405234801561001057600080fd5b50610e3f806100206000396000f3fe608060405234801561001057600080fd5b50600436106100365760003560e01c806333b71f851461003b578063876d9d9e146100fe575b600080fd5b6100fc6004803603608081101561005157600080fd5b81019080803573ffffffffffffffffffffffffffffffffffffffff169060200190929190803573ffffffffffffffffffffffffffffffffffffffff16906020019092919080359060200190929190803590602001906401000000008111156100b857600080fd5b8201836020820111156100ca57600080fd5b803590602001918460018302840111640100000000831117156100ec57600080fd5b90919293919293905050506101c1565b005b6101bf6004803603608081101561011457600080fd5b81019080803573ffffffffffffffffffffffffffffffffffffffff169060200190929190803573ffffffffffffffffffffffffffffffffffffffff169060200190929190803590602001909291908035906020019064010000000081111561017b57600080fd5b82018360208201111561018d57600080fd5b803590602001918460018302840111640100000000831117156101af57600080fd5b90919293919293905050506107aa565b005b60003090506000838360208110156101d857600080fd5b8101908080359060200190929190505050905060018114156102b4573373ffffffffffffffffffffffffffffffffffffffff16636a627842836040518263ffffffff1660e01b8152600401808273ffffffffffffffffffffffffffffffffffffffff1673ffffffffffffffffffffffffffffffffffffffff168152602001915050602060405180830381600087803b15801561027357600080fd5b505af1158015610287573d6000803e3d6000fd5b505050506040513d602081101561029d57600080fd5b8101908080519060200190929190505050506107a1565b600281141561037d573373ffffffffffffffffffffffffffffffffffffffff166395a2251f836040518263ffffffff1660e01b8152600401808273ffffffffffffffffffffffffffffffffffffffff1673ffffffffffffffffffffffffffffffffffffffff168152602001915050602060405180830381600087803b15801561033c57600080fd5b505af1158015610350573d6000803e3d6000fd5b505050506040513d602081101561036657600080fd5b8101908080519060200190929190505050506107a0565b6003811415610422573373ffffffffffffffffffffffffffffffffffffffff1663bc25cf77836040518263ffffffff1660e01b8152600401808273ffffffffffffffffffffffffffffffffffffffff1673ffffffffffffffffffffffffffffffffffffffff168152602001915050600060405180830381600087803b15801561040557600080fd5b505af1158015610419573d6000803e3d6000fd5b5050505061079f565b6004811415610490573373ffffffffffffffffffffffffffffffffffffffff1663fff6cae96040518163ffffffff1660e01b8152600401600060405180830381600087803b15801561047357600080fd5b505af1158015610487573d6000803e3d6000fd5b5050505061079e565b6005811415610612573373ffffffffffffffffffffffffffffffffffffffff16631e7dcc0d83846000806040519080825280601f01601f1916602001820160405280156104ec5781602001600182028038833980820191505090505b506040518563ffffffff1660e01b8152600401808573ffffffffffffffffffffffffffffffffffffffff1673ffffffffffffffffffffffffffffffffffffffff1681526020018473ffffffffffffffffffffffffffffffffffffffff1673ffffffffffffffffffffffffffffffffffffffff16815260200183815260200180602001828103825283818151815260200191508051906020019080838360005b838110156105a657808201518184015260208101905061058b565b50505050905090810190601f1680156105d35780820380516001836020036101000a031916815260200191505b5095505050505050600060405180830381600087803b1580156105f557600080fd5b505af1158015610609573d6000803e3d6000fd5b5050505061079d565b600681141561070f573373ffffffffffffffffffffffffffffffffffffffff166386b9d81f83846040518363ffffffff1660e01b8152600401808373ffffffffffffffffffffffffffffffffffffffff1673ffffffffffffffffffffffffffffffffffffffff1681526020018273ffffffffffffffffffffffffffffffffffffffff1673ffffffffffffffffffffffffffffffffffffffff16815260200192505050602060405180830381600087803b1580156106ce57600080fd5b505af11580156106e2573d6000803e3d6000fd5b505050506040513d60208110156106f857600080fd5b81019080805190602001909291905050505061079c565b600781141561079b573373ffffffffffffffffffffffffffffffffffffffff16636f307dc36040518163ffffffff1660e01b815260040160206040518083038186803b15801561075e57600080fd5b505afa158015610772573d6000803e3d6000fd5b505050506040513d602081101561078857600080fd5b8101908080519060200190929190505050505b5b5b5b5b5b5b50505050505050565b60003090506000838360208110156107c157600080fd5b81019080803590602001909291905050509050600081141561084b576040517f08c379a00000000000000000000000000000000000000000000000000000000081526004018080602001828103825260048152602001807f544553540000000000000000000000000000000000000000000000000000000081525060200191505060405180910390fd5b6001811415610914573373ffffffffffffffffffffffffffffffffffffffff16636a627842836040518263ffffffff1660e01b8152600401808273ffffffffffffffffffffffffffffffffffffffff1673ffffffffffffffffffffffffffffffffffffffff168152602001915050602060405180830381600087803b1580156108d357600080fd5b505af11580156108e7573d6000803e3d6000fd5b505050506040513d60208110156108fd57600080fd5b810190808051906020019092919050505050610e01565b60028114156109dd573373ffffffffffffffffffffffffffffffffffffffff166395a2251f836040518263ffffffff1660e01b8152600401808273ffffffffffffffffffffffffffffffffffffffff1673ffffffffffffffffffffffffffffffffffffffff168152602001915050602060405180830381600087803b15801561099c57600080fd5b505af11580156109b0573d6000803e3d6000fd5b505050506040513d60208110156109c657600080fd5b810190808051906020019092919050505050610e00565b6003811415610a82573373ffffffffffffffffffffffffffffffffffffffff1663bc25cf77836040518263ffffffff1660e01b8152600401808273ffffffffffffffffffffffffffffffffffffffff1673ffffffffffffffffffffffffffffffffffffffff168152602001915050600060405180830381600087803b158015610a6557600080fd5b505af1158015610a79573d6000803e3d6000fd5b50505050610dff565b6004811415610af0573373ffffffffffffffffffffffffffffffffffffffff1663fff6cae96040518163ffffffff1660e01b8152600401600060405180830381600087803b158015610ad357600080fd5b505af1158015610ae7573d6000803e3d6000fd5b50505050610dfe565b6005811415610c72573373ffffffffffffffffffffffffffffffffffffffff16631e7dcc0d83846000806040519080825280601f01601f191660200182016040528015610b4c5781602001600182028038833980820191505090505b506040518563ffffffff1660e01b8152600401808573ffffffffffffffffffffffffffffffffffffffff1673ffffffffffffffffffffffffffffffffffffffff1681526020018473ffffffffffffffffffffffffffffffffffffffff1673ffffffffffffffffffffffffffffffffffffffff16815260200183815260200180602001828103825283818151815260200191508051906020019080838360005b83811015610c06578082015181840152602081019050610beb565b50505050905090810190601f168015610c335780820380516001836020036101000a031916815260200191505b5095505050505050600060405180830381600087803b158015610c5557600080fd5b505af1158015610c69573d6000803e3d6000fd5b50505050610dfd565b6006811415610d6f573373ffffffffffffffffffffffffffffffffffffffff166386b9d81f83846040518363ffffffff1660e01b8152600401808373ffffffffffffffffffffffffffffffffffffffff1673ffffffffffffffffffffffffffffffffffffffff1681526020018273ffffffffffffffffffffffffffffffffffffffff1673ffffffffffffffffffffffffffffffffffffffff16815260200192505050602060405180830381600087803b158015610d2e57600080fd5b505af1158015610d42573d6000803e3d6000fd5b505050506040513d6020811015610d5857600080fd5b810190808051906020019092919050505050610dfc565b6007811415610dfb573373ffffffffffffffffffffffffffffffffffffffff16636f307dc36040518163ffffffff1660e01b815260040160206040518083038186803b158015610dbe57600080fd5b505afa158015610dd2573d6000803e3d6000fd5b505050506040513d6020811015610de857600080fd5b8101908080519060200190929190505050505b5b5b5b5b5b5b5050505050505056fea265627a7a72315820176f402665d242e0f9d7914bd641fa036504e362e8192965b3e57994ea47c2f064736f6c63430005100032",
  "source": "pragma solidity =0.5.16;\r\n\r\nimport \"../../contracts/interfaces/IBorrowable.sol\";\r\nimport \"../../contracts/interfaces/IImpermaxCallee.sol\";\r\n\r\ncontract ReentrantCallee is IImpermaxCallee {\r\n\t\r\n\tconstructor () public {}\r\n\r\n\tfunction impermaxBorrow(address sender, address borrower, uint borrowAmount, bytes calldata data) external {\r\n\t\tsender; borrower; borrowAmount;\r\n\t\taddress a = address(this);\r\n\t\t(uint i) = abi.decode(data, (uint));\r\n\t\trequire(i != 0, \"TEST\");\r\n\t\tif (i == 1) IBorrowable(msg.sender).mint(a);\r\n\t\telse if (i == 2) IBorrowable(msg.sender).redeem(a);\r\n\t\telse if (i == 3) IBorrowable(msg.sender).skim(a);\r\n\t\telse if (i == 4) IBorrowable(msg.sender).sync();\r\n\t\telse if (i == 5) IBorrowable(msg.sender).borrow(a, a, 0, new bytes(0));\r\n\t\telse if (i == 6) IBorrowable(msg.sender).liquidate(a, a);\r\n\t\telse if (i == 7) IBorrowable(msg.sender).underlying();\r\n\t}\r\n\t\r\n    function impermaxRedeem(address sender, address redeemer, uint redeemAmount, bytes calldata data) external {\r\n\t\tsender; redeemer; redeemAmount;\r\n\t\taddress a = address(this);\r\n\t\t(uint i) = abi.decode(data, (uint));\r\n\t\tif (i == 1) IBorrowable(msg.sender).mint(a);\r\n\t\telse if (i == 2) IBorrowable(msg.sender).redeem(a);\r\n\t\telse if (i == 3) IBorrowable(msg.sender).skim(a);\r\n\t\telse if (i == 4) IBorrowable(msg.sender).sync();\r\n\t\telse if (i == 5) IBorrowable(msg.sender).borrow(a, a, 0, new bytes(0));\r\n\t\telse if (i == 6) IBorrowable(msg.sender).liquidate(a, a);\r\n\t\telse if (i == 7) IBorrowable(msg.sender).underlying();\r\n\t}\r\n\t\r\n}",
  "sourcePath": "C:/Users/simor/Desktop/impermax-x-uniswapv2-core/contracts/Contracts/ReentrantCallee.sol",
  "compiler": {
    "name": "solc",
    "version": "0.5.16+commit.9c3226ce.Emscripten.clang"
  },
  "schemaVersion": "3.3.2",
  "updatedAt": "2021-01-07T14:19:53.159Z",
  "devdoc": {
    "methods": {}
  },
  "userdoc": {
    "methods": {}
  }
}